{
  "_format": "hh-sol-artifact-1",
  "contractName": "MockUSDC",
  "sourceName": "src/MockUSDC.sol",
  "abi": [
    {
      "inputs": [],
      "stateMutability": "nonpayable",
      "type": "constructor"
    },
    {
      "inputs": [
        {
          "internalType": "address",
          "name": "spender",
          "type": "address"
        },
        {
          "internalType": "uint256",
          "name": "allowance",
          "type": "uint256"
        },
        {
          "internalType": "uint256",
          "name": "needed",
          "type": "uint256"
        }
      ],
      "name": "ERC20InsufficientAllowance",
      "type": "error"
    },
    {
      "inputs": [
        {
          "internalType": "address",
          "name": "sender",
          "type": "address"
        },
        {
          "internalType": "uint256",
          "name": "balance",
          "type": "uint256"
        },
        {
          "internalType": "uint256",
          "name": "needed",
          "type": "uint256"
        }
      ],
      "name": "ERC20InsufficientBalance",
      "type": "error"
    },
    {
      "inputs": [
        {
          "internalType": "address",
          "name": "approver",
          "type": "address"
        }
      ],
      "name": "ERC20InvalidApprover",
      "type": "error"
    },
    {
      "inputs": [
        {
          "internalType": "address",
          "name": "receiver",
          "type": "address"
        }
      ],
      "name": "ERC20InvalidReceiver",
      "type": "error"
    },
    {
      "inputs": [
        {
          "internalType": "address",
          "name": "sender",
          "type": "address"
        }
      ],
      "name": "ERC20InvalidSender",
      "type": "error"
    },
    {
      "inputs": [
        {
          "internalType": "address",
          "name": "spender",
          "type": "address"
        }
      ],
      "name": "ERC20InvalidSpender",
      "type": "error"
    },
    {
      "inputs": [
        {
          "internalType": "address",
          "name": "owner",
          "type": "address"
        }
      ],
      "name": "OwnableInvalidOwner",
      "type": "error"
    },
    {
      "inputs": [
        {
          "internalType": "address",
          "name": "account",
          "type": "address"
        }
      ],
      "name": "OwnableUnauthorizedAccount",
      "type": "error"
    },
    {
      "anonymous": false,
      "inputs": [
        {
          "indexed": true,
          "internalType": "address",
          "name": "owner",
          "type": "address"
        },
        {
          "indexed": true,
          "internalType": "address",
          "name": "spender",
          "type": "address"
        },
        {
          "indexed": false,
          "internalType": "uint256",
          "name": "value",
          "type": "uint256"
        }
      ],
      "name": "Approval",
      "type": "event"
    },
    {
      "anonymous": false,
      "inputs": [
        {
          "indexed": true,
          "internalType": "address",
          "name": "previousOwner",
          "type": "address"
        },
        {
          "indexed": true,
          "internalType": "address",
          "name": "newOwner",
          "type": "address"
        }
      ],
      "name": "OwnershipTransferred",
      "type": "event"
    },
    {
      "anonymous": false,
      "inputs": [
        {
          "indexed": true,
          "internalType": "address",
          "name": "from",
          "type": "address"
        },
        {
          "indexed": true,
          "internalType": "address",
          "name": "to",
          "type": "address"
        },
        {
          "indexed": false,
          "internalType": "uint256",
          "name": "value",
          "type": "uint256"
        }
      ],
      "name": "Transfer",
      "type": "event"
    },
    {
      "inputs": [
        {
          "internalType": "address",
          "name": "owner",
          "type": "address"
        },
        {
          "internalType": "address",
          "name": "spender",
          "type": "address"
        }
      ],
      "name": "allowance",
      "outputs": [
        {
          "internalType": "uint256",
          "name": "",
          "type": "uint256"
        }
      ],
      "stateMutability": "view",
      "type": "function"
    },
    {
      "inputs": [
        {
          "internalType": "address",
          "name": "spender",
          "type": "address"
        },
        {
          "internalType": "uint256",
          "name": "value",
          "type": "uint256"
        }
      ],
      "name": "approve",
      "outputs": [
        {
          "internalType": "bool",
          "name": "",
          "type": "bool"
        }
      ],
      "stateMutability": "nonpayable",
      "type": "function"
    },
    {
      "inputs": [
        {
          "internalType": "address",
          "name": "account",
          "type": "address"
        }
      ],
      "name": "balanceOf",
      "outputs": [
        {
          "internalType": "uint256",
          "name": "",
          "type": "uint256"
        }
      ],
      "stateMutability": "view",
      "type": "function"
    },
    {
      "inputs": [],
      "name": "decimals",
      "outputs": [
        {
          "internalType": "uint8",
          "name": "",
          "type": "uint8"
        }
      ],
      "stateMutability": "view",
      "type": "function"
    },
    {
      "inputs": [
        {
          "internalType": "address",
          "name": "to",
          "type": "address"
        },
        {
          "internalType": "uint256",
          "name": "amount",
          "type": "uint256"
        }
      ],
      "name": "mint",
      "outputs": [],
      "stateMutability": "nonpayable",
      "type": "function"
    },
    {
      "inputs": [],
      "name": "name",
      "outputs": [
        {
          "internalType": "string",
          "name": "",
          "type": "string"
        }
      ],
      "stateMutability": "view",
      "type": "function"
    },
    {
      "inputs": [],
      "name": "owner",
      "outputs": [
        {
          "internalType": "address",
          "name": "",
          "type": "address"
        }
      ],
      "stateMutability": "view",
      "type": "function"
    },
    {
      "inputs": [],
      "name": "renounceOwnership",
      "outputs": [],
      "stateMutability": "nonpayable",
      "type": "function"
    },
    {
      "inputs": [],
      "name": "symbol",
      "outputs": [
        {
          "internalType": "string",
          "name": "",
          "type": "string"
        }
      ],
      "stateMutability": "view",
      "type": "function"
    },
    {
      "inputs": [],
      "name": "totalSupply",
      "outputs": [
        {
          "internalType": "uint256",
          "name": "",
          "type": "uint256"
        }
      ],
      "stateMutability": "view",
      "type": "function"
    },
    {
      "inputs": [
        {
          "internalType": "address",
          "name": "to",
          "type": "address"
        },
        {
          "internalType": "uint256",
          "name": "value",
          "type": "uint256"
        }
      ],
      "name": "transfer",
      "outputs": [
        {
          "internalType": "bool",
          "name": "",
          "type": "bool"
        }
      ],
      "stateMutability": "nonpayable",
      "type": "function"
    },
    {
      "inputs": [
        {
          "internalType": "address",
          "name": "from",
          "type": "address"
        },
        {
          "internalType": "address",
          "name": "to",
          "type": "address"
        },
        {
          "internalType": "uint256",
          "name": "value",
          "type": "uint256"
        }
      ],
      "name": "transferFrom",
      "outputs": [
        {
          "internalType": "bool",
          "name": "",
          "type": "bool"
        }
      ],
      "stateMutability": "nonpayable",
      "type": "function"
    },
    {
      "inputs": [
        {
          "internalType": "address",
          "name": "newOwner",
          "type": "address"
        }
      ],
      "name": "transferOwnership",
      "outputs": [],
      "stateMutability": "nonpayable",
      "type": "function"
    }
  ],
  "bytecode": "0x60803462000419576040906001600160401b03818301818111838210176200031b57835260088252602090672aa9a21021b7b4b760c11b82840152835192848401848110838211176200031b57855260059182855264555344464360d81b8486015281518181116200031b576003908154906001948583811c931680156200040e575b88841014620003f8578190601f93848111620003a4575b5088908483116001146200033d5760009262000331575b505060001982851b1c191690851b1782555b86519283116200031b5760049687548581811c9116801562000310575b88821014620002fb57828111620002b2575b508691841160011462000247579383949184926000956200023b575b50501b92600019911b1c19161783555b33156200022457805460ff9190336001600160a01b0382167f8be0079c531659141344cd1fd0a4f28419497f9722a3daafe3b4186f6b6457e0600080a36001600160a81b0319163360a084811b199190911691909117600360a11b17918290551c16604d81116200020f57600a0a91620f42409280840293840403620001fa5760025490838201809211620001fa57506000917fddf252ad1be2c89b69c2b068fc378daa952ba7f163c4a11628f55a4df523b3ef9160025533835282815284832084815401905584519384523393a3516108e090816200041f8239f35b601190634e487b7160e01b6000525260246000fd5b601183634e487b7160e01b6000525260246000fd5b8351631e4fbdf760e01b8152600081850152602490fd5b0151935038806200010d565b9190601f198416928860005284886000209460005b8a898383106200029a57505050106200027f575b50505050811b0183556200011d565b01519060f884600019921b161c191690553880808062000270565b8686015189559097019694850194889350016200025c565b886000528760002083808701891c8201928a8810620002f1575b01881c019086905b828110620002e4575050620000f1565b60008155018690620002d4565b92508192620002cc565b602289634e487b7160e01b6000525260246000fd5b90607f1690620000df565b634e487b7160e01b600052604160045260246000fd5b015190503880620000b0565b90879350601f19831691866000528a6000209260005b8c8282106200038d575050841162000374575b505050811b018255620000c2565b015160001983871b60f8161c1916905538808062000366565b8385015186558b9790950194938401930162000353565b9091508460005288600020848085018a1c8201928b8610620003ee575b91899186959493018b1c01915b828110620003de57505062000099565b60008155859450899101620003ce565b92508192620003c1565b634e487b7160e01b600052602260045260246000fd5b92607f169262000082565b600080fdfe6080604081815260048036101561001557600080fd5b600092833560e01c90816306fdde031461063157508063095ea7b31461058857806318160ddd1461056957806323b872dd14610476578063313ce5671461045157806340c10f19146103a257806370a082311461036b578063715018a61461030b5780638da5cb5b146102e257806395d89b41146101c2578063a9059cbb14610191578063dd62ed3e146101445763f2fde38b146100b257600080fd5b34610140576020366003190112610140576100cb61076f565b906100d46107a0565b6001600160a01b0391821692831561012a575050600554826bffffffffffffffffffffffff60a01b821617600555167f8be0079c531659141344cd1fd0a4f28419497f9722a3daafe3b4186f6b6457e08380a380f35b51631e4fbdf760e01b8152908101849052602490fd5b8280fd5b50503461018d578060031936011261018d578060209261016261076f565b61016a61078a565b6001600160a01b0391821683526001865283832091168252845220549051908152f35b5080fd5b50503461018d578060031936011261018d576020906101bb6101b161076f565b60243590336107cc565b5160018152f35b5091903461018d578160031936011261018d57805190828454600181811c908083169283156102d8575b60209384841081146102c5578388529081156102a95750600114610254575b505050829003601f01601f191682019267ffffffffffffffff841183851017610241575082918261023d925282610726565b0390f35b634e487b7160e01b815260418552602490fd5b8787529192508591837f8a35acfbc15ff81a39ae7d344fd709f28e8600b4aa8c65c6b64bfe7fe36bd19b5b838510610295575050505083010138808061020b565b80548886018301529301928490820161027f565b60ff1916878501525050151560051b840101905038808061020b565b634e487b7160e01b895260228a52602489fd5b91607f16916101ec565b50503461018d578160031936011261018d5760055490516001600160a01b039091168152602090f35b83346103685780600319360112610368576103246107a0565b600580546001600160a01b0319811690915581906001600160a01b03167f8be0079c531659141344cd1fd0a4f28419497f9722a3daafe3b4186f6b6457e08280a380f35b80fd5b50503461018d57602036600319011261018d5760209181906001600160a01b0361039361076f565b16815280845220549051908152f35b5090346101405780600319360112610140576103bc61076f565b90602435916103c96107a0565b6001600160a01b031692831561043c5760025490838201809211610429575084927fddf252ad1be2c89b69c2b068fc378daa952ba7f163c4a11628f55a4df523b3ef9260209260025585855284835280852082815401905551908152a380f35b634e487b7160e01b865260119052602485fd5b84602492519163ec442f0560e01b8352820152fd5b50503461018d578160031936011261018d5760209060ff60055460a01c169051908152f35b5082346103685760603660031901126103685761049161076f565b61049961078a565b916044359360018060a01b0383168083526001602052868320338452602052868320549160001983106104d5575b6020886101bb8989896107cc565b86831061053d57811561052657331561050f575082526001602090815286832033845281529186902090859003905582906101bb876104c7565b8751634a1406b160e11b8152908101849052602490fd5b875163e602df0560e01b8152908101849052602490fd5b8751637dc7a0d960e11b8152339181019182526020820193909352604081018790528291506060010390fd5b50503461018d578160031936011261018d576020906002549051908152f35b50346101405781600319360112610140576105a161076f565b60243590331561061a576001600160a01b031691821561060357508083602095338152600187528181208582528752205582519081527f8c5be1e5ebec7d5bd14f71427d1e84f3dd0314c0f7b2291e5b200ac8c7c3b925843392a35160018152f35b8351634a1406b160e11b8152908101859052602490fd5b835163e602df0560e01b8152808401869052602490fd5b849150833461014057826003193601126101405782600354600181811c9080831692831561071c575b60209384841081146102c55783885290811561070057506001146106aa57505050829003601f01601f191682019267ffffffffffffffff841183851017610241575082918261023d925282610726565b600387529192508591837fc2575a0e9e593c00f959f8c92f12db2869c3395a3b0502d05e2516446f71f85b5b8385106106ec575050505083010185808061020b565b8054888601830152930192849082016106d6565b60ff1916878501525050151560051b840101905085808061020b565b91607f169161065a565b6020808252825181830181905290939260005b82811061075b57505060409293506000838284010152601f8019910116010190565b818101860151848201604001528501610739565b600435906001600160a01b038216820361078557565b600080fd5b602435906001600160a01b038216820361078557565b6005546001600160a01b031633036107b457565b60405163118cdaa760e01b8152336004820152602490fd5b916001600160a01b0380841692831561089157169283156108785760009083825281602052604082205490838210610846575091604082827fddf252ad1be2c89b69c2b068fc378daa952ba7f163c4a11628f55a4df523b3ef958760209652828652038282205586815220818154019055604051908152a3565b60405163391434e360e21b81526001600160a01b03919091166004820152602481019190915260448101839052606490fd5b60405163ec442f0560e01b815260006004820152602490fd5b604051634b637e8f60e11b815260006004820152602490fdfea2646970667358221220aa696a1834a7e9609dd4867610915e76aef587a8a9e21ef1603560182a2d61f764736f6c63430008140033",
  "linkReferences": {},
  "deployedLinkReferences": {}
}