{
  "_format": "hh-sol-artifact-1",
  "contractName": "Filethetic",
  "sourceName": "src/Filethetic.sol",
  "abi": [
    {
      "inputs": [
        {
          "internalType": "address",
          "name": "_usdcToken",
          "type": "address"
        },
        {
          "internalType": "address",
          "name": "_treasury",
          "type": "address"
        }
      ],
      "stateMutability": "nonpayable",
      "type": "constructor"
    },
    {
      "inputs": [],
      "name": "DatasetAlreadyLocked",
      "type": "error"
    },
    {
      "inputs": [],
      "name": "DatasetNotPublic",
      "type": "error"
    },
    {
      "inputs": [],
      "name": "IncorrectPaymentAmount",
      "type": "error"
    },
    {
      "inputs": [],
      "name": "NoAccessToDataset",
      "type": "error"
    },
    {
      "inputs": [],
      "name": "NotDatasetOwner",
      "type": "error"
    },
    {
      "inputs": [
        {
          "internalType": "address",
          "name": "owner",
          "type": "address"
        }
      ],
      "name": "OwnableInvalidOwner",
      "type": "error"
    },
    {
      "inputs": [
        {
          "internalType": "address",
          "name": "account",
          "type": "address"
        }
      ],
      "name": "OwnableUnauthorizedAccount",
      "type": "error"
    },
    {
      "anonymous": false,
      "inputs": [
        {
          "indexed": true,
          "internalType": "uint256",
          "name": "datasetId",
          "type": "uint256"
        },
        {
          "indexed": true,
          "internalType": "address",
          "name": "owner",
          "type": "address"
        },
        {
          "indexed": false,
          "internalType": "string",
          "name": "name",
          "type": "string"
        }
      ],
      "name": "DatasetCreated",
      "type": "event"
    },
    {
      "anonymous": false,
      "inputs": [
        {
          "indexed": true,
          "internalType": "uint256",
          "name": "datasetId",
          "type": "uint256"
        },
        {
          "indexed": false,
          "internalType": "uint256",
          "name": "version",
          "type": "uint256"
        },
        {
          "indexed": false,
          "internalType": "string",
          "name": "cid",
          "type": "string"
        }
      ],
      "name": "DatasetLocked",
      "type": "event"
    },
    {
      "anonymous": false,
      "inputs": [
        {
          "indexed": true,
          "internalType": "uint256",
          "name": "datasetId",
          "type": "uint256"
        },
        {
          "indexed": true,
          "internalType": "address",
          "name": "buyer",
          "type": "address"
        }
      ],
      "name": "DatasetPurchased",
      "type": "event"
    },
    {
      "anonymous": false,
      "inputs": [
        {
          "indexed": true,
          "internalType": "address",
          "name": "previousOwner",
          "type": "address"
        },
        {
          "indexed": true,
          "internalType": "address",
          "name": "newOwner",
          "type": "address"
        }
      ],
      "name": "OwnershipTransferred",
      "type": "event"
    },
    {
      "inputs": [
        {
          "internalType": "uint256",
          "name": "",
          "type": "uint256"
        },
        {
          "internalType": "address",
          "name": "",
          "type": "address"
        }
      ],
      "name": "allowlist",
      "outputs": [
        {
          "internalType": "bool",
          "name": "",
          "type": "bool"
        }
      ],
      "stateMutability": "view",
      "type": "function"
    },
    {
      "inputs": [
        {
          "internalType": "string",
          "name": "name",
          "type": "string"
        },
        {
          "internalType": "string",
          "name": "description",
          "type": "string"
        },
        {
          "internalType": "uint256",
          "name": "price",
          "type": "uint256"
        },
        {
          "internalType": "bool",
          "name": "isPublic",
          "type": "bool"
        },
        {
          "internalType": "string",
          "name": "modelName",
          "type": "string"
        },
        {
          "internalType": "uint256",
          "name": "taskId",
          "type": "uint256"
        },
        {
          "internalType": "uint256",
          "name": "nodeId",
          "type": "uint256"
        },
        {
          "internalType": "uint256",
          "name": "computeUnitsPrice",
          "type": "uint256"
        },
        {
          "internalType": "uint256",
          "name": "maxComputeUnits",
          "type": "uint256"
        }
      ],
      "name": "createDataset",
      "outputs": [
        {
          "internalType": "uint256",
          "name": "",
          "type": "uint256"
        }
      ],
      "stateMutability": "nonpayable",
      "type": "function"
    },
    {
      "inputs": [
        {
          "internalType": "uint256",
          "name": "",
          "type": "uint256"
        }
      ],
      "name": "datasets",
      "outputs": [
        {
          "internalType": "uint256",
          "name": "id",
          "type": "uint256"
        },
        {
          "internalType": "uint256",
          "name": "version",
          "type": "uint256"
        },
        {
          "internalType": "address",
          "name": "owner",
          "type": "address"
        },
        {
          "internalType": "string",
          "name": "name",
          "type": "string"
        },
        {
          "internalType": "string",
          "name": "description",
          "type": "string"
        },
        {
          "internalType": "uint256",
          "name": "price",
          "type": "uint256"
        },
        {
          "internalType": "bool",
          "name": "isPublic",
          "type": "bool"
        },
        {
          "internalType": "string",
          "name": "cid",
          "type": "string"
        },
        {
          "internalType": "uint256",
          "name": "numRows",
          "type": "uint256"
        },
        {
          "internalType": "uint256",
          "name": "numTokens",
          "type": "uint256"
        },
        {
          "internalType": "string",
          "name": "modelName",
          "type": "string"
        },
        {
          "internalType": "uint256",
          "name": "taskId",
          "type": "uint256"
        },
        {
          "internalType": "uint256",
          "name": "nodeId",
          "type": "uint256"
        },
        {
          "internalType": "uint256",
          "name": "computeUnitsPrice",
          "type": "uint256"
        },
        {
          "internalType": "uint256",
          "name": "maxComputeUnits",
          "type": "uint256"
        },
        {
          "internalType": "uint256",
          "name": "numDownloads",
          "type": "uint256"
        }
      ],
      "stateMutability": "view",
      "type": "function"
    },
    {
      "inputs": [
        {
          "internalType": "uint256",
          "name": "datasetId",
          "type": "uint256"
        }
      ],
      "name": "getDataset",
      "outputs": [
        {
          "components": [
            {
              "internalType": "uint256",
              "name": "id",
              "type": "uint256"
            },
            {
              "internalType": "uint256",
              "name": "version",
              "type": "uint256"
            },
            {
              "internalType": "address",
              "name": "owner",
              "type": "address"
            },
            {
              "internalType": "string",
              "name": "name",
              "type": "string"
            },
            {
              "internalType": "string",
              "name": "description",
              "type": "string"
            },
            {
              "internalType": "uint256",
              "name": "price",
              "type": "uint256"
            },
            {
              "internalType": "bool",
              "name": "isPublic",
              "type": "bool"
            },
            {
              "internalType": "string",
              "name": "cid",
              "type": "string"
            },
            {
              "internalType": "uint256",
              "name": "numRows",
              "type": "uint256"
            },
            {
              "internalType": "uint256",
              "name": "numTokens",
              "type": "uint256"
            },
            {
              "internalType": "string",
              "name": "modelName",
              "type": "string"
            },
            {
              "internalType": "uint256",
              "name": "taskId",
              "type": "uint256"
            },
            {
              "internalType": "uint256",
              "name": "nodeId",
              "type": "uint256"
            },
            {
              "internalType": "uint256",
              "name": "computeUnitsPrice",
              "type": "uint256"
            },
            {
              "internalType": "uint256",
              "name": "maxComputeUnits",
              "type": "uint256"
            },
            {
              "internalType": "uint256",
              "name": "numDownloads",
              "type": "uint256"
            }
          ],
          "internalType": "struct Filethetic.Dataset",
          "name": "",
          "type": "tuple"
        }
      ],
      "stateMutability": "view",
      "type": "function"
    },
    {
      "inputs": [],
      "name": "getDatasetCount",
      "outputs": [
        {
          "internalType": "uint256",
          "name": "",
          "type": "uint256"
        }
      ],
      "stateMutability": "view",
      "type": "function"
    },
    {
      "inputs": [
        {
          "internalType": "uint256",
          "name": "datasetId",
          "type": "uint256"
        },
        {
          "internalType": "address",
          "name": "user",
          "type": "address"
        }
      ],
      "name": "hasAccess",
      "outputs": [
        {
          "internalType": "bool",
          "name": "",
          "type": "bool"
        }
      ],
      "stateMutability": "view",
      "type": "function"
    },
    {
      "inputs": [
        {
          "internalType": "uint256",
          "name": "datasetId",
          "type": "uint256"
        },
        {
          "internalType": "string",
          "name": "cid",
          "type": "string"
        },
        {
          "internalType": "uint256",
          "name": "numRows",
          "type": "uint256"
        },
        {
          "internalType": "uint256",
          "name": "numTokens",
          "type": "uint256"
        }
      ],
      "name": "lockDataset",
      "outputs": [],
      "stateMutability": "nonpayable",
      "type": "function"
    },
    {
      "inputs": [],
      "name": "owner",
      "outputs": [
        {
          "internalType": "address",
          "name": "",
          "type": "address"
        }
      ],
      "stateMutability": "view",
      "type": "function"
    },
    {
      "inputs": [],
      "name": "protocolFeePercentage",
      "outputs": [
        {
          "internalType": "uint256",
          "name": "",
          "type": "uint256"
        }
      ],
      "stateMutability": "view",
      "type": "function"
    },
    {
      "inputs": [
        {
          "internalType": "uint256",
          "name": "datasetId",
          "type": "uint256"
        }
      ],
      "name": "purchaseDataset",
      "outputs": [],
      "stateMutability": "nonpayable",
      "type": "function"
    },
    {
      "inputs": [],
      "name": "renounceOwnership",
      "outputs": [],
      "stateMutability": "nonpayable",
      "type": "function"
    },
    {
      "inputs": [
        {
          "internalType": "uint256",
          "name": "newFeePercentage",
          "type": "uint256"
        }
      ],
      "name": "setProtocolFeePercentage",
      "outputs": [],
      "stateMutability": "nonpayable",
      "type": "function"
    },
    {
      "inputs": [
        {
          "internalType": "address",
          "name": "newTreasury",
          "type": "address"
        }
      ],
      "name": "setTreasury",
      "outputs": [],
      "stateMutability": "nonpayable",
      "type": "function"
    },
    {
      "inputs": [
        {
          "internalType": "address",
          "name": "newOwner",
          "type": "address"
        }
      ],
      "name": "transferOwnership",
      "outputs": [],
      "stateMutability": "nonpayable",
      "type": "function"
    },
    {
      "inputs": [],
      "name": "treasury",
      "outputs": [
        {
          "internalType": "address",
          "name": "",
          "type": "address"
        }
      ],
      "stateMutability": "view",
      "type": "function"
    },
    {
      "inputs": [
        {
          "internalType": "uint256",
          "name": "datasetId",
          "type": "uint256"
        },
        {
          "internalType": "string",
          "name": "name",
          "type": "string"
        },
        {
          "internalType": "string",
          "name": "description",
          "type": "string"
        },
        {
          "internalType": "uint256",
          "name": "price",
          "type": "uint256"
        }
      ],
      "name": "updateDataset",
      "outputs": [],
      "stateMutability": "nonpayable",
      "type": "function"
    },
    {
      "inputs": [],
      "name": "usdcToken",
      "outputs": [
        {
          "internalType": "contract IERC20",
          "name": "",
          "type": "address"
        }
      ],
      "stateMutability": "view",
      "type": "function"
    }
  ],
  "bytecode": "0x6080346100e757601f6117c838819003918201601f19168301916001600160401b038311848410176100ec5780849260409485528339810103126100e757610052602061004b83610102565b9201610102565b33156100ce5760008054336001600160a01b0319808316821784556040519590946001600160a01b03949093859391908416907f8be0079c531659141344cd1fd0a4f28419497f9722a3daafe3b4186f6b6457e09080a360fa60035516836001541617600155169060025416176002556116b190816101178239f35b604051631e4fbdf760e01b815260006004820152602490fd5b600080fd5b634e487b7160e01b600052604160045260246000fd5b51906001600160a01b03821682036100e75756fe60a080604052600436101561001357600080fd5b60003560e01c90816311eac85514611393575080631cff85e1146112305780631d2ade8d146110805780632f5201bd1461106257806349ee56f914610e0a57806349fe92cb146107f257806361d027b3146107c9578063715018a61461077057806387910cef146107235780638da5cb5b146106fa5780638e50e509146106dc578063ced141981461066b578063d8a5e9361461064a578063d9c631261461041e578063ee004221146101b0578063f0f442601461016d5763f2fde38b146100da57600080fd5b34610168576020366003190112610168576100f3611557565b6100fb61156d565b6001600160a01b0390811690811561014f57600054826bffffffffffffffffffffffff60a01b821617600055167f8be0079c531659141344cd1fd0a4f28419497f9722a3daafe3b4186f6b6457e0600080a3005b604051631e4fbdf760e01b815260006004820152602490fd5b600080fd5b3461016857602036600319011261016857610186611557565b61018e61156d565b600280546001600160a01b0319166001600160a01b0392909216919091179055005b346101685760203660031901126101685760006101e06040516101d2816113f1565b828152826020820152826040820152606080820152606060808201528260a08201528260c0820152606060e0820152826101008201528261012082015260606101408201528261016082015282610180820152826101a0820152826101c0820152015260043560005260046020526040600020600f60405191610254836113f1565b805483526001810154602084015260028101546001600160a01b031660408401526102816003820161142e565b60608401526102926004820161142e565b6080840152600581015460a084015260ff600682015416151560c08401526102bc6007820161142e565b60e0840152600881015461010084015260098101546101208401526102e3600a820161142e565b610140840152600b810154610160840152600c810154610180840152600d8101546101a0840152600e8101546101c084015201546101e0820152604051809160208252805160208301526020810151604083015260018060a01b0360408201511660608301526101e06103e361036a606084015161020060808701526102208601906114d4565b6103b4610389608086015192601f1993848983030160a08a01526114d4565b60a086015160c088015260c0860151151560e088015260e086015183888303016101008901526114d4565b9061010085015161012087015261012085015161014087015261014085015190868303016101608701526114d4565b916101608101516101808501526101808101516101a08501526101a08101516101c08501526101c08101518285015201516102008301520390f35b34610168576080366003190112610168576001600160401b036024358181116101685761044f903690600401611514565b909160443581811161016857610469903690600401611514565b906004356000526020946004865260406000209460018060a01b0360028701541633036106385760038601918582116105ad5781906104b2826104ac86546113b7565b866115ee565b600090601f83116001146105ce576000926105c3575b50508160011b916000199060031b1c19161790555b600484019282116105ad576104fc826104f685546113b7565b856115ee565b600094601f83116001146105455750938192939460009261053a575b50508160011b916000199060031b1c19161790555b6005606435910155600080f35b013590508480610518565b90601f198316958460005282600020926000905b8882106105955750508360019596971061057b575b505050811b01905561052d565b0135600019600384901b60f8161c1916905584808061056e565b80600184968294958701358155019501920190610559565b634e487b7160e01b600052604160045260246000fd5b0135905088806104c8565b909150601f1983169184600052896000209260005b8b828210610622575050908460019594939210610608575b505050811b0190556104dd565b0135600019600384901b60f8161c191690558880806105fb565b60018496829395870135815501950192016105e3565b6040516372e22e7f60e11b8152600490fd5b346101685760203660031901126101685761066361156d565b600435600355005b3461016857604036600319011261016857610684611541565b600435600052600460205260018060a01b038060026040600020015416911680911480156106ba575b6020906040519015158152f35b506005602052604060002090600052602052602060ff604060002054166106ad565b34610168576000366003190112610168576020600354604051908152f35b34610168576000366003190112610168576000546040516001600160a01b039091168152602090f35b346101685760403660031901126101685761073c611541565b600435600052600560205260406000209060018060a01b0316600052602052602060ff604060002054166040519015158152f35b346101685760003660031901126101685761078961156d565b600080546001600160a01b0319811682556001600160a01b03167f8be0079c531659141344cd1fd0a4f28419497f9722a3daafe3b4186f6b6457e08280a3005b34610168576000366003190112610168576002546040516001600160a01b039091168152602090f35b3461016857610120366003190112610168576004356001600160401b03811161016857610823903690600401611514565b906024356001600160401b03811161016857610843903690600401611514565b9290916064358015158103610168576084356001600160401b03811161016857610871903690600401611514565b916108b96006549661088288611599565b600655604051986108928a6113f1565b888a52600060208b01523360408b01526108ad3689896115a8565b60608b015236916115a8565b608088015260443560a0880152151560c0870152604051918260208101106001600160401b036020850111176105ad5782602061091494016040526000815260e08801526000610100880152600061012088015236916115a8565b61014085015260a43561016085015260c43561018085015260e4356101a0850152610104356101c085015260006101e085015282600052600460205260406000209084518255602085015160018301556002820160018060a01b036040870151166bffffffffffffffffffffffff60a01b82541617905560608501518051906001600160401b0382116105ad5781906109bd826109b460038801546113b7565b600388016115ee565b602090601f8311600114610d9857600092610d8d575b50508160011b916000199060031b1c19161760038301555b60808501518051906001600160401b0382116105ad578190610a1d82610a1460048801546113b7565b600488016115ee565b602090601f8311600114610d1b57600092610d10575b50508160011b916000199060031b1c19161760048301555b60a0850151600583015560c0850151151560ff8019600685015416911617600683015560e08501518051906001600160401b0382116105ad578190610aa082610a9760078801546113b7565b600788016115ee565b602090601f8311600114610c9e57600092610c93575b50508160011b916000199060031b1c19161760078301555b61010085015160088301556101208501516009830155610140850151918251956001600160401b0387116105ad57868694610b1b602099610b12600a8701546113b7565b600a87016115ee565b8890601f8311600114610bf6577febdcbce6c96378b8d55af14fb1700acccb6779494c3a3313c8cf29cb8fc706fc959383610be09694600f946101e094600092610beb575b50508160011b916000199060031b1c191617600a8501555b610160810151600b850155610180810151600c8501556101a0810151600d8501556101c0810151600e8501550151910155836000526005875260406000203360005287526040600020600160ff19825416179055604051918291888352339689840191611642565b0390a3604051908152f35b015190508d80610b60565b90600a8501600052896000209160005b601f1985168110610c79575093600184600f946101e0947febdcbce6c96378b8d55af14fb1700acccb6779494c3a3313c8cf29cb8fc706fc9a98610be09a98601f19811610610c60575b505050811b01600a850155610b78565b015160001960f88460031b161c191690558d8080610c50565b8183015184558a9850600190930192918b01918b01610c06565b015190508780610ab6565b9250600785016000526020600020906000935b601f1984168510610cf5576001945083601f19811610610cdc575b505050811b016007830155610ace565b015160001960f88460031b161c19169055878080610ccc565b81810151835560209485019460019093019290910190610cb1565b015190508780610a33565b9250600485016000526020600020906000935b601f1984168510610d72576001945083601f19811610610d59575b505050811b016004830155610a4b565b015160001960f88460031b161c19169055878080610d49565b81810151835560209485019460019093019290910190610d2e565b0151905087806109d3565b9250600385016000526020600020906000935b601f1984168510610def576001945083601f19811610610dd6575b505050811b0160038301556109eb565b015160001960f88460031b161c19169055878080610dc6565b81810151835560209485019460019093019290910190610dab565b346101685760208060031936011261016857600435908160005260048152604060002060ff60068201541615611050576001546005820180546040516323b872dd60e01b815233600482015230602482015260448101919091526001600160a01b0394928390829060649082906000908a165af1908115610fe257600091611033575b5015611021575460035480820290828204148215171561100b5761271090049081810390811161100b5760015460025460405163a9059cbb60e01b8082529188166001600160a01b031660048201526024810194909452929590849087908316816000816044810103925af1928315610fe257610f48968594610fee575b5060015460028701546040519283526001600160a01b03908416166004830152602482019390935295869290911690829060009082906044820190565b03925af1928315610fe257600f93610fb5575b50836000526005815260406000209033600052526040600020600160ff1982541617905501610f8a8154611599565b905533907f7df22c96b281580cd377eae9f79b72ddd9b187b24c4e08864ee83899c2b1d5a6600080a3005b610fd490823d8411610fdb575b610fcc818361140d565b810190611663565b5084610f5b565b503d610fc2565b6040513d6000823e3d90fd5b61100490853d8711610fdb57610fcc818361140d565b5088610f0b565b634e487b7160e01b600052601160045260246000fd5b604051636992e1ff60e01b8152600490fd5b61104a9150833d8511610fdb57610fcc818361140d565b86610e8d565b604051632293bb1f60e21b8152600490fd5b34610168576000366003190112610168576020600654604051908152f35b34610168576080366003190112610168576001600160401b03600435602435828111610168576110b4903690600401611514565b9092826000526020916004835260406000209160018060a01b0360028401541633036106385760019283810191825461121e57600782019084116105ad576111068461110083546113b7565b836115ee565b6000601f8511600114611192579284928692611182967fe6ec111eaebbb363de7be95e0f045e2155a53226c0c467b5b54fd5fdc29975979a9b96600091611187575b50600019600387901b1c191685851b1790555b60443560088201556009606435910155556040805195869586528501526040840191611642565b0390a2005b90508601358c611148565b601f1985169082600052876000209160005b8181106112095750927fe6ec111eaebbb363de7be95e0f045e2155a53226c0c467b5b54fd5fdc2997597999a9592879592611182988a96106111ef575b50508385811b01905561115b565b870135600019600388901b60f8161c191690558b806111e1565b8b8301358455928801929189019189016111a4565b604051631bce28eb60e11b8152600490fd5b3461016857602036600319011261016857600480356000908152602091909152604090208054600182015460028301546001600160a01b031692906112776003830161142e565b936112846004840161142e565b6005840154600685015460ff1661129d6007870161142e565b600887015492600988015492600a89016112b69061142e565b95600b8a01549b600c8b015498600d8c01549a600e8d01549c600f01549d60405180608052526080516020015260805160400152610200806080516060015260805101611302916114d4565b6080518082039060800152611316916114d4565b9160805160a00152151560805160c001526080518082039060e0015261133b916114d4565b9160805161010001526080516101200152608051808203906101400152611361916114d4565b94608051610160015260805161018001526080516101a001526080516101c001526080516101e0015260805180910390f35b34610168576000366003190112610168576001546001600160a01b03168152602090f35b90600182811c921680156113e7575b60208310146113d157565b634e487b7160e01b600052602260045260246000fd5b91607f16916113c6565b61020081019081106001600160401b038211176105ad57604052565b90601f801991011681019081106001600160401b038211176105ad57604052565b9060405191826000825492611442846113b7565b9081845260019485811690816000146114b1575060011461146e575b505061146c9250038361140d565b565b9093915060005260209081600020936000915b81831061149957505061146c9350820101388061145e565b85548884018501529485019487945091830191611481565b91505061146c94506020925060ff191682840152151560051b820101388061145e565b919082519283825260005b848110611500575050826000602080949584010152601f8019910116010190565b6020818301810151848301820152016114df565b9181601f84011215610168578235916001600160401b038311610168576020838186019501011161016857565b602435906001600160a01b038216820361016857565b600435906001600160a01b038216820361016857565b6000546001600160a01b0316330361158157565b60405163118cdaa760e01b8152336004820152602490fd5b600019811461100b5760010190565b9291926001600160401b0382116105ad57604051916115d1601f8201601f19166020018461140d565b829481845281830111610168578281602093846000960137010152565b90601f81116115fc57505050565b600091825260208220906020601f850160051c83019410611638575b601f0160051c01915b82811061162d57505050565b818155600101611621565b9092508290611618565b908060209392818452848401376000828201840152601f01601f1916010190565b9081602091031261016857518015158103610168579056fea26469706673582212206a1a274cc3ba6077fa2ab05a5610f72020a9019c2390cda9589d88b42eabc56164736f6c63430008140033",
  "linkReferences": {},
  "deployedLinkReferences": {}
}