{"src/Filethetic.sol":{"Filethetic":{"abi":[{"inputs":[{"internalType":"address","name":"_usdcToken","type":"address"},{"internalType":"address","name":"_treasury","type":"address"}],"stateMutability":"nonpayable","type":"constructor"},{"inputs":[],"name":"DatasetAlreadyLocked","type":"error"},{"inputs":[],"name":"DatasetNotPublic","type":"error"},{"inputs":[],"name":"IncorrectPaymentAmount","type":"error"},{"inputs":[],"name":"NoAccessToDataset","type":"error"},{"inputs":[],"name":"NotDatasetOwner","type":"error"},{"inputs":[{"internalType":"address","name":"owner","type":"address"}],"name":"OwnableInvalidOwner","type":"error"},{"inputs":[{"internalType":"address","name":"account","type":"address"}],"name":"OwnableUnauthorizedAccount","type":"error"},{"anonymous":false,"inputs":[{"indexed":true,"internalType":"uint256","name":"datasetId","type":"uint256"},{"indexed":true,"internalType":"address","name":"owner","type":"address"},{"indexed":false,"internalType":"string","name":"name","type":"string"}],"name":"DatasetCreated","type":"event"},{"anonymous":false,"inputs":[{"indexed":true,"internalType":"uint256","name":"datasetId","type":"uint256"},{"indexed":false,"internalType":"uint256","name":"version","type":"uint256"},{"indexed":false,"internalType":"string","name":"cid","type":"string"}],"name":"DatasetLocked","type":"event"},{"anonymous":false,"inputs":[{"indexed":true,"internalType":"uint256","name":"datasetId","type":"uint256"},{"indexed":true,"internalType":"address","name":"buyer","type":"address"}],"name":"DatasetPurchased","type":"event"},{"anonymous":false,"inputs":[{"indexed":true,"internalType":"address","name":"previousOwner","type":"address"},{"indexed":true,"internalType":"address","name":"newOwner","type":"address"}],"name":"OwnershipTransferred","type":"event"},{"inputs":[{"internalType":"uint256","name":"","type":"uint256"},{"internalType":"address","name":"","type":"address"}],"name":"allowlist","outputs":[{"internalType":"bool","name":"","type":"bool"}],"stateMutability":"view","type":"function"},{"inputs":[{"internalType":"string","name":"name","type":"string"},{"internalType":"string","name":"description","type":"string"},{"internalType":"uint256","name":"price","type":"uint256"},{"internalType":"bool","name":"isPublic","type":"bool"},{"internalType":"string","name":"modelName","type":"string"},{"internalType":"uint256","name":"taskId","type":"uint256"},{"internalType":"uint256","name":"nodeId","type":"uint256"},{"internalType":"uint256","name":"computeUnitsPrice","type":"uint256"},{"internalType":"uint256","name":"maxComputeUnits","type":"uint256"}],"name":"createDataset","outputs":[{"internalType":"uint256","name":"","type":"uint256"}],"stateMutability":"nonpayable","type":"function"},{"inputs":[{"internalType":"uint256","name":"","type":"uint256"}],"name":"datasets","outputs":[{"internalType":"uint256","name":"id","type":"uint256"},{"internalType":"uint256","name":"version","type":"uint256"},{"internalType":"address","name":"owner","type":"address"},{"internalType":"string","name":"name","type":"string"},{"internalType":"string","name":"description","type":"string"},{"internalType":"uint256","name":"price","type":"uint256"},{"internalType":"bool","name":"isPublic","type":"bool"},{"internalType":"string","name":"cid","type":"string"},{"internalType":"uint256","name":"numRows","type":"uint256"},{"internalType":"uint256","name":"numTokens","type":"uint256"},{"internalType":"string","name":"modelName","type":"string"},{"internalType":"uint256","name":"taskId","type":"uint256"},{"internalType":"uint256","name":"nodeId","type":"uint256"},{"internalType":"uint256","name":"computeUnitsPrice","type":"uint256"},{"internalType":"uint256","name":"maxComputeUnits","type":"uint256"},{"internalType":"uint256","name":"numDownloads","type":"uint256"}],"stateMutability":"view","type":"function"},{"inputs":[{"internalType":"uint256","name":"datasetId","type":"uint256"}],"name":"getDataset","outputs":[{"components":[{"internalType":"uint256","name":"id","type":"uint256"},{"internalType":"uint256","name":"version","type":"uint256"},{"internalType":"address","name":"owner","type":"address"},{"internalType":"string","name":"name","type":"string"},{"internalType":"string","name":"description","type":"string"},{"internalType":"uint256","name":"price","type":"uint256"},{"internalType":"bool","name":"isPublic","type":"bool"},{"internalType":"string","name":"cid","type":"string"},{"internalType":"uint256","name":"numRows","type":"uint256"},{"internalType":"uint256","name":"numTokens","type":"uint256"},{"internalType":"string","name":"modelName","type":"string"},{"internalType":"uint256","name":"taskId","type":"uint256"},{"internalType":"uint256","name":"nodeId","type":"uint256"},{"internalType":"uint256","name":"computeUnitsPrice","type":"uint256"},{"internalType":"uint256","name":"maxComputeUnits","type":"uint256"},{"internalType":"uint256","name":"numDownloads","type":"uint256"}],"internalType":"struct Filethetic.Dataset","name":"","type":"tuple"}],"stateMutability":"view","type":"function"},{"inputs":[],"name":"getDatasetCount","outputs":[{"internalType":"uint256","name":"","type":"uint256"}],"stateMutability":"view","type":"function"},{"inputs":[{"internalType":"uint256","name":"datasetId","type":"uint256"},{"internalType":"address","name":"user","type":"address"}],"name":"hasAccess","outputs":[{"internalType":"bool","name":"","type":"bool"}],"stateMutability":"view","type":"function"},{"inputs":[{"internalType":"uint256","name":"datasetId","type":"uint256"},{"internalType":"string","name":"cid","type":"string"},{"internalType":"uint256","name":"numRows","type":"uint256"},{"internalType":"uint256","name":"numTokens","type":"uint256"}],"name":"lockDataset","outputs":[],"stateMutability":"nonpayable","type":"function"},{"inputs":[],"name":"owner","outputs":[{"internalType":"address","name":"","type":"address"}],"stateMutability":"view","type":"function"},{"inputs":[],"name":"protocolFeePercentage","outputs":[{"internalType":"uint256","name":"","type":"uint256"}],"stateMutability":"view","type":"function"},{"inputs":[{"internalType":"uint256","name":"datasetId","type":"uint256"}],"name":"purchaseDataset","outputs":[],"stateMutability":"nonpayable","type":"function"},{"inputs":[],"name":"renounceOwnership","outputs":[],"stateMutability":"nonpayable","type":"function"},{"inputs":[{"internalType":"uint256","name":"newFeePercentage","type":"uint256"}],"name":"setProtocolFeePercentage","outputs":[],"stateMutability":"nonpayable","type":"function"},{"inputs":[{"internalType":"address","name":"newTreasury","type":"address"}],"name":"setTreasury","outputs":[],"stateMutability":"nonpayable","type":"function"},{"inputs":[{"internalType":"address","name":"newOwner","type":"address"}],"name":"transferOwnership","outputs":[],"stateMutability":"nonpayable","type":"function"},{"inputs":[],"name":"treasury","outputs":[{"internalType":"address","name":"","type":"address"}],"stateMutability":"view","type":"function"},{"inputs":[{"internalType":"uint256","name":"datasetId","type":"uint256"},{"internalType":"string","name":"name","type":"string"},{"internalType":"string","name":"description","type":"string"},{"internalType":"uint256","name":"price","type":"uint256"}],"name":"updateDataset","outputs":[],"stateMutability":"nonpayable","type":"function"},{"inputs":[],"name":"usdcToken","outputs":[{"internalType":"contract IERC20","name":"","type":"address"}],"stateMutability":"view","type":"function"}],"evm":{"bytecode":{"linkReferences":{},"object":"6080346100e757601f6117c838819003918201601f19168301916001600160401b038311848410176100ec5780849260409485528339810103126100e757610052602061004b83610102565b9201610102565b33156100ce5760008054336001600160a01b0319808316821784556040519590946001600160a01b03949093859391908416907f8be0079c531659141344cd1fd0a4f28419497f9722a3daafe3b4186f6b6457e09080a360fa60035516836001541617600155169060025416176002556116b190816101178239f35b604051631e4fbdf760e01b815260006004820152602490fd5b600080fd5b634e487b7160e01b600052604160045260246000fd5b51906001600160a01b03821682036100e75756fe60a080604052600436101561001357600080fd5b60003560e01c90816311eac85514611393575080631cff85e1146112305780631d2ade8d146110805780632f5201bd1461106257806349ee56f914610e0a57806349fe92cb146107f257806361d027b3146107c9578063715018a61461077057806387910cef146107235780638da5cb5b146106fa5780638e50e509146106dc578063ced141981461066b578063d8a5e9361461064a578063d9c631261461041e578063ee004221146101b0578063f0f442601461016d5763f2fde38b146100da57600080fd5b34610168576020366003190112610168576100f3611557565b6100fb61156d565b6001600160a01b0390811690811561014f57600054826bffffffffffffffffffffffff60a01b821617600055167f8be0079c531659141344cd1fd0a4f28419497f9722a3daafe3b4186f6b6457e0600080a3005b604051631e4fbdf760e01b815260006004820152602490fd5b600080fd5b3461016857602036600319011261016857610186611557565b61018e61156d565b600280546001600160a01b0319166001600160a01b0392909216919091179055005b346101685760203660031901126101685760006101e06040516101d2816113f1565b828152826020820152826040820152606080820152606060808201528260a08201528260c0820152606060e0820152826101008201528261012082015260606101408201528261016082015282610180820152826101a0820152826101c0820152015260043560005260046020526040600020600f60405191610254836113f1565b805483526001810154602084015260028101546001600160a01b031660408401526102816003820161142e565b60608401526102926004820161142e565b6080840152600581015460a084015260ff600682015416151560c08401526102bc6007820161142e565b60e0840152600881015461010084015260098101546101208401526102e3600a820161142e565b610140840152600b810154610160840152600c810154610180840152600d8101546101a0840152600e8101546101c084015201546101e0820152604051809160208252805160208301526020810151604083015260018060a01b0360408201511660608301526101e06103e361036a606084015161020060808701526102208601906114d4565b6103b4610389608086015192601f1993848983030160a08a01526114d4565b60a086015160c088015260c0860151151560e088015260e086015183888303016101008901526114d4565b9061010085015161012087015261012085015161014087015261014085015190868303016101608701526114d4565b916101608101516101808501526101808101516101a08501526101a08101516101c08501526101c08101518285015201516102008301520390f35b34610168576080366003190112610168576001600160401b036024358181116101685761044f903690600401611514565b909160443581811161016857610469903690600401611514565b906004356000526020946004865260406000209460018060a01b0360028701541633036106385760038601918582116105ad5781906104b2826104ac86546113b7565b866115ee565b600090601f83116001146105ce576000926105c3575b50508160011b916000199060031b1c19161790555b600484019282116105ad576104fc826104f685546113b7565b856115ee565b600094601f83116001146105455750938192939460009261053a575b50508160011b916000199060031b1c19161790555b6005606435910155600080f35b013590508480610518565b90601f198316958460005282600020926000905b8882106105955750508360019596971061057b575b505050811b01905561052d565b0135600019600384901b60f8161c1916905584808061056e565b80600184968294958701358155019501920190610559565b634e487b7160e01b600052604160045260246000fd5b0135905088806104c8565b909150601f1983169184600052896000209260005b8b828210610622575050908460019594939210610608575b505050811b0190556104dd565b0135600019600384901b60f8161c191690558880806105fb565b60018496829395870135815501950192016105e3565b6040516372e22e7f60e11b8152600490fd5b346101685760203660031901126101685761066361156d565b600435600355005b3461016857604036600319011261016857610684611541565b600435600052600460205260018060a01b038060026040600020015416911680911480156106ba575b6020906040519015158152f35b506005602052604060002090600052602052602060ff604060002054166106ad565b34610168576000366003190112610168576020600354604051908152f35b34610168576000366003190112610168576000546040516001600160a01b039091168152602090f35b346101685760403660031901126101685761073c611541565b600435600052600560205260406000209060018060a01b0316600052602052602060ff604060002054166040519015158152f35b346101685760003660031901126101685761078961156d565b600080546001600160a01b0319811682556001600160a01b03167f8be0079c531659141344cd1fd0a4f28419497f9722a3daafe3b4186f6b6457e08280a3005b34610168576000366003190112610168576002546040516001600160a01b039091168152602090f35b3461016857610120366003190112610168576004356001600160401b03811161016857610823903690600401611514565b906024356001600160401b03811161016857610843903690600401611514565b9290916064358015158103610168576084356001600160401b03811161016857610871903690600401611514565b916108b96006549661088288611599565b600655604051986108928a6113f1565b888a52600060208b01523360408b01526108ad3689896115a8565b60608b015236916115a8565b608088015260443560a0880152151560c0870152604051918260208101106001600160401b036020850111176105ad5782602061091494016040526000815260e08801526000610100880152600061012088015236916115a8565b61014085015260a43561016085015260c43561018085015260e4356101a0850152610104356101c085015260006101e085015282600052600460205260406000209084518255602085015160018301556002820160018060a01b036040870151166bffffffffffffffffffffffff60a01b82541617905560608501518051906001600160401b0382116105ad5781906109bd826109b460038801546113b7565b600388016115ee565b602090601f8311600114610d9857600092610d8d575b50508160011b916000199060031b1c19161760038301555b60808501518051906001600160401b0382116105ad578190610a1d82610a1460048801546113b7565b600488016115ee565b602090601f8311600114610d1b57600092610d10575b50508160011b916000199060031b1c19161760048301555b60a0850151600583015560c0850151151560ff8019600685015416911617600683015560e08501518051906001600160401b0382116105ad578190610aa082610a9760078801546113b7565b600788016115ee565b602090601f8311600114610c9e57600092610c93575b50508160011b916000199060031b1c19161760078301555b61010085015160088301556101208501516009830155610140850151918251956001600160401b0387116105ad57868694610b1b602099610b12600a8701546113b7565b600a87016115ee565b8890601f8311600114610bf6577febdcbce6c96378b8d55af14fb1700acccb6779494c3a3313c8cf29cb8fc706fc959383610be09694600f946101e094600092610beb575b50508160011b916000199060031b1c191617600a8501555b610160810151600b850155610180810151600c8501556101a0810151600d8501556101c0810151600e8501550151910155836000526005875260406000203360005287526040600020600160ff19825416179055604051918291888352339689840191611642565b0390a3604051908152f35b015190508d80610b60565b90600a8501600052896000209160005b601f1985168110610c79575093600184600f946101e0947febdcbce6c96378b8d55af14fb1700acccb6779494c3a3313c8cf29cb8fc706fc9a98610be09a98601f19811610610c60575b505050811b01600a850155610b78565b015160001960f88460031b161c191690558d8080610c50565b8183015184558a9850600190930192918b01918b01610c06565b015190508780610ab6565b9250600785016000526020600020906000935b601f1984168510610cf5576001945083601f19811610610cdc575b505050811b016007830155610ace565b015160001960f88460031b161c19169055878080610ccc565b81810151835560209485019460019093019290910190610cb1565b015190508780610a33565b9250600485016000526020600020906000935b601f1984168510610d72576001945083601f19811610610d59575b505050811b016004830155610a4b565b015160001960f88460031b161c19169055878080610d49565b81810151835560209485019460019093019290910190610d2e565b0151905087806109d3565b9250600385016000526020600020906000935b601f1984168510610def576001945083601f19811610610dd6575b505050811b0160038301556109eb565b015160001960f88460031b161c19169055878080610dc6565b81810151835560209485019460019093019290910190610dab565b346101685760208060031936011261016857600435908160005260048152604060002060ff60068201541615611050576001546005820180546040516323b872dd60e01b815233600482015230602482015260448101919091526001600160a01b0394928390829060649082906000908a165af1908115610fe257600091611033575b5015611021575460035480820290828204148215171561100b5761271090049081810390811161100b5760015460025460405163a9059cbb60e01b8082529188166001600160a01b031660048201526024810194909452929590849087908316816000816044810103925af1928315610fe257610f48968594610fee575b5060015460028701546040519283526001600160a01b03908416166004830152602482019390935295869290911690829060009082906044820190565b03925af1928315610fe257600f93610fb5575b50836000526005815260406000209033600052526040600020600160ff1982541617905501610f8a8154611599565b905533907f7df22c96b281580cd377eae9f79b72ddd9b187b24c4e08864ee83899c2b1d5a6600080a3005b610fd490823d8411610fdb575b610fcc818361140d565b810190611663565b5084610f5b565b503d610fc2565b6040513d6000823e3d90fd5b61100490853d8711610fdb57610fcc818361140d565b5088610f0b565b634e487b7160e01b600052601160045260246000fd5b604051636992e1ff60e01b8152600490fd5b61104a9150833d8511610fdb57610fcc818361140d565b86610e8d565b604051632293bb1f60e21b8152600490fd5b34610168576000366003190112610168576020600654604051908152f35b34610168576080366003190112610168576001600160401b03600435602435828111610168576110b4903690600401611514565b9092826000526020916004835260406000209160018060a01b0360028401541633036106385760019283810191825461121e57600782019084116105ad576111068461110083546113b7565b836115ee565b6000601f8511600114611192579284928692611182967fe6ec111eaebbb363de7be95e0f045e2155a53226c0c467b5b54fd5fdc29975979a9b96600091611187575b50600019600387901b1c191685851b1790555b60443560088201556009606435910155556040805195869586528501526040840191611642565b0390a2005b90508601358c611148565b601f1985169082600052876000209160005b8181106112095750927fe6ec111eaebbb363de7be95e0f045e2155a53226c0c467b5b54fd5fdc2997597999a9592879592611182988a96106111ef575b50508385811b01905561115b565b870135600019600388901b60f8161c191690558b806111e1565b8b8301358455928801929189019189016111a4565b604051631bce28eb60e11b8152600490fd5b3461016857602036600319011261016857600480356000908152602091909152604090208054600182015460028301546001600160a01b031692906112776003830161142e565b936112846004840161142e565b6005840154600685015460ff1661129d6007870161142e565b600887015492600988015492600a89016112b69061142e565b95600b8a01549b600c8b015498600d8c01549a600e8d01549c600f01549d60405180608052526080516020015260805160400152610200806080516060015260805101611302916114d4565b6080518082039060800152611316916114d4565b9160805160a00152151560805160c001526080518082039060e0015261133b916114d4565b9160805161010001526080516101200152608051808203906101400152611361916114d4565b94608051610160015260805161018001526080516101a001526080516101c001526080516101e0015260805180910390f35b34610168576000366003190112610168576001546001600160a01b03168152602090f35b90600182811c921680156113e7575b60208310146113d157565b634e487b7160e01b600052602260045260246000fd5b91607f16916113c6565b61020081019081106001600160401b038211176105ad57604052565b90601f801991011681019081106001600160401b038211176105ad57604052565b9060405191826000825492611442846113b7565b9081845260019485811690816000146114b1575060011461146e575b505061146c9250038361140d565b565b9093915060005260209081600020936000915b81831061149957505061146c9350820101388061145e565b85548884018501529485019487945091830191611481565b91505061146c94506020925060ff191682840152151560051b820101388061145e565b919082519283825260005b848110611500575050826000602080949584010152601f8019910116010190565b6020818301810151848301820152016114df565b9181601f84011215610168578235916001600160401b038311610168576020838186019501011161016857565b602435906001600160a01b038216820361016857565b600435906001600160a01b038216820361016857565b6000546001600160a01b0316330361158157565b60405163118cdaa760e01b8152336004820152602490fd5b600019811461100b5760010190565b9291926001600160401b0382116105ad57604051916115d1601f8201601f19166020018461140d565b829481845281830111610168578281602093846000960137010152565b90601f81116115fc57505050565b600091825260208220906020601f850160051c83019410611638575b601f0160051c01915b82811061162d57505050565b818155600101611621565b9092508290611618565b908060209392818452848401376000828201840152601f01601f1916010190565b9081602091031261016857518015158103610168579056fea26469706673582212206a1a274cc3ba6077fa2ab05a5610f72020a9019c2390cda9589d88b42eabc56164736f6c63430008140033","opcodes":"PUSH1 0x80 CALLVALUE PUSH2 0xE7 JUMPI PUSH1 0x1F PUSH2 0x17C8 CODESIZE DUP2 SWAP1 SUB SWAP2 DUP3 ADD PUSH1 0x1F NOT AND DUP4 ADD SWAP2 PUSH1 0x1 PUSH1 0x1 PUSH1 0x40 SHL SUB DUP4 GT DUP5 DUP5 LT OR PUSH2 0xEC JUMPI DUP1 DUP5 SWAP3 PUSH1 0x40 SWAP5 DUP6 MSTORE DUP4 CODECOPY DUP2 ADD SUB SLT PUSH2 0xE7 JUMPI PUSH2 0x52 PUSH1 0x20 PUSH2 0x4B DUP4 PUSH2 0x102 JUMP JUMPDEST SWAP3 ADD PUSH2 0x102 JUMP JUMPDEST CALLER ISZERO PUSH2 0xCE JUMPI PUSH1 0x0 DUP1 SLOAD CALLER PUSH1 0x1 PUSH1 0x1 PUSH1 0xA0 SHL SUB NOT DUP1 DUP4 AND DUP3 OR DUP5 SSTORE PUSH1 0x40 MLOAD SWAP6 SWAP1 SWAP5 PUSH1 0x1 PUSH1 0x1 PUSH1 0xA0 SHL SUB SWAP5 SWAP1 SWAP4 DUP6 SWAP4 SWAP2 SWAP1 DUP5 AND SWAP1 PUSH32 0x8BE0079C531659141344CD1FD0A4F28419497F9722A3DAAFE3B4186F6B6457E0 SWAP1 DUP1 LOG3 PUSH1 0xFA PUSH1 0x3 SSTORE AND DUP4 PUSH1 0x1 SLOAD AND OR PUSH1 0x1 SSTORE AND SWAP1 PUSH1 0x2 SLOAD AND OR PUSH1 0x2 SSTORE PUSH2 0x16B1 SWAP1 DUP2 PUSH2 0x117 DUP3 CODECOPY RETURN JUMPDEST PUSH1 0x40 MLOAD PUSH4 0x1E4FBDF7 PUSH1 0xE0 SHL DUP2 MSTORE PUSH1 0x0 PUSH1 0x4 DUP3 ADD MSTORE PUSH1 0x24 SWAP1 REVERT JUMPDEST PUSH1 0x0 DUP1 REVERT JUMPDEST PUSH4 0x4E487B71 PUSH1 0xE0 SHL PUSH1 0x0 MSTORE PUSH1 0x41 PUSH1 0x4 MSTORE PUSH1 0x24 PUSH1 0x0 REVERT JUMPDEST MLOAD SWAP1 PUSH1 0x1 PUSH1 0x1 PUSH1 0xA0 SHL SUB DUP3 AND DUP3 SUB PUSH2 0xE7 JUMPI JUMP INVALID PUSH1 0xA0 DUP1 PUSH1 0x40 MSTORE PUSH1 0x4 CALLDATASIZE LT ISZERO PUSH2 0x13 JUMPI PUSH1 0x0 DUP1 REVERT JUMPDEST PUSH1 0x0 CALLDATALOAD PUSH1 0xE0 SHR SWAP1 DUP2 PUSH4 0x11EAC855 EQ PUSH2 0x1393 JUMPI POP DUP1 PUSH4 0x1CFF85E1 EQ PUSH2 0x1230 JUMPI DUP1 PUSH4 0x1D2ADE8D EQ PUSH2 0x1080 JUMPI DUP1 PUSH4 0x2F5201BD EQ PUSH2 0x1062 JUMPI DUP1 PUSH4 0x49EE56F9 EQ PUSH2 0xE0A JUMPI DUP1 PUSH4 0x49FE92CB EQ PUSH2 0x7F2 JUMPI DUP1 PUSH4 0x61D027B3 EQ PUSH2 0x7C9 JUMPI DUP1 PUSH4 0x715018A6 EQ PUSH2 0x770 JUMPI DUP1 PUSH4 0x87910CEF EQ PUSH2 0x723 JUMPI DUP1 PUSH4 0x8DA5CB5B EQ PUSH2 0x6FA JUMPI DUP1 PUSH4 0x8E50E509 EQ PUSH2 0x6DC JUMPI DUP1 PUSH4 0xCED14198 EQ PUSH2 0x66B JUMPI DUP1 PUSH4 0xD8A5E936 EQ PUSH2 0x64A JUMPI DUP1 PUSH4 0xD9C63126 EQ PUSH2 0x41E JUMPI DUP1 PUSH4 0xEE004221 EQ PUSH2 0x1B0 JUMPI DUP1 PUSH4 0xF0F44260 EQ PUSH2 0x16D JUMPI PUSH4 0xF2FDE38B EQ PUSH2 0xDA JUMPI PUSH1 0x0 DUP1 REVERT JUMPDEST CALLVALUE PUSH2 0x168 JUMPI PUSH1 0x20 CALLDATASIZE PUSH1 0x3 NOT ADD SLT PUSH2 0x168 JUMPI PUSH2 0xF3 PUSH2 0x1557 JUMP JUMPDEST PUSH2 0xFB PUSH2 0x156D JUMP JUMPDEST PUSH1 0x1 PUSH1 0x1 PUSH1 0xA0 SHL SUB SWAP1 DUP2 AND SWAP1 DUP2 ISZERO PUSH2 0x14F JUMPI PUSH1 0x0 SLOAD DUP3 PUSH12 0xFFFFFFFFFFFFFFFFFFFFFFFF PUSH1 0xA0 SHL DUP3 AND OR PUSH1 0x0 SSTORE AND PUSH32 0x8BE0079C531659141344CD1FD0A4F28419497F9722A3DAAFE3B4186F6B6457E0 PUSH1 0x0 DUP1 LOG3 STOP JUMPDEST PUSH1 0x40 MLOAD PUSH4 0x1E4FBDF7 PUSH1 0xE0 SHL DUP2 MSTORE PUSH1 0x0 PUSH1 0x4 DUP3 ADD MSTORE PUSH1 0x24 SWAP1 REVERT JUMPDEST PUSH1 0x0 DUP1 REVERT JUMPDEST CALLVALUE PUSH2 0x168 JUMPI PUSH1 0x20 CALLDATASIZE PUSH1 0x3 NOT ADD SLT PUSH2 0x168 JUMPI PUSH2 0x186 PUSH2 0x1557 JUMP JUMPDEST PUSH2 0x18E PUSH2 0x156D JUMP JUMPDEST PUSH1 0x2 DUP1 SLOAD PUSH1 0x1 PUSH1 0x1 PUSH1 0xA0 SHL SUB NOT AND PUSH1 0x1 PUSH1 0x1 PUSH1 0xA0 SHL SUB SWAP3 SWAP1 SWAP3 AND SWAP2 SWAP1 SWAP2 OR SWAP1 SSTORE STOP JUMPDEST CALLVALUE PUSH2 0x168 JUMPI PUSH1 0x20 CALLDATASIZE PUSH1 0x3 NOT ADD SLT PUSH2 0x168 JUMPI PUSH1 0x0 PUSH2 0x1E0 PUSH1 0x40 MLOAD PUSH2 0x1D2 DUP2 PUSH2 0x13F1 JUMP JUMPDEST DUP3 DUP2 MSTORE DUP3 PUSH1 0x20 DUP3 ADD MSTORE DUP3 PUSH1 0x40 DUP3 ADD MSTORE PUSH1 0x60 DUP1 DUP3 ADD MSTORE PUSH1 0x60 PUSH1 0x80 DUP3 ADD MSTORE DUP3 PUSH1 0xA0 DUP3 ADD MSTORE DUP3 PUSH1 0xC0 DUP3 ADD MSTORE PUSH1 0x60 PUSH1 0xE0 DUP3 ADD MSTORE DUP3 PUSH2 0x100 DUP3 ADD MSTORE DUP3 PUSH2 0x120 DUP3 ADD MSTORE PUSH1 0x60 PUSH2 0x140 DUP3 ADD MSTORE DUP3 PUSH2 0x160 DUP3 ADD MSTORE DUP3 PUSH2 0x180 DUP3 ADD MSTORE DUP3 PUSH2 0x1A0 DUP3 ADD MSTORE DUP3 PUSH2 0x1C0 DUP3 ADD MSTORE ADD MSTORE PUSH1 0x4 CALLDATALOAD PUSH1 0x0 MSTORE PUSH1 0x4 PUSH1 0x20 MSTORE PUSH1 0x40 PUSH1 0x0 KECCAK256 PUSH1 0xF PUSH1 0x40 MLOAD SWAP2 PUSH2 0x254 DUP4 PUSH2 0x13F1 JUMP JUMPDEST DUP1 SLOAD DUP4 MSTORE PUSH1 0x1 DUP2 ADD SLOAD PUSH1 0x20 DUP5 ADD MSTORE PUSH1 0x2 DUP2 ADD SLOAD PUSH1 0x1 PUSH1 0x1 PUSH1 0xA0 SHL SUB AND PUSH1 0x40 DUP5 ADD MSTORE PUSH2 0x281 PUSH1 0x3 DUP3 ADD PUSH2 0x142E JUMP JUMPDEST PUSH1 0x60 DUP5 ADD MSTORE PUSH2 0x292 PUSH1 0x4 DUP3 ADD PUSH2 0x142E JUMP JUMPDEST PUSH1 0x80 DUP5 ADD MSTORE PUSH1 0x5 DUP2 ADD SLOAD PUSH1 0xA0 DUP5 ADD MSTORE PUSH1 0xFF PUSH1 0x6 DUP3 ADD SLOAD AND ISZERO ISZERO PUSH1 0xC0 DUP5 ADD MSTORE PUSH2 0x2BC PUSH1 0x7 DUP3 ADD PUSH2 0x142E JUMP JUMPDEST PUSH1 0xE0 DUP5 ADD MSTORE PUSH1 0x8 DUP2 ADD SLOAD PUSH2 0x100 DUP5 ADD MSTORE PUSH1 0x9 DUP2 ADD SLOAD PUSH2 0x120 DUP5 ADD MSTORE PUSH2 0x2E3 PUSH1 0xA DUP3 ADD PUSH2 0x142E JUMP JUMPDEST PUSH2 0x140 DUP5 ADD MSTORE PUSH1 0xB DUP2 ADD SLOAD PUSH2 0x160 DUP5 ADD MSTORE PUSH1 0xC DUP2 ADD SLOAD PUSH2 0x180 DUP5 ADD MSTORE PUSH1 0xD DUP2 ADD SLOAD PUSH2 0x1A0 DUP5 ADD MSTORE PUSH1 0xE DUP2 ADD SLOAD PUSH2 0x1C0 DUP5 ADD MSTORE ADD SLOAD PUSH2 0x1E0 DUP3 ADD MSTORE PUSH1 0x40 MLOAD DUP1 SWAP2 PUSH1 0x20 DUP3 MSTORE DUP1 MLOAD PUSH1 0x20 DUP4 ADD MSTORE PUSH1 0x20 DUP2 ADD MLOAD PUSH1 0x40 DUP4 ADD MSTORE PUSH1 0x1 DUP1 PUSH1 0xA0 SHL SUB PUSH1 0x40 DUP3 ADD MLOAD AND PUSH1 0x60 DUP4 ADD MSTORE PUSH2 0x1E0 PUSH2 0x3E3 PUSH2 0x36A PUSH1 0x60 DUP5 ADD MLOAD PUSH2 0x200 PUSH1 0x80 DUP8 ADD MSTORE PUSH2 0x220 DUP7 ADD SWAP1 PUSH2 0x14D4 JUMP JUMPDEST PUSH2 0x3B4 PUSH2 0x389 PUSH1 0x80 DUP7 ADD MLOAD SWAP3 PUSH1 0x1F NOT SWAP4 DUP5 DUP10 DUP4 SUB ADD PUSH1 0xA0 DUP11 ADD MSTORE PUSH2 0x14D4 JUMP JUMPDEST PUSH1 0xA0 DUP7 ADD MLOAD PUSH1 0xC0 DUP9 ADD MSTORE PUSH1 0xC0 DUP7 ADD MLOAD ISZERO ISZERO PUSH1 0xE0 DUP9 ADD MSTORE PUSH1 0xE0 DUP7 ADD MLOAD DUP4 DUP9 DUP4 SUB ADD PUSH2 0x100 DUP10 ADD MSTORE PUSH2 0x14D4 JUMP JUMPDEST SWAP1 PUSH2 0x100 DUP6 ADD MLOAD PUSH2 0x120 DUP8 ADD MSTORE PUSH2 0x120 DUP6 ADD MLOAD PUSH2 0x140 DUP8 ADD MSTORE PUSH2 0x140 DUP6 ADD MLOAD SWAP1 DUP7 DUP4 SUB ADD PUSH2 0x160 DUP8 ADD MSTORE PUSH2 0x14D4 JUMP JUMPDEST SWAP2 PUSH2 0x160 DUP2 ADD MLOAD PUSH2 0x180 DUP6 ADD MSTORE PUSH2 0x180 DUP2 ADD MLOAD PUSH2 0x1A0 DUP6 ADD MSTORE PUSH2 0x1A0 DUP2 ADD MLOAD PUSH2 0x1C0 DUP6 ADD MSTORE PUSH2 0x1C0 DUP2 ADD MLOAD DUP3 DUP6 ADD MSTORE ADD MLOAD PUSH2 0x200 DUP4 ADD MSTORE SUB SWAP1 RETURN JUMPDEST CALLVALUE PUSH2 0x168 JUMPI PUSH1 0x80 CALLDATASIZE PUSH1 0x3 NOT ADD SLT PUSH2 0x168 JUMPI PUSH1 0x1 PUSH1 0x1 PUSH1 0x40 SHL SUB PUSH1 0x24 CALLDATALOAD DUP2 DUP2 GT PUSH2 0x168 JUMPI PUSH2 0x44F SWAP1 CALLDATASIZE SWAP1 PUSH1 0x4 ADD PUSH2 0x1514 JUMP JUMPDEST SWAP1 SWAP2 PUSH1 0x44 CALLDATALOAD DUP2 DUP2 GT PUSH2 0x168 JUMPI PUSH2 0x469 SWAP1 CALLDATASIZE SWAP1 PUSH1 0x4 ADD PUSH2 0x1514 JUMP JUMPDEST SWAP1 PUSH1 0x4 CALLDATALOAD PUSH1 0x0 MSTORE PUSH1 0x20 SWAP5 PUSH1 0x4 DUP7 MSTORE PUSH1 0x40 PUSH1 0x0 KECCAK256 SWAP5 PUSH1 0x1 DUP1 PUSH1 0xA0 SHL SUB PUSH1 0x2 DUP8 ADD SLOAD AND CALLER SUB PUSH2 0x638 JUMPI PUSH1 0x3 DUP7 ADD SWAP2 DUP6 DUP3 GT PUSH2 0x5AD JUMPI DUP2 SWAP1 PUSH2 0x4B2 DUP3 PUSH2 0x4AC DUP7 SLOAD PUSH2 0x13B7 JUMP JUMPDEST DUP7 PUSH2 0x15EE JUMP JUMPDEST PUSH1 0x0 SWAP1 PUSH1 0x1F DUP4 GT PUSH1 0x1 EQ PUSH2 0x5CE JUMPI PUSH1 0x0 SWAP3 PUSH2 0x5C3 JUMPI JUMPDEST POP POP DUP2 PUSH1 0x1 SHL SWAP2 PUSH1 0x0 NOT SWAP1 PUSH1 0x3 SHL SHR NOT AND OR SWAP1 SSTORE JUMPDEST PUSH1 0x4 DUP5 ADD SWAP3 DUP3 GT PUSH2 0x5AD JUMPI PUSH2 0x4FC DUP3 PUSH2 0x4F6 DUP6 SLOAD PUSH2 0x13B7 JUMP JUMPDEST DUP6 PUSH2 0x15EE JUMP JUMPDEST PUSH1 0x0 SWAP5 PUSH1 0x1F DUP4 GT PUSH1 0x1 EQ PUSH2 0x545 JUMPI POP SWAP4 DUP2 SWAP3 SWAP4 SWAP5 PUSH1 0x0 SWAP3 PUSH2 0x53A JUMPI JUMPDEST POP POP DUP2 PUSH1 0x1 SHL SWAP2 PUSH1 0x0 NOT SWAP1 PUSH1 0x3 SHL SHR NOT AND OR SWAP1 SSTORE JUMPDEST PUSH1 0x5 PUSH1 0x64 CALLDATALOAD SWAP2 ADD SSTORE PUSH1 0x0 DUP1 RETURN JUMPDEST ADD CALLDATALOAD SWAP1 POP DUP5 DUP1 PUSH2 0x518 JUMP JUMPDEST SWAP1 PUSH1 0x1F NOT DUP4 AND SWAP6 DUP5 PUSH1 0x0 MSTORE DUP3 PUSH1 0x0 KECCAK256 SWAP3 PUSH1 0x0 SWAP1 JUMPDEST DUP9 DUP3 LT PUSH2 0x595 JUMPI POP POP DUP4 PUSH1 0x1 SWAP6 SWAP7 SWAP8 LT PUSH2 0x57B JUMPI JUMPDEST POP POP POP DUP2 SHL ADD SWAP1 SSTORE PUSH2 0x52D JUMP JUMPDEST ADD CALLDATALOAD PUSH1 0x0 NOT PUSH1 0x3 DUP5 SWAP1 SHL PUSH1 0xF8 AND SHR NOT AND SWAP1 SSTORE DUP5 DUP1 DUP1 PUSH2 0x56E JUMP JUMPDEST DUP1 PUSH1 0x1 DUP5 SWAP7 DUP3 SWAP5 SWAP6 DUP8 ADD CALLDATALOAD DUP2 SSTORE ADD SWAP6 ADD SWAP3 ADD SWAP1 PUSH2 0x559 JUMP JUMPDEST PUSH4 0x4E487B71 PUSH1 0xE0 SHL PUSH1 0x0 MSTORE PUSH1 0x41 PUSH1 0x4 MSTORE PUSH1 0x24 PUSH1 0x0 REVERT JUMPDEST ADD CALLDATALOAD SWAP1 POP DUP9 DUP1 PUSH2 0x4C8 JUMP JUMPDEST SWAP1 SWAP2 POP PUSH1 0x1F NOT DUP4 AND SWAP2 DUP5 PUSH1 0x0 MSTORE DUP10 PUSH1 0x0 KECCAK256 SWAP3 PUSH1 0x0 JUMPDEST DUP12 DUP3 DUP3 LT PUSH2 0x622 JUMPI POP POP SWAP1 DUP5 PUSH1 0x1 SWAP6 SWAP5 SWAP4 SWAP3 LT PUSH2 0x608 JUMPI JUMPDEST POP POP POP DUP2 SHL ADD SWAP1 SSTORE PUSH2 0x4DD JUMP JUMPDEST ADD CALLDATALOAD PUSH1 0x0 NOT PUSH1 0x3 DUP5 SWAP1 SHL PUSH1 0xF8 AND SHR NOT AND SWAP1 SSTORE DUP9 DUP1 DUP1 PUSH2 0x5FB JUMP JUMPDEST PUSH1 0x1 DUP5 SWAP7 DUP3 SWAP4 SWAP6 DUP8 ADD CALLDATALOAD DUP2 SSTORE ADD SWAP6 ADD SWAP3 ADD PUSH2 0x5E3 JUMP JUMPDEST PUSH1 0x40 MLOAD PUSH4 0x72E22E7F PUSH1 0xE1 SHL DUP2 MSTORE PUSH1 0x4 SWAP1 REVERT JUMPDEST CALLVALUE PUSH2 0x168 JUMPI PUSH1 0x20 CALLDATASIZE PUSH1 0x3 NOT ADD SLT PUSH2 0x168 JUMPI PUSH2 0x663 PUSH2 0x156D JUMP JUMPDEST PUSH1 0x4 CALLDATALOAD PUSH1 0x3 SSTORE STOP JUMPDEST CALLVALUE PUSH2 0x168 JUMPI PUSH1 0x40 CALLDATASIZE PUSH1 0x3 NOT ADD SLT PUSH2 0x168 JUMPI PUSH2 0x684 PUSH2 0x1541 JUMP JUMPDEST PUSH1 0x4 CALLDATALOAD PUSH1 0x0 MSTORE PUSH1 0x4 PUSH1 0x20 MSTORE PUSH1 0x1 DUP1 PUSH1 0xA0 SHL SUB DUP1 PUSH1 0x2 PUSH1 0x40 PUSH1 0x0 KECCAK256 ADD SLOAD AND SWAP2 AND DUP1 SWAP2 EQ DUP1 ISZERO PUSH2 0x6BA JUMPI JUMPDEST PUSH1 0x20 SWAP1 PUSH1 0x40 MLOAD SWAP1 ISZERO ISZERO DUP2 MSTORE RETURN JUMPDEST POP PUSH1 0x5 PUSH1 0x20 MSTORE PUSH1 0x40 PUSH1 0x0 KECCAK256 SWAP1 PUSH1 0x0 MSTORE PUSH1 0x20 MSTORE PUSH1 0x20 PUSH1 0xFF PUSH1 0x40 PUSH1 0x0 KECCAK256 SLOAD AND PUSH2 0x6AD JUMP JUMPDEST CALLVALUE PUSH2 0x168 JUMPI PUSH1 0x0 CALLDATASIZE PUSH1 0x3 NOT ADD SLT PUSH2 0x168 JUMPI PUSH1 0x20 PUSH1 0x3 SLOAD PUSH1 0x40 MLOAD SWAP1 DUP2 MSTORE RETURN JUMPDEST CALLVALUE PUSH2 0x168 JUMPI PUSH1 0x0 CALLDATASIZE PUSH1 0x3 NOT ADD SLT PUSH2 0x168 JUMPI PUSH1 0x0 SLOAD PUSH1 0x40 MLOAD PUSH1 0x1 PUSH1 0x1 PUSH1 0xA0 SHL SUB SWAP1 SWAP2 AND DUP2 MSTORE PUSH1 0x20 SWAP1 RETURN JUMPDEST CALLVALUE PUSH2 0x168 JUMPI PUSH1 0x40 CALLDATASIZE PUSH1 0x3 NOT ADD SLT PUSH2 0x168 JUMPI PUSH2 0x73C PUSH2 0x1541 JUMP JUMPDEST PUSH1 0x4 CALLDATALOAD PUSH1 0x0 MSTORE PUSH1 0x5 PUSH1 0x20 MSTORE PUSH1 0x40 PUSH1 0x0 KECCAK256 SWAP1 PUSH1 0x1 DUP1 PUSH1 0xA0 SHL SUB AND PUSH1 0x0 MSTORE PUSH1 0x20 MSTORE PUSH1 0x20 PUSH1 0xFF PUSH1 0x40 PUSH1 0x0 KECCAK256 SLOAD AND PUSH1 0x40 MLOAD SWAP1 ISZERO ISZERO DUP2 MSTORE RETURN JUMPDEST CALLVALUE PUSH2 0x168 JUMPI PUSH1 0x0 CALLDATASIZE PUSH1 0x3 NOT ADD SLT PUSH2 0x168 JUMPI PUSH2 0x789 PUSH2 0x156D JUMP JUMPDEST PUSH1 0x0 DUP1 SLOAD PUSH1 0x1 PUSH1 0x1 PUSH1 0xA0 SHL SUB NOT DUP2 AND DUP3 SSTORE PUSH1 0x1 PUSH1 0x1 PUSH1 0xA0 SHL SUB AND PUSH32 0x8BE0079C531659141344CD1FD0A4F28419497F9722A3DAAFE3B4186F6B6457E0 DUP3 DUP1 LOG3 STOP JUMPDEST CALLVALUE PUSH2 0x168 JUMPI PUSH1 0x0 CALLDATASIZE PUSH1 0x3 NOT ADD SLT PUSH2 0x168 JUMPI PUSH1 0x2 SLOAD PUSH1 0x40 MLOAD PUSH1 0x1 PUSH1 0x1 PUSH1 0xA0 SHL SUB SWAP1 SWAP2 AND DUP2 MSTORE PUSH1 0x20 SWAP1 RETURN JUMPDEST CALLVALUE PUSH2 0x168 JUMPI PUSH2 0x120 CALLDATASIZE PUSH1 0x3 NOT ADD SLT PUSH2 0x168 JUMPI PUSH1 0x4 CALLDATALOAD PUSH1 0x1 PUSH1 0x1 PUSH1 0x40 SHL SUB DUP2 GT PUSH2 0x168 JUMPI PUSH2 0x823 SWAP1 CALLDATASIZE SWAP1 PUSH1 0x4 ADD PUSH2 0x1514 JUMP JUMPDEST SWAP1 PUSH1 0x24 CALLDATALOAD PUSH1 0x1 PUSH1 0x1 PUSH1 0x40 SHL SUB DUP2 GT PUSH2 0x168 JUMPI PUSH2 0x843 SWAP1 CALLDATASIZE SWAP1 PUSH1 0x4 ADD PUSH2 0x1514 JUMP JUMPDEST SWAP3 SWAP1 SWAP2 PUSH1 0x64 CALLDATALOAD DUP1 ISZERO ISZERO DUP2 SUB PUSH2 0x168 JUMPI PUSH1 0x84 CALLDATALOAD PUSH1 0x1 PUSH1 0x1 PUSH1 0x40 SHL SUB DUP2 GT PUSH2 0x168 JUMPI PUSH2 0x871 SWAP1 CALLDATASIZE SWAP1 PUSH1 0x4 ADD PUSH2 0x1514 JUMP JUMPDEST SWAP2 PUSH2 0x8B9 PUSH1 0x6 SLOAD SWAP7 PUSH2 0x882 DUP9 PUSH2 0x1599 JUMP JUMPDEST PUSH1 0x6 SSTORE PUSH1 0x40 MLOAD SWAP9 PUSH2 0x892 DUP11 PUSH2 0x13F1 JUMP JUMPDEST DUP9 DUP11 MSTORE PUSH1 0x0 PUSH1 0x20 DUP12 ADD MSTORE CALLER PUSH1 0x40 DUP12 ADD MSTORE PUSH2 0x8AD CALLDATASIZE DUP10 DUP10 PUSH2 0x15A8 JUMP JUMPDEST PUSH1 0x60 DUP12 ADD MSTORE CALLDATASIZE SWAP2 PUSH2 0x15A8 JUMP JUMPDEST PUSH1 0x80 DUP9 ADD MSTORE PUSH1 0x44 CALLDATALOAD PUSH1 0xA0 DUP9 ADD MSTORE ISZERO ISZERO PUSH1 0xC0 DUP8 ADD MSTORE PUSH1 0x40 MLOAD SWAP2 DUP3 PUSH1 0x20 DUP2 ADD LT PUSH1 0x1 PUSH1 0x1 PUSH1 0x40 SHL SUB PUSH1 0x20 DUP6 ADD GT OR PUSH2 0x5AD JUMPI DUP3 PUSH1 0x20 PUSH2 0x914 SWAP5 ADD PUSH1 0x40 MSTORE PUSH1 0x0 DUP2 MSTORE PUSH1 0xE0 DUP9 ADD MSTORE PUSH1 0x0 PUSH2 0x100 DUP9 ADD MSTORE PUSH1 0x0 PUSH2 0x120 DUP9 ADD MSTORE CALLDATASIZE SWAP2 PUSH2 0x15A8 JUMP JUMPDEST PUSH2 0x140 DUP6 ADD MSTORE PUSH1 0xA4 CALLDATALOAD PUSH2 0x160 DUP6 ADD MSTORE PUSH1 0xC4 CALLDATALOAD PUSH2 0x180 DUP6 ADD MSTORE PUSH1 0xE4 CALLDATALOAD PUSH2 0x1A0 DUP6 ADD MSTORE PUSH2 0x104 CALLDATALOAD PUSH2 0x1C0 DUP6 ADD MSTORE PUSH1 0x0 PUSH2 0x1E0 DUP6 ADD MSTORE DUP3 PUSH1 0x0 MSTORE PUSH1 0x4 PUSH1 0x20 MSTORE PUSH1 0x40 PUSH1 0x0 KECCAK256 SWAP1 DUP5 MLOAD DUP3 SSTORE PUSH1 0x20 DUP6 ADD MLOAD PUSH1 0x1 DUP4 ADD SSTORE PUSH1 0x2 DUP3 ADD PUSH1 0x1 DUP1 PUSH1 0xA0 SHL SUB PUSH1 0x40 DUP8 ADD MLOAD AND PUSH12 0xFFFFFFFFFFFFFFFFFFFFFFFF PUSH1 0xA0 SHL DUP3 SLOAD AND OR SWAP1 SSTORE PUSH1 0x60 DUP6 ADD MLOAD DUP1 MLOAD SWAP1 PUSH1 0x1 PUSH1 0x1 PUSH1 0x40 SHL SUB DUP3 GT PUSH2 0x5AD JUMPI DUP2 SWAP1 PUSH2 0x9BD DUP3 PUSH2 0x9B4 PUSH1 0x3 DUP9 ADD SLOAD PUSH2 0x13B7 JUMP JUMPDEST PUSH1 0x3 DUP9 ADD PUSH2 0x15EE JUMP JUMPDEST PUSH1 0x20 SWAP1 PUSH1 0x1F DUP4 GT PUSH1 0x1 EQ PUSH2 0xD98 JUMPI PUSH1 0x0 SWAP3 PUSH2 0xD8D JUMPI JUMPDEST POP POP DUP2 PUSH1 0x1 SHL SWAP2 PUSH1 0x0 NOT SWAP1 PUSH1 0x3 SHL SHR NOT AND OR PUSH1 0x3 DUP4 ADD SSTORE JUMPDEST PUSH1 0x80 DUP6 ADD MLOAD DUP1 MLOAD SWAP1 PUSH1 0x1 PUSH1 0x1 PUSH1 0x40 SHL SUB DUP3 GT PUSH2 0x5AD JUMPI DUP2 SWAP1 PUSH2 0xA1D DUP3 PUSH2 0xA14 PUSH1 0x4 DUP9 ADD SLOAD PUSH2 0x13B7 JUMP JUMPDEST PUSH1 0x4 DUP9 ADD PUSH2 0x15EE JUMP JUMPDEST PUSH1 0x20 SWAP1 PUSH1 0x1F DUP4 GT PUSH1 0x1 EQ PUSH2 0xD1B JUMPI PUSH1 0x0 SWAP3 PUSH2 0xD10 JUMPI JUMPDEST POP POP DUP2 PUSH1 0x1 SHL SWAP2 PUSH1 0x0 NOT SWAP1 PUSH1 0x3 SHL SHR NOT AND OR PUSH1 0x4 DUP4 ADD SSTORE JUMPDEST PUSH1 0xA0 DUP6 ADD MLOAD PUSH1 0x5 DUP4 ADD SSTORE PUSH1 0xC0 DUP6 ADD MLOAD ISZERO ISZERO PUSH1 0xFF DUP1 NOT PUSH1 0x6 DUP6 ADD SLOAD AND SWAP2 AND OR PUSH1 0x6 DUP4 ADD SSTORE PUSH1 0xE0 DUP6 ADD MLOAD DUP1 MLOAD SWAP1 PUSH1 0x1 PUSH1 0x1 PUSH1 0x40 SHL SUB DUP3 GT PUSH2 0x5AD JUMPI DUP2 SWAP1 PUSH2 0xAA0 DUP3 PUSH2 0xA97 PUSH1 0x7 DUP9 ADD SLOAD PUSH2 0x13B7 JUMP JUMPDEST PUSH1 0x7 DUP9 ADD PUSH2 0x15EE JUMP JUMPDEST PUSH1 0x20 SWAP1 PUSH1 0x1F DUP4 GT PUSH1 0x1 EQ PUSH2 0xC9E JUMPI PUSH1 0x0 SWAP3 PUSH2 0xC93 JUMPI JUMPDEST POP POP DUP2 PUSH1 0x1 SHL SWAP2 PUSH1 0x0 NOT SWAP1 PUSH1 0x3 SHL SHR NOT AND OR PUSH1 0x7 DUP4 ADD SSTORE JUMPDEST PUSH2 0x100 DUP6 ADD MLOAD PUSH1 0x8 DUP4 ADD SSTORE PUSH2 0x120 DUP6 ADD MLOAD PUSH1 0x9 DUP4 ADD SSTORE PUSH2 0x140 DUP6 ADD MLOAD SWAP2 DUP3 MLOAD SWAP6 PUSH1 0x1 PUSH1 0x1 PUSH1 0x40 SHL SUB DUP8 GT PUSH2 0x5AD JUMPI DUP7 DUP7 SWAP5 PUSH2 0xB1B PUSH1 0x20 SWAP10 PUSH2 0xB12 PUSH1 0xA DUP8 ADD SLOAD PUSH2 0x13B7 JUMP JUMPDEST PUSH1 0xA DUP8 ADD PUSH2 0x15EE JUMP JUMPDEST DUP9 SWAP1 PUSH1 0x1F DUP4 GT PUSH1 0x1 EQ PUSH2 0xBF6 JUMPI PUSH32 0xEBDCBCE6C96378B8D55AF14FB1700ACCCB6779494C3A3313C8CF29CB8FC706FC SWAP6 SWAP4 DUP4 PUSH2 0xBE0 SWAP7 SWAP5 PUSH1 0xF SWAP5 PUSH2 0x1E0 SWAP5 PUSH1 0x0 SWAP3 PUSH2 0xBEB JUMPI JUMPDEST POP POP DUP2 PUSH1 0x1 SHL SWAP2 PUSH1 0x0 NOT SWAP1 PUSH1 0x3 SHL SHR NOT AND OR PUSH1 0xA DUP6 ADD SSTORE JUMPDEST PUSH2 0x160 DUP2 ADD MLOAD PUSH1 0xB DUP6 ADD SSTORE PUSH2 0x180 DUP2 ADD MLOAD PUSH1 0xC DUP6 ADD SSTORE PUSH2 0x1A0 DUP2 ADD MLOAD PUSH1 0xD DUP6 ADD SSTORE PUSH2 0x1C0 DUP2 ADD MLOAD PUSH1 0xE DUP6 ADD SSTORE ADD MLOAD SWAP2 ADD SSTORE DUP4 PUSH1 0x0 MSTORE PUSH1 0x5 DUP8 MSTORE PUSH1 0x40 PUSH1 0x0 KECCAK256 CALLER PUSH1 0x0 MSTORE DUP8 MSTORE PUSH1 0x40 PUSH1 0x0 KECCAK256 PUSH1 0x1 PUSH1 0xFF NOT DUP3 SLOAD AND OR SWAP1 SSTORE PUSH1 0x40 MLOAD SWAP2 DUP3 SWAP2 DUP9 DUP4 MSTORE CALLER SWAP7 DUP10 DUP5 ADD SWAP2 PUSH2 0x1642 JUMP JUMPDEST SUB SWAP1 LOG3 PUSH1 0x40 MLOAD SWAP1 DUP2 MSTORE RETURN JUMPDEST ADD MLOAD SWAP1 POP DUP14 DUP1 PUSH2 0xB60 JUMP JUMPDEST SWAP1 PUSH1 0xA DUP6 ADD PUSH1 0x0 MSTORE DUP10 PUSH1 0x0 KECCAK256 SWAP2 PUSH1 0x0 JUMPDEST PUSH1 0x1F NOT DUP6 AND DUP2 LT PUSH2 0xC79 JUMPI POP SWAP4 PUSH1 0x1 DUP5 PUSH1 0xF SWAP5 PUSH2 0x1E0 SWAP5 PUSH32 0xEBDCBCE6C96378B8D55AF14FB1700ACCCB6779494C3A3313C8CF29CB8FC706FC SWAP11 SWAP9 PUSH2 0xBE0 SWAP11 SWAP9 PUSH1 0x1F NOT DUP2 AND LT PUSH2 0xC60 JUMPI JUMPDEST POP POP POP DUP2 SHL ADD PUSH1 0xA DUP6 ADD SSTORE PUSH2 0xB78 JUMP JUMPDEST ADD MLOAD PUSH1 0x0 NOT PUSH1 0xF8 DUP5 PUSH1 0x3 SHL AND SHR NOT AND SWAP1 SSTORE DUP14 DUP1 DUP1 PUSH2 0xC50 JUMP JUMPDEST DUP2 DUP4 ADD MLOAD DUP5 SSTORE DUP11 SWAP9 POP PUSH1 0x1 SWAP1 SWAP4 ADD SWAP3 SWAP2 DUP12 ADD SWAP2 DUP12 ADD PUSH2 0xC06 JUMP JUMPDEST ADD MLOAD SWAP1 POP DUP8 DUP1 PUSH2 0xAB6 JUMP JUMPDEST SWAP3 POP PUSH1 0x7 DUP6 ADD PUSH1 0x0 MSTORE PUSH1 0x20 PUSH1 0x0 KECCAK256 SWAP1 PUSH1 0x0 SWAP4 JUMPDEST PUSH1 0x1F NOT DUP5 AND DUP6 LT PUSH2 0xCF5 JUMPI PUSH1 0x1 SWAP5 POP DUP4 PUSH1 0x1F NOT DUP2 AND LT PUSH2 0xCDC JUMPI JUMPDEST POP POP POP DUP2 SHL ADD PUSH1 0x7 DUP4 ADD SSTORE PUSH2 0xACE JUMP JUMPDEST ADD MLOAD PUSH1 0x0 NOT PUSH1 0xF8 DUP5 PUSH1 0x3 SHL AND SHR NOT AND SWAP1 SSTORE DUP8 DUP1 DUP1 PUSH2 0xCCC JUMP JUMPDEST DUP2 DUP2 ADD MLOAD DUP4 SSTORE PUSH1 0x20 SWAP5 DUP6 ADD SWAP5 PUSH1 0x1 SWAP1 SWAP4 ADD SWAP3 SWAP1 SWAP2 ADD SWAP1 PUSH2 0xCB1 JUMP JUMPDEST ADD MLOAD SWAP1 POP DUP8 DUP1 PUSH2 0xA33 JUMP JUMPDEST SWAP3 POP PUSH1 0x4 DUP6 ADD PUSH1 0x0 MSTORE PUSH1 0x20 PUSH1 0x0 KECCAK256 SWAP1 PUSH1 0x0 SWAP4 JUMPDEST PUSH1 0x1F NOT DUP5 AND DUP6 LT PUSH2 0xD72 JUMPI PUSH1 0x1 SWAP5 POP DUP4 PUSH1 0x1F NOT DUP2 AND LT PUSH2 0xD59 JUMPI JUMPDEST POP POP POP DUP2 SHL ADD PUSH1 0x4 DUP4 ADD SSTORE PUSH2 0xA4B JUMP JUMPDEST ADD MLOAD PUSH1 0x0 NOT PUSH1 0xF8 DUP5 PUSH1 0x3 SHL AND SHR NOT AND SWAP1 SSTORE DUP8 DUP1 DUP1 PUSH2 0xD49 JUMP JUMPDEST DUP2 DUP2 ADD MLOAD DUP4 SSTORE PUSH1 0x20 SWAP5 DUP6 ADD SWAP5 PUSH1 0x1 SWAP1 SWAP4 ADD SWAP3 SWAP1 SWAP2 ADD SWAP1 PUSH2 0xD2E JUMP JUMPDEST ADD MLOAD SWAP1 POP DUP8 DUP1 PUSH2 0x9D3 JUMP JUMPDEST SWAP3 POP PUSH1 0x3 DUP6 ADD PUSH1 0x0 MSTORE PUSH1 0x20 PUSH1 0x0 KECCAK256 SWAP1 PUSH1 0x0 SWAP4 JUMPDEST PUSH1 0x1F NOT DUP5 AND DUP6 LT PUSH2 0xDEF JUMPI PUSH1 0x1 SWAP5 POP DUP4 PUSH1 0x1F NOT DUP2 AND LT PUSH2 0xDD6 JUMPI JUMPDEST POP POP POP DUP2 SHL ADD PUSH1 0x3 DUP4 ADD SSTORE PUSH2 0x9EB JUMP JUMPDEST ADD MLOAD PUSH1 0x0 NOT PUSH1 0xF8 DUP5 PUSH1 0x3 SHL AND SHR NOT AND SWAP1 SSTORE DUP8 DUP1 DUP1 PUSH2 0xDC6 JUMP JUMPDEST DUP2 DUP2 ADD MLOAD DUP4 SSTORE PUSH1 0x20 SWAP5 DUP6 ADD SWAP5 PUSH1 0x1 SWAP1 SWAP4 ADD SWAP3 SWAP1 SWAP2 ADD SWAP1 PUSH2 0xDAB JUMP JUMPDEST CALLVALUE PUSH2 0x168 JUMPI PUSH1 0x20 DUP1 PUSH1 0x3 NOT CALLDATASIZE ADD SLT PUSH2 0x168 JUMPI PUSH1 0x4 CALLDATALOAD SWAP1 DUP2 PUSH1 0x0 MSTORE PUSH1 0x4 DUP2 MSTORE PUSH1 0x40 PUSH1 0x0 KECCAK256 PUSH1 0xFF PUSH1 0x6 DUP3 ADD SLOAD AND ISZERO PUSH2 0x1050 JUMPI PUSH1 0x1 SLOAD PUSH1 0x5 DUP3 ADD DUP1 SLOAD PUSH1 0x40 MLOAD PUSH4 0x23B872DD PUSH1 0xE0 SHL DUP2 MSTORE CALLER PUSH1 0x4 DUP3 ADD MSTORE ADDRESS PUSH1 0x24 DUP3 ADD MSTORE PUSH1 0x44 DUP2 ADD SWAP2 SWAP1 SWAP2 MSTORE PUSH1 0x1 PUSH1 0x1 PUSH1 0xA0 SHL SUB SWAP5 SWAP3 DUP4 SWAP1 DUP3 SWAP1 PUSH1 0x64 SWAP1 DUP3 SWAP1 PUSH1 0x0 SWAP1 DUP11 AND GAS CALL SWAP1 DUP2 ISZERO PUSH2 0xFE2 JUMPI PUSH1 0x0 SWAP2 PUSH2 0x1033 JUMPI JUMPDEST POP ISZERO PUSH2 0x1021 JUMPI SLOAD PUSH1 0x3 SLOAD DUP1 DUP3 MUL SWAP1 DUP3 DUP3 DIV EQ DUP3 ISZERO OR ISZERO PUSH2 0x100B JUMPI PUSH2 0x2710 SWAP1 DIV SWAP1 DUP2 DUP2 SUB SWAP1 DUP2 GT PUSH2 0x100B JUMPI PUSH1 0x1 SLOAD PUSH1 0x2 SLOAD PUSH1 0x40 MLOAD PUSH4 0xA9059CBB PUSH1 0xE0 SHL DUP1 DUP3 MSTORE SWAP2 DUP9 AND PUSH1 0x1 PUSH1 0x1 PUSH1 0xA0 SHL SUB AND PUSH1 0x4 DUP3 ADD MSTORE PUSH1 0x24 DUP2 ADD SWAP5 SWAP1 SWAP5 MSTORE SWAP3 SWAP6 SWAP1 DUP5 SWAP1 DUP8 SWAP1 DUP4 AND DUP2 PUSH1 0x0 DUP2 PUSH1 0x44 DUP2 ADD SUB SWAP3 GAS CALL SWAP3 DUP4 ISZERO PUSH2 0xFE2 JUMPI PUSH2 0xF48 SWAP7 DUP6 SWAP5 PUSH2 0xFEE JUMPI JUMPDEST POP PUSH1 0x1 SLOAD PUSH1 0x2 DUP8 ADD SLOAD PUSH1 0x40 MLOAD SWAP3 DUP4 MSTORE PUSH1 0x1 PUSH1 0x1 PUSH1 0xA0 SHL SUB SWAP1 DUP5 AND AND PUSH1 0x4 DUP4 ADD MSTORE PUSH1 0x24 DUP3 ADD SWAP4 SWAP1 SWAP4 MSTORE SWAP6 DUP7 SWAP3 SWAP1 SWAP2 AND SWAP1 DUP3 SWAP1 PUSH1 0x0 SWAP1 DUP3 SWAP1 PUSH1 0x44 DUP3 ADD SWAP1 JUMP JUMPDEST SUB SWAP3 GAS CALL SWAP3 DUP4 ISZERO PUSH2 0xFE2 JUMPI PUSH1 0xF SWAP4 PUSH2 0xFB5 JUMPI JUMPDEST POP DUP4 PUSH1 0x0 MSTORE PUSH1 0x5 DUP2 MSTORE PUSH1 0x40 PUSH1 0x0 KECCAK256 SWAP1 CALLER PUSH1 0x0 MSTORE MSTORE PUSH1 0x40 PUSH1 0x0 KECCAK256 PUSH1 0x1 PUSH1 0xFF NOT DUP3 SLOAD AND OR SWAP1 SSTORE ADD PUSH2 0xF8A DUP2 SLOAD PUSH2 0x1599 JUMP JUMPDEST SWAP1 SSTORE CALLER SWAP1 PUSH32 0x7DF22C96B281580CD377EAE9F79B72DDD9B187B24C4E08864EE83899C2B1D5A6 PUSH1 0x0 DUP1 LOG3 STOP JUMPDEST PUSH2 0xFD4 SWAP1 DUP3 RETURNDATASIZE DUP5 GT PUSH2 0xFDB JUMPI JUMPDEST PUSH2 0xFCC DUP2 DUP4 PUSH2 0x140D JUMP JUMPDEST DUP2 ADD SWAP1 PUSH2 0x1663 JUMP JUMPDEST POP DUP5 PUSH2 0xF5B JUMP JUMPDEST POP RETURNDATASIZE PUSH2 0xFC2 JUMP JUMPDEST PUSH1 0x40 MLOAD RETURNDATASIZE PUSH1 0x0 DUP3 RETURNDATACOPY RETURNDATASIZE SWAP1 REVERT JUMPDEST PUSH2 0x1004 SWAP1 DUP6 RETURNDATASIZE DUP8 GT PUSH2 0xFDB JUMPI PUSH2 0xFCC DUP2 DUP4 PUSH2 0x140D JUMP JUMPDEST POP DUP9 PUSH2 0xF0B JUMP JUMPDEST PUSH4 0x4E487B71 PUSH1 0xE0 SHL PUSH1 0x0 MSTORE PUSH1 0x11 PUSH1 0x4 MSTORE PUSH1 0x24 PUSH1 0x0 REVERT JUMPDEST PUSH1 0x40 MLOAD PUSH4 0x6992E1FF PUSH1 0xE0 SHL DUP2 MSTORE PUSH1 0x4 SWAP1 REVERT JUMPDEST PUSH2 0x104A SWAP2 POP DUP4 RETURNDATASIZE DUP6 GT PUSH2 0xFDB JUMPI PUSH2 0xFCC DUP2 DUP4 PUSH2 0x140D JUMP JUMPDEST DUP7 PUSH2 0xE8D JUMP JUMPDEST PUSH1 0x40 MLOAD PUSH4 0x2293BB1F PUSH1 0xE2 SHL DUP2 MSTORE PUSH1 0x4 SWAP1 REVERT JUMPDEST CALLVALUE PUSH2 0x168 JUMPI PUSH1 0x0 CALLDATASIZE PUSH1 0x3 NOT ADD SLT PUSH2 0x168 JUMPI PUSH1 0x20 PUSH1 0x6 SLOAD PUSH1 0x40 MLOAD SWAP1 DUP2 MSTORE RETURN JUMPDEST CALLVALUE PUSH2 0x168 JUMPI PUSH1 0x80 CALLDATASIZE PUSH1 0x3 NOT ADD SLT PUSH2 0x168 JUMPI PUSH1 0x1 PUSH1 0x1 PUSH1 0x40 SHL SUB PUSH1 0x4 CALLDATALOAD PUSH1 0x24 CALLDATALOAD DUP3 DUP2 GT PUSH2 0x168 JUMPI PUSH2 0x10B4 SWAP1 CALLDATASIZE SWAP1 PUSH1 0x4 ADD PUSH2 0x1514 JUMP JUMPDEST SWAP1 SWAP3 DUP3 PUSH1 0x0 MSTORE PUSH1 0x20 SWAP2 PUSH1 0x4 DUP4 MSTORE PUSH1 0x40 PUSH1 0x0 KECCAK256 SWAP2 PUSH1 0x1 DUP1 PUSH1 0xA0 SHL SUB PUSH1 0x2 DUP5 ADD SLOAD AND CALLER SUB PUSH2 0x638 JUMPI PUSH1 0x1 SWAP3 DUP4 DUP2 ADD SWAP2 DUP3 SLOAD PUSH2 0x121E JUMPI PUSH1 0x7 DUP3 ADD SWAP1 DUP5 GT PUSH2 0x5AD JUMPI PUSH2 0x1106 DUP5 PUSH2 0x1100 DUP4 SLOAD PUSH2 0x13B7 JUMP JUMPDEST DUP4 PUSH2 0x15EE JUMP JUMPDEST PUSH1 0x0 PUSH1 0x1F DUP6 GT PUSH1 0x1 EQ PUSH2 0x1192 JUMPI SWAP3 DUP5 SWAP3 DUP7 SWAP3 PUSH2 0x1182 SWAP7 PUSH32 0xE6EC111EAEBBB363DE7BE95E0F045E2155A53226C0C467B5B54FD5FDC2997597 SWAP11 SWAP12 SWAP7 PUSH1 0x0 SWAP2 PUSH2 0x1187 JUMPI JUMPDEST POP PUSH1 0x0 NOT PUSH1 0x3 DUP8 SWAP1 SHL SHR NOT AND DUP6 DUP6 SHL OR SWAP1 SSTORE JUMPDEST PUSH1 0x44 CALLDATALOAD PUSH1 0x8 DUP3 ADD SSTORE PUSH1 0x9 PUSH1 0x64 CALLDATALOAD SWAP2 ADD SSTORE SSTORE PUSH1 0x40 DUP1 MLOAD SWAP6 DUP7 SWAP6 DUP7 MSTORE DUP6 ADD MSTORE PUSH1 0x40 DUP5 ADD SWAP2 PUSH2 0x1642 JUMP JUMPDEST SUB SWAP1 LOG2 STOP JUMPDEST SWAP1 POP DUP7 ADD CALLDATALOAD DUP13 PUSH2 0x1148 JUMP JUMPDEST PUSH1 0x1F NOT DUP6 AND SWAP1 DUP3 PUSH1 0x0 MSTORE DUP8 PUSH1 0x0 KECCAK256 SWAP2 PUSH1 0x0 JUMPDEST DUP2 DUP2 LT PUSH2 0x1209 JUMPI POP SWAP3 PUSH32 0xE6EC111EAEBBB363DE7BE95E0F045E2155A53226C0C467B5B54FD5FDC2997597 SWAP10 SWAP11 SWAP6 SWAP3 DUP8 SWAP6 SWAP3 PUSH2 0x1182 SWAP9 DUP11 SWAP7 LT PUSH2 0x11EF JUMPI JUMPDEST POP POP DUP4 DUP6 DUP2 SHL ADD SWAP1 SSTORE PUSH2 0x115B JUMP JUMPDEST DUP8 ADD CALLDATALOAD PUSH1 0x0 NOT PUSH1 0x3 DUP9 SWAP1 SHL PUSH1 0xF8 AND SHR NOT AND SWAP1 SSTORE DUP12 DUP1 PUSH2 0x11E1 JUMP JUMPDEST DUP12 DUP4 ADD CALLDATALOAD DUP5 SSTORE SWAP3 DUP9 ADD SWAP3 SWAP2 DUP10 ADD SWAP2 DUP10 ADD PUSH2 0x11A4 JUMP JUMPDEST PUSH1 0x40 MLOAD PUSH4 0x1BCE28EB PUSH1 0xE1 SHL DUP2 MSTORE PUSH1 0x4 SWAP1 REVERT JUMPDEST CALLVALUE PUSH2 0x168 JUMPI PUSH1 0x20 CALLDATASIZE PUSH1 0x3 NOT ADD SLT PUSH2 0x168 JUMPI PUSH1 0x4 DUP1 CALLDATALOAD PUSH1 0x0 SWAP1 DUP2 MSTORE PUSH1 0x20 SWAP2 SWAP1 SWAP2 MSTORE PUSH1 0x40 SWAP1 KECCAK256 DUP1 SLOAD PUSH1 0x1 DUP3 ADD SLOAD PUSH1 0x2 DUP4 ADD SLOAD PUSH1 0x1 PUSH1 0x1 PUSH1 0xA0 SHL SUB AND SWAP3 SWAP1 PUSH2 0x1277 PUSH1 0x3 DUP4 ADD PUSH2 0x142E JUMP JUMPDEST SWAP4 PUSH2 0x1284 PUSH1 0x4 DUP5 ADD PUSH2 0x142E JUMP JUMPDEST PUSH1 0x5 DUP5 ADD SLOAD PUSH1 0x6 DUP6 ADD SLOAD PUSH1 0xFF AND PUSH2 0x129D PUSH1 0x7 DUP8 ADD PUSH2 0x142E JUMP JUMPDEST PUSH1 0x8 DUP8 ADD SLOAD SWAP3 PUSH1 0x9 DUP9 ADD SLOAD SWAP3 PUSH1 0xA DUP10 ADD PUSH2 0x12B6 SWAP1 PUSH2 0x142E JUMP JUMPDEST SWAP6 PUSH1 0xB DUP11 ADD SLOAD SWAP12 PUSH1 0xC DUP12 ADD SLOAD SWAP9 PUSH1 0xD DUP13 ADD SLOAD SWAP11 PUSH1 0xE DUP14 ADD SLOAD SWAP13 PUSH1 0xF ADD SLOAD SWAP14 PUSH1 0x40 MLOAD DUP1 PUSH1 0x80 MSTORE MSTORE PUSH1 0x80 MLOAD PUSH1 0x20 ADD MSTORE PUSH1 0x80 MLOAD PUSH1 0x40 ADD MSTORE PUSH2 0x200 DUP1 PUSH1 0x80 MLOAD PUSH1 0x60 ADD MSTORE PUSH1 0x80 MLOAD ADD PUSH2 0x1302 SWAP2 PUSH2 0x14D4 JUMP JUMPDEST PUSH1 0x80 MLOAD DUP1 DUP3 SUB SWAP1 PUSH1 0x80 ADD MSTORE PUSH2 0x1316 SWAP2 PUSH2 0x14D4 JUMP JUMPDEST SWAP2 PUSH1 0x80 MLOAD PUSH1 0xA0 ADD MSTORE ISZERO ISZERO PUSH1 0x80 MLOAD PUSH1 0xC0 ADD MSTORE PUSH1 0x80 MLOAD DUP1 DUP3 SUB SWAP1 PUSH1 0xE0 ADD MSTORE PUSH2 0x133B SWAP2 PUSH2 0x14D4 JUMP JUMPDEST SWAP2 PUSH1 0x80 MLOAD PUSH2 0x100 ADD MSTORE PUSH1 0x80 MLOAD PUSH2 0x120 ADD MSTORE PUSH1 0x80 MLOAD DUP1 DUP3 SUB SWAP1 PUSH2 0x140 ADD MSTORE PUSH2 0x1361 SWAP2 PUSH2 0x14D4 JUMP JUMPDEST SWAP5 PUSH1 0x80 MLOAD PUSH2 0x160 ADD MSTORE PUSH1 0x80 MLOAD PUSH2 0x180 ADD MSTORE PUSH1 0x80 MLOAD PUSH2 0x1A0 ADD MSTORE PUSH1 0x80 MLOAD PUSH2 0x1C0 ADD MSTORE PUSH1 0x80 MLOAD PUSH2 0x1E0 ADD MSTORE PUSH1 0x80 MLOAD DUP1 SWAP2 SUB SWAP1 RETURN JUMPDEST CALLVALUE PUSH2 0x168 JUMPI PUSH1 0x0 CALLDATASIZE PUSH1 0x3 NOT ADD SLT PUSH2 0x168 JUMPI PUSH1 0x1 SLOAD PUSH1 0x1 PUSH1 0x1 PUSH1 0xA0 SHL SUB AND DUP2 MSTORE PUSH1 0x20 SWAP1 RETURN JUMPDEST SWAP1 PUSH1 0x1 DUP3 DUP2 SHR SWAP3 AND DUP1 ISZERO PUSH2 0x13E7 JUMPI JUMPDEST PUSH1 0x20 DUP4 LT EQ PUSH2 0x13D1 JUMPI JUMP JUMPDEST PUSH4 0x4E487B71 PUSH1 0xE0 SHL PUSH1 0x0 MSTORE PUSH1 0x22 PUSH1 0x4 MSTORE PUSH1 0x24 PUSH1 0x0 REVERT JUMPDEST SWAP2 PUSH1 0x7F AND SWAP2 PUSH2 0x13C6 JUMP JUMPDEST PUSH2 0x200 DUP2 ADD SWAP1 DUP2 LT PUSH1 0x1 PUSH1 0x1 PUSH1 0x40 SHL SUB DUP3 GT OR PUSH2 0x5AD JUMPI PUSH1 0x40 MSTORE JUMP JUMPDEST SWAP1 PUSH1 0x1F DUP1 NOT SWAP2 ADD AND DUP2 ADD SWAP1 DUP2 LT PUSH1 0x1 PUSH1 0x1 PUSH1 0x40 SHL SUB DUP3 GT OR PUSH2 0x5AD JUMPI PUSH1 0x40 MSTORE JUMP JUMPDEST SWAP1 PUSH1 0x40 MLOAD SWAP2 DUP3 PUSH1 0x0 DUP3 SLOAD SWAP3 PUSH2 0x1442 DUP5 PUSH2 0x13B7 JUMP JUMPDEST SWAP1 DUP2 DUP5 MSTORE PUSH1 0x1 SWAP5 DUP6 DUP2 AND SWAP1 DUP2 PUSH1 0x0 EQ PUSH2 0x14B1 JUMPI POP PUSH1 0x1 EQ PUSH2 0x146E JUMPI JUMPDEST POP POP PUSH2 0x146C SWAP3 POP SUB DUP4 PUSH2 0x140D JUMP JUMPDEST JUMP JUMPDEST SWAP1 SWAP4 SWAP2 POP PUSH1 0x0 MSTORE PUSH1 0x20 SWAP1 DUP2 PUSH1 0x0 KECCAK256 SWAP4 PUSH1 0x0 SWAP2 JUMPDEST DUP2 DUP4 LT PUSH2 0x1499 JUMPI POP POP PUSH2 0x146C SWAP4 POP DUP3 ADD ADD CODESIZE DUP1 PUSH2 0x145E JUMP JUMPDEST DUP6 SLOAD DUP9 DUP5 ADD DUP6 ADD MSTORE SWAP5 DUP6 ADD SWAP5 DUP8 SWAP5 POP SWAP2 DUP4 ADD SWAP2 PUSH2 0x1481 JUMP JUMPDEST SWAP2 POP POP PUSH2 0x146C SWAP5 POP PUSH1 0x20 SWAP3 POP PUSH1 0xFF NOT AND DUP3 DUP5 ADD MSTORE ISZERO ISZERO PUSH1 0x5 SHL DUP3 ADD ADD CODESIZE DUP1 PUSH2 0x145E JUMP JUMPDEST SWAP2 SWAP1 DUP3 MLOAD SWAP3 DUP4 DUP3 MSTORE PUSH1 0x0 JUMPDEST DUP5 DUP2 LT PUSH2 0x1500 JUMPI POP POP DUP3 PUSH1 0x0 PUSH1 0x20 DUP1 SWAP5 SWAP6 DUP5 ADD ADD MSTORE PUSH1 0x1F DUP1 NOT SWAP2 ADD AND ADD ADD SWAP1 JUMP JUMPDEST PUSH1 0x20 DUP2 DUP4 ADD DUP2 ADD MLOAD DUP5 DUP4 ADD DUP3 ADD MSTORE ADD PUSH2 0x14DF JUMP JUMPDEST SWAP2 DUP2 PUSH1 0x1F DUP5 ADD SLT ISZERO PUSH2 0x168 JUMPI DUP3 CALLDATALOAD SWAP2 PUSH1 0x1 PUSH1 0x1 PUSH1 0x40 SHL SUB DUP4 GT PUSH2 0x168 JUMPI PUSH1 0x20 DUP4 DUP2 DUP7 ADD SWAP6 ADD ADD GT PUSH2 0x168 JUMPI JUMP JUMPDEST PUSH1 0x24 CALLDATALOAD SWAP1 PUSH1 0x1 PUSH1 0x1 PUSH1 0xA0 SHL SUB DUP3 AND DUP3 SUB PUSH2 0x168 JUMPI JUMP JUMPDEST PUSH1 0x4 CALLDATALOAD SWAP1 PUSH1 0x1 PUSH1 0x1 PUSH1 0xA0 SHL SUB DUP3 AND DUP3 SUB PUSH2 0x168 JUMPI JUMP JUMPDEST PUSH1 0x0 SLOAD PUSH1 0x1 PUSH1 0x1 PUSH1 0xA0 SHL SUB AND CALLER SUB PUSH2 0x1581 JUMPI JUMP JUMPDEST PUSH1 0x40 MLOAD PUSH4 0x118CDAA7 PUSH1 0xE0 SHL DUP2 MSTORE CALLER PUSH1 0x4 DUP3 ADD MSTORE PUSH1 0x24 SWAP1 REVERT JUMPDEST PUSH1 0x0 NOT DUP2 EQ PUSH2 0x100B JUMPI PUSH1 0x1 ADD SWAP1 JUMP JUMPDEST SWAP3 SWAP2 SWAP3 PUSH1 0x1 PUSH1 0x1 PUSH1 0x40 SHL SUB DUP3 GT PUSH2 0x5AD JUMPI PUSH1 0x40 MLOAD SWAP2 PUSH2 0x15D1 PUSH1 0x1F DUP3 ADD PUSH1 0x1F NOT AND PUSH1 0x20 ADD DUP5 PUSH2 0x140D JUMP JUMPDEST DUP3 SWAP5 DUP2 DUP5 MSTORE DUP2 DUP4 ADD GT PUSH2 0x168 JUMPI DUP3 DUP2 PUSH1 0x20 SWAP4 DUP5 PUSH1 0x0 SWAP7 ADD CALLDATACOPY ADD ADD MSTORE JUMP JUMPDEST SWAP1 PUSH1 0x1F DUP2 GT PUSH2 0x15FC JUMPI POP POP POP JUMP JUMPDEST PUSH1 0x0 SWAP2 DUP3 MSTORE PUSH1 0x20 DUP3 KECCAK256 SWAP1 PUSH1 0x20 PUSH1 0x1F DUP6 ADD PUSH1 0x5 SHR DUP4 ADD SWAP5 LT PUSH2 0x1638 JUMPI JUMPDEST PUSH1 0x1F ADD PUSH1 0x5 SHR ADD SWAP2 JUMPDEST DUP3 DUP2 LT PUSH2 0x162D JUMPI POP POP POP JUMP JUMPDEST DUP2 DUP2 SSTORE PUSH1 0x1 ADD PUSH2 0x1621 JUMP JUMPDEST SWAP1 SWAP3 POP DUP3 SWAP1 PUSH2 0x1618 JUMP JUMPDEST SWAP1 DUP1 PUSH1 0x20 SWAP4 SWAP3 DUP2 DUP5 MSTORE DUP5 DUP5 ADD CALLDATACOPY PUSH1 0x0 DUP3 DUP3 ADD DUP5 ADD MSTORE PUSH1 0x1F ADD PUSH1 0x1F NOT AND ADD ADD SWAP1 JUMP JUMPDEST SWAP1 DUP2 PUSH1 0x20 SWAP2 SUB SLT PUSH2 0x168 JUMPI MLOAD DUP1 ISZERO ISZERO DUP2 SUB PUSH2 0x168 JUMPI SWAP1 JUMP INVALID LOG2 PUSH5 0x6970667358 0x22 SLT KECCAK256 PUSH11 0x1A274CC3BA6077FA2AB05A JUMP LT 0xF7 KECCAK256 KECCAK256 0xA9 ADD SWAP13 0x23 SWAP1 0xCD 0xA9 PC SWAP14 DUP9 0xB4 0x2E 0xAB 0xC5 PUSH2 0x6473 PUSH16 0x6C634300081400330000000000000000 "},"methodIdentifiers":{"allowlist(uint256,address)":"87910cef","createDataset(string,string,uint256,bool,string,uint256,uint256,uint256,uint256)":"49fe92cb","datasets(uint256)":"1cff85e1","getDataset(uint256)":"ee004221","getDatasetCount()":"2f5201bd","hasAccess(uint256,address)":"ced14198","lockDataset(uint256,string,uint256,uint256)":"1d2ade8d","owner()":"8da5cb5b","protocolFeePercentage()":"8e50e509","purchaseDataset(uint256)":"49ee56f9","renounceOwnership()":"715018a6","setProtocolFeePercentage(uint256)":"d8a5e936","setTreasury(address)":"f0f44260","transferOwnership(address)":"f2fde38b","treasury()":"61d027b3","updateDataset(uint256,string,string,uint256)":"d9c63126","usdcToken()":"11eac855"}}}}}