{"src/FilethethicDatasetNFT.sol":{"FilethethicDatasetNFT":{"abi":[{"inputs":[{"internalType":"address","name":"_filethetic","type":"address"}],"stateMutability":"nonpayable","type":"constructor"},{"inputs":[],"name":"DatasetNFTAlreadyExists","type":"error"},{"inputs":[{"internalType":"address","name":"sender","type":"address"},{"internalType":"uint256","name":"tokenId","type":"uint256"},{"internalType":"address","name":"owner","type":"address"}],"name":"ERC721IncorrectOwner","type":"error"},{"inputs":[{"internalType":"address","name":"operator","type":"address"},{"internalType":"uint256","name":"tokenId","type":"uint256"}],"name":"ERC721InsufficientApproval","type":"error"},{"inputs":[{"internalType":"address","name":"approver","type":"address"}],"name":"ERC721InvalidApprover","type":"error"},{"inputs":[{"internalType":"address","name":"operator","type":"address"}],"name":"ERC721InvalidOperator","type":"error"},{"inputs":[{"internalType":"address","name":"owner","type":"address"}],"name":"ERC721InvalidOwner","type":"error"},{"inputs":[{"internalType":"address","name":"receiver","type":"address"}],"name":"ERC721InvalidReceiver","type":"error"},{"inputs":[{"internalType":"address","name":"sender","type":"address"}],"name":"ERC721InvalidSender","type":"error"},{"inputs":[{"internalType":"uint256","name":"tokenId","type":"uint256"}],"name":"ERC721NonexistentToken","type":"error"},{"inputs":[],"name":"OnlyFilethetic","type":"error"},{"inputs":[{"internalType":"address","name":"owner","type":"address"}],"name":"OwnableInvalidOwner","type":"error"},{"inputs":[{"internalType":"address","name":"account","type":"address"}],"name":"OwnableUnauthorizedAccount","type":"error"},{"anonymous":false,"inputs":[{"indexed":true,"internalType":"address","name":"owner","type":"address"},{"indexed":true,"internalType":"address","name":"approved","type":"address"},{"indexed":true,"internalType":"uint256","name":"tokenId","type":"uint256"}],"name":"Approval","type":"event"},{"anonymous":false,"inputs":[{"indexed":true,"internalType":"address","name":"owner","type":"address"},{"indexed":true,"internalType":"address","name":"operator","type":"address"},{"indexed":false,"internalType":"bool","name":"approved","type":"bool"}],"name":"ApprovalForAll","type":"event"},{"anonymous":false,"inputs":[{"indexed":false,"internalType":"uint256","name":"_fromTokenId","type":"uint256"},{"indexed":false,"internalType":"uint256","name":"_toTokenId","type":"uint256"}],"name":"BatchMetadataUpdate","type":"event"},{"anonymous":false,"inputs":[{"indexed":true,"internalType":"uint256","name":"tokenId","type":"uint256"},{"indexed":true,"internalType":"uint256","name":"datasetId","type":"uint256"},{"indexed":false,"internalType":"address","name":"owner","type":"address"}],"name":"DatasetNFTMinted","type":"event"},{"anonymous":false,"inputs":[{"indexed":false,"internalType":"uint256","name":"_tokenId","type":"uint256"}],"name":"MetadataUpdate","type":"event"},{"anonymous":false,"inputs":[{"indexed":true,"internalType":"address","name":"previousOwner","type":"address"},{"indexed":true,"internalType":"address","name":"newOwner","type":"address"}],"name":"OwnershipTransferred","type":"event"},{"anonymous":false,"inputs":[{"indexed":true,"internalType":"address","name":"from","type":"address"},{"indexed":true,"internalType":"address","name":"to","type":"address"},{"indexed":true,"internalType":"uint256","name":"tokenId","type":"uint256"}],"name":"Transfer","type":"event"},{"inputs":[{"internalType":"address","name":"to","type":"address"},{"internalType":"uint256","name":"tokenId","type":"uint256"}],"name":"approve","outputs":[],"stateMutability":"nonpayable","type":"function"},{"inputs":[{"internalType":"address","name":"owner","type":"address"}],"name":"balanceOf","outputs":[{"internalType":"uint256","name":"","type":"uint256"}],"stateMutability":"view","type":"function"},{"inputs":[{"internalType":"uint256","name":"","type":"uint256"}],"name":"datasetId","outputs":[{"internalType":"uint256","name":"","type":"uint256"}],"stateMutability":"view","type":"function"},{"inputs":[],"name":"filethetic","outputs":[{"internalType":"address","name":"","type":"address"}],"stateMutability":"view","type":"function"},{"inputs":[{"internalType":"uint256","name":"tokenId","type":"uint256"}],"name":"getApproved","outputs":[{"internalType":"address","name":"","type":"address"}],"stateMutability":"view","type":"function"},{"inputs":[{"internalType":"uint256","name":"tokenId","type":"uint256"}],"name":"getDatasetId","outputs":[{"internalType":"uint256","name":"","type":"uint256"}],"stateMutability":"view","type":"function"},{"inputs":[{"internalType":"address","name":"owner","type":"address"},{"internalType":"address","name":"operator","type":"address"}],"name":"isApprovedForAll","outputs":[{"internalType":"bool","name":"","type":"bool"}],"stateMutability":"view","type":"function"},{"inputs":[{"internalType":"address","name":"to","type":"address"},{"internalType":"uint256","name":"_datasetId","type":"uint256"},{"internalType":"string","name":"metadataURI","type":"string"}],"name":"mintDatasetNFT","outputs":[{"internalType":"uint256","name":"","type":"uint256"}],"stateMutability":"nonpayable","type":"function"},{"inputs":[],"name":"name","outputs":[{"internalType":"string","name":"","type":"string"}],"stateMutability":"view","type":"function"},{"inputs":[],"name":"owner","outputs":[{"internalType":"address","name":"","type":"address"}],"stateMutability":"view","type":"function"},{"inputs":[{"internalType":"uint256","name":"tokenId","type":"uint256"}],"name":"ownerOf","outputs":[{"internalType":"address","name":"","type":"address"}],"stateMutability":"view","type":"function"},{"inputs":[],"name":"renounceOwnership","outputs":[],"stateMutability":"nonpayable","type":"function"},{"inputs":[{"internalType":"address","name":"from","type":"address"},{"internalType":"address","name":"to","type":"address"},{"internalType":"uint256","name":"tokenId","type":"uint256"}],"name":"safeTransferFrom","outputs":[],"stateMutability":"nonpayable","type":"function"},{"inputs":[{"internalType":"address","name":"from","type":"address"},{"internalType":"address","name":"to","type":"address"},{"internalType":"uint256","name":"tokenId","type":"uint256"},{"internalType":"bytes","name":"data","type":"bytes"}],"name":"safeTransferFrom","outputs":[],"stateMutability":"nonpayable","type":"function"},{"inputs":[{"internalType":"address","name":"operator","type":"address"},{"internalType":"bool","name":"approved","type":"bool"}],"name":"setApprovalForAll","outputs":[],"stateMutability":"nonpayable","type":"function"},{"inputs":[{"internalType":"address","name":"_filethetic","type":"address"}],"name":"setFilethetic","outputs":[],"stateMutability":"nonpayable","type":"function"},{"inputs":[{"internalType":"bytes4","name":"interfaceId","type":"bytes4"}],"name":"supportsInterface","outputs":[{"internalType":"bool","name":"","type":"bool"}],"stateMutability":"view","type":"function"},{"inputs":[],"name":"symbol","outputs":[{"internalType":"string","name":"","type":"string"}],"stateMutability":"view","type":"function"},{"inputs":[{"internalType":"uint256","name":"tokenId","type":"uint256"}],"name":"tokenURI","outputs":[{"internalType":"string","name":"","type":"string"}],"stateMutability":"view","type":"function"},{"inputs":[{"internalType":"address","name":"from","type":"address"},{"internalType":"address","name":"to","type":"address"},{"internalType":"uint256","name":"tokenId","type":"uint256"}],"name":"transferFrom","outputs":[],"stateMutability":"nonpayable","type":"function"},{"inputs":[{"internalType":"address","name":"newOwner","type":"address"}],"name":"transferOwnership","outputs":[],"stateMutability":"nonpayable","type":"function"}],"evm":{"bytecode":{"linkReferences":{},"object":"608034620003c857601f906001600160401b0390601f19906200158f388190038581018416830185811184821017620003b257839282916040528339602092839181010312620003c857516001600160a01b03948582169491859003620003c8576200006a620003cd565b926012845271119a5b195d1a195d1a58c811185d185cd95d60721b8185015262000093620003cd565b906005825264119114d15560da1b81830152845195848711620003b2576000968754966001978881811c91168015620003a7575b85821014620003935790818784931162000340575b508490878311600114620002df578a92620002d3575b5050600019600383901b1c191690871b1787555b8251948511620002bf5785548681811c91168015620002b4575b83821014620002a05790818587969594931162000247575b5081938511600114620001e25750508592620001d6575b5050600019600383901b1c191690821b1790555b3315620001be5760075460018060a01b03199133838316176007557f8be0079c531659141344cd1fd0a4f28419497f9722a3daafe3b4186f6b6457e0604051953393169180a360085416176008556111a19081620003ee8239f35b60249060405190631e4fbdf760e01b82526004820152fd5b0151905038806200014f565b869593929193168588528388209388905b8282106200022d575050841162000213575b505050811b01905562000163565b015160001960f88460031b161c1916905538808062000205565b8484015186558897909501949384019390810190620001f3565b9091929394508688528288208580880160051c82019285891062000296575b9188978a9297969594930160051c01915b8281106200028757505062000138565b8a815588975089910162000277565b9250819262000266565b634e487b7160e01b88526022600452602488fd5b90607f169062000120565b634e487b7160e01b87526041600452602487fd5b015190503880620000f2565b90848a9416918b8052868c20928c5b888282106200032957505084116200030f575b505050811b01875562000106565b015160001960f88460031b161c1916905538808062000301565b8385015186558d97909501949384019301620002ee565b909150898052848a208780850160051c82019287861062000389575b918b91869594930160051c01915b8281106200037a575050620000dc565b8c81558594508b91016200036a565b925081926200035c565b634e487b7160e01b8a52602260045260248afd5b90607f1690620000c7565b634e487b7160e01b600052604160045260246000fd5b600080fd5b60408051919082016001600160401b03811183821017620003b25760405256fe6080604081815260048036101561001557600080fd5b600092833560e01c90816301ffc9a714610c095750806306fdde0314610b61578063081812fc14610b26578063095ea7b314610a4a57806323b872dd14610a3257806342842e0e14610a095780634659de1a14610685578063508e5408146109e05780636352211e146109af57806370a082311461095a578063715018a6146108fd5780637a5321f5146108bd5780638da5cb5b1461089457806395d89b41146107b1578063a22cb46514610714578063b88d4fde146106ac578063c14b197a14610685578063c87b56dd14610590578063ca25eebe146101e9578063e985e9c5146101975763f2fde38b1461010a57600080fd5b3461019357602036600319011261019357610123610ccf565b9061012c610ddc565b6001600160a01b0391821692831561017d575050600754826001600160601b0360a01b821617600755167f8be0079c531659141344cd1fd0a4f28419497f9722a3daafe3b4186f6b6457e08380a380f35b51631e4fbdf760e01b8152908101849052602490fd5b8280fd5b5050346101e557806003193601126101e55760ff816020936101b7610ccf565b6101bf610cea565b6001600160a01b0391821683526005875283832091168252855220549151911615158152f35b5080fd5b50823461058d57606036600319011261058d57610204610ccf565b926024938435906044359367ffffffffffffffff958686116101e557366023870112156101e55785810135968088116101935736898989010111610193576008546001600160a01b0399908a16330361057d578651976020998a8a019b888d52808816976001600160601b03199060601b168a8c01524260548c015260548b5260808b019c8d868d821091111761056b578d8b528b5190209a881561055757508b9c508a888d6002839f9c9d9e8f908c966003918852838552828820541693858515159889610525575b52528b2080546001908101909155848c529c528d8a2080546001600160a01b031916831790557fddf252ad1be2c89b69c2b068fc378daa952ba7f163c4a11628f55a4df523b3ef8a80a461050f579061032a9183369201610da5565b9089855260068b528885209382519384116104fe57505089938388938a936103548d999754610e08565b601f811161048d575b508790601f83116001146103f3577fad390c0000507bbb4034919532c3cc6677b2342bf2047fb6262845a12472ceda999a8392839287946103e8575b50501b916000199060031b1c19161790555b7ff8e1a15aba9398e019f0b49df1a4fde98ee17ae345cb5f6b5e2c27f5033e8ce7858351898152a18681526009855220558551908152a351908152f35b015192503880610399565b838552888520909a9291601f198316865b81811061045d57509b837fad390c0000507bbb4034919532c3cc6677b2342bf2047fb6262845a12472ceda9c9d10610444575b505050811b0190556103ab565b015160001960f88460031b161c191690558e8080610437565b95999b509296509498838c949850819c92878394015181550195019301938d9997938d96928d98949c9a96610404565b939750935093508094965085528a8520601f840160051c8101918c85106104f4575b938a938d97938a8e9a9894601f8e990160051c01915b8281106104d357505061035d565b939750939799509397509350868155019388938a938d97938a8e9a986104c5565b90915081906104af565b634e487b7160e01b86526041905284fd5b89516339e3563760e11b81528086018790528390fd5b600089815260046020526040902080546001600160a01b031916905586815283835284812080546000190190556102ce565b633250574960e11b8e52608401879052838dfd5b634e487b7160e01b8852604187528488fd5b865163751395b960e11b81528390fd5b80fd5b509034610193576020918260031936011261068157356105af81611130565b508352600682528083209281518094829080546105cb81610e08565b9182855260019188838216918260001461065a57505060011461061c575b5050506106189392916105fd910386610d67565b815161060881610d35565b5251928284938452830190610c8f565b0390f35b8552868520879350859291905b82841061064257505050820101816105fd6106186105e9565b8054848b018601528995508894909301928101610629565b60ff19168782015293151560051b860190930193508492506105fd915061061890506105e9565b8380fd5b50346101935760203660031901126101935760209282913581526009845220549051908152f35b8382346101e55760803660031901126101e5576106c7610ccf565b6106cf610cea565b9060643567ffffffffffffffff811161071057366023820112156107105761070d9381602461070393369301359101610da5565b9160443591610fe1565b80f35b8480fd5b50903461019357806003193601126101935761072e610ccf565b9060243591821515809303610710576001600160a01b031692831561079c5750338452600560205280842083855260205280842060ff1981541660ff8416179055519081527f17307eab39ab6107e8899845ad3d59bd9653f200f220920489ca2b5937696c3160203392a380f35b836024925191630b61174360e31b8352820152fd5b5050346101e557816003193601126101e5578051908260018054916107d583610e08565b8086529282811690811561086c5750600114610810575b5050506107fe82610618940383610d67565b51918291602083526020830190610c8f565b94508085527fb10e2d527612073b26eecdfd717e6a320cf44b4afac2b0732d9fcbe2b7fa0cf65b828610610854575050506107fe82602061061895820101946107ec565b80546020878701810191909152909501948101610837565b6106189750869350602092506107fe94915060ff191682840152151560051b820101946107ec565b5050346101e557816003193601126101e55760075490516001600160a01b039091168152602090f35b833461058d57602036600319011261058d576108d7610ccf565b6108df610ddc565b60018060a01b03166001600160601b0360a01b600854161760085580f35b833461058d578060031936011261058d57610916610ddc565b600780546001600160a01b0319811690915581906001600160a01b03167f8be0079c531659141344cd1fd0a4f28419497f9722a3daafe3b4186f6b6457e08280a380f35b50913461058d57602036600319011261058d576001600160a01b0361097d610ccf565b1692831561099a5750806020938392526003845220549051908152f35b91516322718ad960e21b815291820152602490fd5b50913461058d57602036600319011261058d57506109cf60209235611130565b90516001600160a01b039091168152f35b5050346101e557816003193601126101e55760085490516001600160a01b039091168152602090f35b5050346101e55761070d90610a1d36610d00565b91925192610a2a84610d35565b858452610fe1565b833461058d5761070d610a4436610d00565b91610e42565b509034610193578060031936011261019357610a64610ccf565b91602435610a7181611130565b33151580610b13575b80610aea575b610ad4576001600160a01b039485169482918691167f8c5be1e5ebec7d5bd14f71427d1e84f3dd0314c0f7b2291e5b200ac8c7c3b9258880a48452602052822080546001600160a01b031916909117905580f35b835163a9fbf51f60e01b81523381850152602490fd5b506001600160a01b03811686526005602090815284872033885290528386205460ff1615610a80565b506001600160a01b038116331415610a7a565b503461019357602036600319011261019357918260209335610b4781611130565b50825283528190205490516001600160a01b039091168152f35b5050346101e557816003193601126101e557805190828054610b8281610e08565b8085529160019180831690811561086c5750600114610bad575050506107fe82610618940383610d67565b80809650527f290decd9548b62a8d60345a988386fc84ba6bc95484008f6362f93160ef3e5635b828610610bf1575050506107fe82602061061895820101946107ec565b80546020878701810191909152909501948101610bd4565b92505034610193576020366003190112610193573563ffffffff60e01b81168091036101935760209250632483248360e11b8114908115610c4c575b5015158152f35b6380ac58cd60e01b811491508115610c7e575b8115610c6d575b5038610c45565b6301ffc9a760e01b14905038610c66565b635b5e139f60e01b81149150610c5f565b919082519283825260005b848110610cbb575050826000602080949584010152601f8019910116010190565b602081830181015184830182015201610c9a565b600435906001600160a01b0382168203610ce557565b600080fd5b602435906001600160a01b0382168203610ce557565b6060906003190112610ce5576001600160a01b03906004358281168103610ce557916024359081168103610ce5579060443590565b6020810190811067ffffffffffffffff821117610d5157604052565b634e487b7160e01b600052604160045260246000fd5b90601f8019910116810190811067ffffffffffffffff821117610d5157604052565b67ffffffffffffffff8111610d5157601f01601f191660200190565b929192610db182610d89565b91610dbf6040519384610d67565b829481845281830111610ce5578281602093846000960137010152565b6007546001600160a01b03163303610df057565b60405163118cdaa760e01b8152336004820152602490fd5b90600182811c92168015610e38575b6020831014610e2257565b634e487b7160e01b600052602260045260246000fd5b91607f1691610e17565b6001600160a01b039182169290918315610fc857600092828452826020956002875260409684888820541696879133151580610f32575b509060027fddf252ad1be2c89b69c2b068fc378daa952ba7f163c4a11628f55a4df523b3ef9284610eff575b858352600381528b8320805460010190558683525289812080546001600160a01b0319168517905580a41692838303610ede5750505050565b6064945051926364283d7b60e01b8452600484015260248301526044820152fd5b600087815260046020526040902080546001600160a01b0319169055848352600381528b83208054600019019055610ea5565b91939450915080610f87575b15610f4e57859291879138610e79565b878688610f6b576024915190637e27328960e01b82526004820152fd5b604491519063177e802f60e01b82523360048301526024820152fd5b503387148015610fac575b80610f3e5750858252600481523385898420541614610f3e565b5086825260058152878220338352815260ff8883205416610f92565b604051633250574960e11b815260006004820152602490fd5b610fec838383610e42565b813b610ff9575b50505050565b604051630a85bd0160e11b8082523360048301526001600160a01b03928316602483015260448201949094526080606482015260209592909116939092908390611047906084830190610c8f565b039285816000958187895af18491816110f0575b506110bb575050503d6000146110b3573d61107581610d89565b906110836040519283610d67565b81528091843d92013e5b805192836110ae57604051633250574960e11b815260048101849052602490fd5b019050fd5b50606061108d565b919450915063ffffffff60e01b16036110d8575038808080610ff3565b60249060405190633250574960e11b82526004820152fd5b9091508681813d8311611129575b6111088183610d67565b8101031261071057516001600160e01b03198116810361071057903861105b565b503d6110fe565b6000818152600260205260409020546001600160a01b0316908115611153575090565b60249060405190637e27328960e01b82526004820152fdfea26469706673582212205d15be4191c03782f41ab5a5f0c54b0631c1a37a632108ea176cf2e39aa943be64736f6c63430008140033","opcodes":"PUSH1 0x80 CALLVALUE PUSH3 0x3C8 JUMPI PUSH1 0x1F SWAP1 PUSH1 0x1 PUSH1 0x1 PUSH1 0x40 SHL SUB SWAP1 PUSH1 0x1F NOT SWAP1 PUSH3 0x158F CODESIZE DUP2 SWAP1 SUB DUP6 DUP2 ADD DUP5 AND DUP4 ADD DUP6 DUP2 GT DUP5 DUP3 LT OR PUSH3 0x3B2 JUMPI DUP4 SWAP3 DUP3 SWAP2 PUSH1 0x40 MSTORE DUP4 CODECOPY PUSH1 0x20 SWAP3 DUP4 SWAP2 DUP2 ADD SUB SLT PUSH3 0x3C8 JUMPI MLOAD PUSH1 0x1 PUSH1 0x1 PUSH1 0xA0 SHL SUB SWAP5 DUP6 DUP3 AND SWAP5 SWAP2 DUP6 SWAP1 SUB PUSH3 0x3C8 JUMPI PUSH3 0x6A PUSH3 0x3CD JUMP JUMPDEST SWAP3 PUSH1 0x12 DUP5 MSTORE PUSH18 0x119A5B195D1A195D1A58C811185D185CD95D PUSH1 0x72 SHL DUP2 DUP6 ADD MSTORE PUSH3 0x93 PUSH3 0x3CD JUMP JUMPDEST SWAP1 PUSH1 0x5 DUP3 MSTORE PUSH5 0x119114D155 PUSH1 0xDA SHL DUP2 DUP4 ADD MSTORE DUP5 MLOAD SWAP6 DUP5 DUP8 GT PUSH3 0x3B2 JUMPI PUSH1 0x0 SWAP7 DUP8 SLOAD SWAP7 PUSH1 0x1 SWAP8 DUP9 DUP2 DUP2 SHR SWAP2 AND DUP1 ISZERO PUSH3 0x3A7 JUMPI JUMPDEST DUP6 DUP3 LT EQ PUSH3 0x393 JUMPI SWAP1 DUP2 DUP8 DUP5 SWAP4 GT PUSH3 0x340 JUMPI JUMPDEST POP DUP5 SWAP1 DUP8 DUP4 GT PUSH1 0x1 EQ PUSH3 0x2DF JUMPI DUP11 SWAP3 PUSH3 0x2D3 JUMPI JUMPDEST POP POP PUSH1 0x0 NOT PUSH1 0x3 DUP4 SWAP1 SHL SHR NOT AND SWAP1 DUP8 SHL OR DUP8 SSTORE JUMPDEST DUP3 MLOAD SWAP5 DUP6 GT PUSH3 0x2BF JUMPI DUP6 SLOAD DUP7 DUP2 DUP2 SHR SWAP2 AND DUP1 ISZERO PUSH3 0x2B4 JUMPI JUMPDEST DUP4 DUP3 LT EQ PUSH3 0x2A0 JUMPI SWAP1 DUP2 DUP6 DUP8 SWAP7 SWAP6 SWAP5 SWAP4 GT PUSH3 0x247 JUMPI JUMPDEST POP DUP2 SWAP4 DUP6 GT PUSH1 0x1 EQ PUSH3 0x1E2 JUMPI POP POP DUP6 SWAP3 PUSH3 0x1D6 JUMPI JUMPDEST POP POP PUSH1 0x0 NOT PUSH1 0x3 DUP4 SWAP1 SHL SHR NOT AND SWAP1 DUP3 SHL OR SWAP1 SSTORE JUMPDEST CALLER ISZERO PUSH3 0x1BE JUMPI PUSH1 0x7 SLOAD PUSH1 0x1 DUP1 PUSH1 0xA0 SHL SUB NOT SWAP2 CALLER DUP4 DUP4 AND OR PUSH1 0x7 SSTORE PUSH32 0x8BE0079C531659141344CD1FD0A4F28419497F9722A3DAAFE3B4186F6B6457E0 PUSH1 0x40 MLOAD SWAP6 CALLER SWAP4 AND SWAP2 DUP1 LOG3 PUSH1 0x8 SLOAD AND OR PUSH1 0x8 SSTORE PUSH2 0x11A1 SWAP1 DUP2 PUSH3 0x3EE DUP3 CODECOPY RETURN JUMPDEST PUSH1 0x24 SWAP1 PUSH1 0x40 MLOAD SWAP1 PUSH4 0x1E4FBDF7 PUSH1 0xE0 SHL DUP3 MSTORE PUSH1 0x4 DUP3 ADD MSTORE REVERT JUMPDEST ADD MLOAD SWAP1 POP CODESIZE DUP1 PUSH3 0x14F JUMP JUMPDEST DUP7 SWAP6 SWAP4 SWAP3 SWAP2 SWAP4 AND DUP6 DUP9 MSTORE DUP4 DUP9 KECCAK256 SWAP4 DUP9 SWAP1 JUMPDEST DUP3 DUP3 LT PUSH3 0x22D JUMPI POP POP DUP5 GT PUSH3 0x213 JUMPI JUMPDEST POP POP POP DUP2 SHL ADD SWAP1 SSTORE PUSH3 0x163 JUMP JUMPDEST ADD MLOAD PUSH1 0x0 NOT PUSH1 0xF8 DUP5 PUSH1 0x3 SHL AND SHR NOT AND SWAP1 SSTORE CODESIZE DUP1 DUP1 PUSH3 0x205 JUMP JUMPDEST DUP5 DUP5 ADD MLOAD DUP7 SSTORE DUP9 SWAP8 SWAP1 SWAP6 ADD SWAP5 SWAP4 DUP5 ADD SWAP4 SWAP1 DUP2 ADD SWAP1 PUSH3 0x1F3 JUMP JUMPDEST SWAP1 SWAP2 SWAP3 SWAP4 SWAP5 POP DUP7 DUP9 MSTORE DUP3 DUP9 KECCAK256 DUP6 DUP1 DUP9 ADD PUSH1 0x5 SHR DUP3 ADD SWAP3 DUP6 DUP10 LT PUSH3 0x296 JUMPI JUMPDEST SWAP2 DUP9 SWAP8 DUP11 SWAP3 SWAP8 SWAP7 SWAP6 SWAP5 SWAP4 ADD PUSH1 0x5 SHR ADD SWAP2 JUMPDEST DUP3 DUP2 LT PUSH3 0x287 JUMPI POP POP PUSH3 0x138 JUMP JUMPDEST DUP11 DUP2 SSTORE DUP9 SWAP8 POP DUP10 SWAP2 ADD PUSH3 0x277 JUMP JUMPDEST SWAP3 POP DUP2 SWAP3 PUSH3 0x266 JUMP JUMPDEST PUSH4 0x4E487B71 PUSH1 0xE0 SHL DUP9 MSTORE PUSH1 0x22 PUSH1 0x4 MSTORE PUSH1 0x24 DUP9 REVERT JUMPDEST SWAP1 PUSH1 0x7F AND SWAP1 PUSH3 0x120 JUMP JUMPDEST PUSH4 0x4E487B71 PUSH1 0xE0 SHL DUP8 MSTORE PUSH1 0x41 PUSH1 0x4 MSTORE PUSH1 0x24 DUP8 REVERT JUMPDEST ADD MLOAD SWAP1 POP CODESIZE DUP1 PUSH3 0xF2 JUMP JUMPDEST SWAP1 DUP5 DUP11 SWAP5 AND SWAP2 DUP12 DUP1 MSTORE DUP7 DUP13 KECCAK256 SWAP3 DUP13 JUMPDEST DUP9 DUP3 DUP3 LT PUSH3 0x329 JUMPI POP POP DUP5 GT PUSH3 0x30F JUMPI JUMPDEST POP POP POP DUP2 SHL ADD DUP8 SSTORE PUSH3 0x106 JUMP JUMPDEST ADD MLOAD PUSH1 0x0 NOT PUSH1 0xF8 DUP5 PUSH1 0x3 SHL AND SHR NOT AND SWAP1 SSTORE CODESIZE DUP1 DUP1 PUSH3 0x301 JUMP JUMPDEST DUP4 DUP6 ADD MLOAD DUP7 SSTORE DUP14 SWAP8 SWAP1 SWAP6 ADD SWAP5 SWAP4 DUP5 ADD SWAP4 ADD PUSH3 0x2EE JUMP JUMPDEST SWAP1 SWAP2 POP DUP10 DUP1 MSTORE DUP5 DUP11 KECCAK256 DUP8 DUP1 DUP6 ADD PUSH1 0x5 SHR DUP3 ADD SWAP3 DUP8 DUP7 LT PUSH3 0x389 JUMPI JUMPDEST SWAP2 DUP12 SWAP2 DUP7 SWAP6 SWAP5 SWAP4 ADD PUSH1 0x5 SHR ADD SWAP2 JUMPDEST DUP3 DUP2 LT PUSH3 0x37A JUMPI POP POP PUSH3 0xDC JUMP JUMPDEST DUP13 DUP2 SSTORE DUP6 SWAP5 POP DUP12 SWAP2 ADD PUSH3 0x36A JUMP JUMPDEST SWAP3 POP DUP2 SWAP3 PUSH3 0x35C JUMP JUMPDEST PUSH4 0x4E487B71 PUSH1 0xE0 SHL DUP11 MSTORE PUSH1 0x22 PUSH1 0x4 MSTORE PUSH1 0x24 DUP11 REVERT JUMPDEST SWAP1 PUSH1 0x7F AND SWAP1 PUSH3 0xC7 JUMP JUMPDEST PUSH4 0x4E487B71 PUSH1 0xE0 SHL PUSH1 0x0 MSTORE PUSH1 0x41 PUSH1 0x4 MSTORE PUSH1 0x24 PUSH1 0x0 REVERT JUMPDEST PUSH1 0x0 DUP1 REVERT JUMPDEST PUSH1 0x40 DUP1 MLOAD SWAP2 SWAP1 DUP3 ADD PUSH1 0x1 PUSH1 0x1 PUSH1 0x40 SHL SUB DUP2 GT DUP4 DUP3 LT OR PUSH3 0x3B2 JUMPI PUSH1 0x40 MSTORE JUMP INVALID PUSH1 0x80 PUSH1 0x40 DUP2 DUP2 MSTORE PUSH1 0x4 DUP1 CALLDATASIZE LT ISZERO PUSH2 0x15 JUMPI PUSH1 0x0 DUP1 REVERT JUMPDEST PUSH1 0x0 SWAP3 DUP4 CALLDATALOAD PUSH1 0xE0 SHR SWAP1 DUP2 PUSH4 0x1FFC9A7 EQ PUSH2 0xC09 JUMPI POP DUP1 PUSH4 0x6FDDE03 EQ PUSH2 0xB61 JUMPI DUP1 PUSH4 0x81812FC EQ PUSH2 0xB26 JUMPI DUP1 PUSH4 0x95EA7B3 EQ PUSH2 0xA4A JUMPI DUP1 PUSH4 0x23B872DD EQ PUSH2 0xA32 JUMPI DUP1 PUSH4 0x42842E0E EQ PUSH2 0xA09 JUMPI DUP1 PUSH4 0x4659DE1A EQ PUSH2 0x685 JUMPI DUP1 PUSH4 0x508E5408 EQ PUSH2 0x9E0 JUMPI DUP1 PUSH4 0x6352211E EQ PUSH2 0x9AF JUMPI DUP1 PUSH4 0x70A08231 EQ PUSH2 0x95A JUMPI DUP1 PUSH4 0x715018A6 EQ PUSH2 0x8FD JUMPI DUP1 PUSH4 0x7A5321F5 EQ PUSH2 0x8BD JUMPI DUP1 PUSH4 0x8DA5CB5B EQ PUSH2 0x894 JUMPI DUP1 PUSH4 0x95D89B41 EQ PUSH2 0x7B1 JUMPI DUP1 PUSH4 0xA22CB465 EQ PUSH2 0x714 JUMPI DUP1 PUSH4 0xB88D4FDE EQ PUSH2 0x6AC JUMPI DUP1 PUSH4 0xC14B197A EQ PUSH2 0x685 JUMPI DUP1 PUSH4 0xC87B56DD EQ PUSH2 0x590 JUMPI DUP1 PUSH4 0xCA25EEBE EQ PUSH2 0x1E9 JUMPI DUP1 PUSH4 0xE985E9C5 EQ PUSH2 0x197 JUMPI PUSH4 0xF2FDE38B EQ PUSH2 0x10A JUMPI PUSH1 0x0 DUP1 REVERT JUMPDEST CALLVALUE PUSH2 0x193 JUMPI PUSH1 0x20 CALLDATASIZE PUSH1 0x3 NOT ADD SLT PUSH2 0x193 JUMPI PUSH2 0x123 PUSH2 0xCCF JUMP JUMPDEST SWAP1 PUSH2 0x12C PUSH2 0xDDC JUMP JUMPDEST PUSH1 0x1 PUSH1 0x1 PUSH1 0xA0 SHL SUB SWAP2 DUP3 AND SWAP3 DUP4 ISZERO PUSH2 0x17D JUMPI POP POP PUSH1 0x7 SLOAD DUP3 PUSH1 0x1 PUSH1 0x1 PUSH1 0x60 SHL SUB PUSH1 0xA0 SHL DUP3 AND OR PUSH1 0x7 SSTORE AND PUSH32 0x8BE0079C531659141344CD1FD0A4F28419497F9722A3DAAFE3B4186F6B6457E0 DUP4 DUP1 LOG3 DUP1 RETURN JUMPDEST MLOAD PUSH4 0x1E4FBDF7 PUSH1 0xE0 SHL DUP2 MSTORE SWAP1 DUP2 ADD DUP5 SWAP1 MSTORE PUSH1 0x24 SWAP1 REVERT JUMPDEST DUP3 DUP1 REVERT JUMPDEST POP POP CALLVALUE PUSH2 0x1E5 JUMPI DUP1 PUSH1 0x3 NOT CALLDATASIZE ADD SLT PUSH2 0x1E5 JUMPI PUSH1 0xFF DUP2 PUSH1 0x20 SWAP4 PUSH2 0x1B7 PUSH2 0xCCF JUMP JUMPDEST PUSH2 0x1BF PUSH2 0xCEA JUMP JUMPDEST PUSH1 0x1 PUSH1 0x1 PUSH1 0xA0 SHL SUB SWAP2 DUP3 AND DUP4 MSTORE PUSH1 0x5 DUP8 MSTORE DUP4 DUP4 KECCAK256 SWAP2 AND DUP3 MSTORE DUP6 MSTORE KECCAK256 SLOAD SWAP2 MLOAD SWAP2 AND ISZERO ISZERO DUP2 MSTORE RETURN JUMPDEST POP DUP1 REVERT JUMPDEST POP DUP3 CALLVALUE PUSH2 0x58D JUMPI PUSH1 0x60 CALLDATASIZE PUSH1 0x3 NOT ADD SLT PUSH2 0x58D JUMPI PUSH2 0x204 PUSH2 0xCCF JUMP JUMPDEST SWAP3 PUSH1 0x24 SWAP4 DUP5 CALLDATALOAD SWAP1 PUSH1 0x44 CALLDATALOAD SWAP4 PUSH8 0xFFFFFFFFFFFFFFFF SWAP6 DUP7 DUP7 GT PUSH2 0x1E5 JUMPI CALLDATASIZE PUSH1 0x23 DUP8 ADD SLT ISZERO PUSH2 0x1E5 JUMPI DUP6 DUP2 ADD CALLDATALOAD SWAP7 DUP1 DUP9 GT PUSH2 0x193 JUMPI CALLDATASIZE DUP10 DUP10 DUP10 ADD ADD GT PUSH2 0x193 JUMPI PUSH1 0x8 SLOAD PUSH1 0x1 PUSH1 0x1 PUSH1 0xA0 SHL SUB SWAP10 SWAP1 DUP11 AND CALLER SUB PUSH2 0x57D JUMPI DUP7 MLOAD SWAP8 PUSH1 0x20 SWAP10 DUP11 DUP11 ADD SWAP12 DUP9 DUP14 MSTORE DUP1 DUP9 AND SWAP8 PUSH1 0x1 PUSH1 0x1 PUSH1 0x60 SHL SUB NOT SWAP1 PUSH1 0x60 SHL AND DUP11 DUP13 ADD MSTORE TIMESTAMP PUSH1 0x54 DUP13 ADD MSTORE PUSH1 0x54 DUP12 MSTORE PUSH1 0x80 DUP12 ADD SWAP13 DUP14 DUP7 DUP14 DUP3 LT SWAP2 GT OR PUSH2 0x56B JUMPI DUP14 DUP12 MSTORE DUP12 MLOAD SWAP1 KECCAK256 SWAP11 DUP9 ISZERO PUSH2 0x557 JUMPI POP DUP12 SWAP13 POP DUP11 DUP9 DUP14 PUSH1 0x2 DUP4 SWAP16 SWAP13 SWAP14 SWAP15 DUP16 SWAP1 DUP13 SWAP7 PUSH1 0x3 SWAP2 DUP9 MSTORE DUP4 DUP6 MSTORE DUP3 DUP9 KECCAK256 SLOAD AND SWAP4 DUP6 DUP6 ISZERO ISZERO SWAP9 DUP10 PUSH2 0x525 JUMPI JUMPDEST MSTORE MSTORE DUP12 KECCAK256 DUP1 SLOAD PUSH1 0x1 SWAP1 DUP2 ADD SWAP1 SWAP2 SSTORE DUP5 DUP13 MSTORE SWAP13 MSTORE DUP14 DUP11 KECCAK256 DUP1 SLOAD PUSH1 0x1 PUSH1 0x1 PUSH1 0xA0 SHL SUB NOT AND DUP4 OR SWAP1 SSTORE PUSH32 0xDDF252AD1BE2C89B69C2B068FC378DAA952BA7F163C4A11628F55A4DF523B3EF DUP11 DUP1 LOG4 PUSH2 0x50F JUMPI SWAP1 PUSH2 0x32A SWAP2 DUP4 CALLDATASIZE SWAP3 ADD PUSH2 0xDA5 JUMP JUMPDEST SWAP1 DUP10 DUP6 MSTORE PUSH1 0x6 DUP12 MSTORE DUP9 DUP6 KECCAK256 SWAP4 DUP3 MLOAD SWAP4 DUP5 GT PUSH2 0x4FE JUMPI POP POP DUP10 SWAP4 DUP4 DUP9 SWAP4 DUP11 SWAP4 PUSH2 0x354 DUP14 SWAP10 SWAP8 SLOAD PUSH2 0xE08 JUMP JUMPDEST PUSH1 0x1F DUP2 GT PUSH2 0x48D JUMPI JUMPDEST POP DUP8 SWAP1 PUSH1 0x1F DUP4 GT PUSH1 0x1 EQ PUSH2 0x3F3 JUMPI PUSH32 0xAD390C0000507BBB4034919532C3CC6677B2342BF2047FB6262845A12472CEDA SWAP10 SWAP11 DUP4 SWAP3 DUP4 SWAP3 DUP8 SWAP5 PUSH2 0x3E8 JUMPI JUMPDEST POP POP SHL SWAP2 PUSH1 0x0 NOT SWAP1 PUSH1 0x3 SHL SHR NOT AND OR SWAP1 SSTORE JUMPDEST PUSH32 0xF8E1A15ABA9398E019F0B49DF1A4FDE98EE17AE345CB5F6B5E2C27F5033E8CE7 DUP6 DUP4 MLOAD DUP10 DUP2 MSTORE LOG1 DUP7 DUP2 MSTORE PUSH1 0x9 DUP6 MSTORE KECCAK256 SSTORE DUP6 MLOAD SWAP1 DUP2 MSTORE LOG3 MLOAD SWAP1 DUP2 MSTORE RETURN JUMPDEST ADD MLOAD SWAP3 POP CODESIZE DUP1 PUSH2 0x399 JUMP JUMPDEST DUP4 DUP6 MSTORE DUP9 DUP6 KECCAK256 SWAP1 SWAP11 SWAP3 SWAP2 PUSH1 0x1F NOT DUP4 AND DUP7 JUMPDEST DUP2 DUP2 LT PUSH2 0x45D JUMPI POP SWAP12 DUP4 PUSH32 0xAD390C0000507BBB4034919532C3CC6677B2342BF2047FB6262845A12472CEDA SWAP13 SWAP14 LT PUSH2 0x444 JUMPI JUMPDEST POP POP POP DUP2 SHL ADD SWAP1 SSTORE PUSH2 0x3AB JUMP JUMPDEST ADD MLOAD PUSH1 0x0 NOT PUSH1 0xF8 DUP5 PUSH1 0x3 SHL AND SHR NOT AND SWAP1 SSTORE DUP15 DUP1 DUP1 PUSH2 0x437 JUMP JUMPDEST SWAP6 SWAP10 SWAP12 POP SWAP3 SWAP7 POP SWAP5 SWAP9 DUP4 DUP13 SWAP5 SWAP9 POP DUP2 SWAP13 SWAP3 DUP8 DUP4 SWAP5 ADD MLOAD DUP2 SSTORE ADD SWAP6 ADD SWAP4 ADD SWAP4 DUP14 SWAP10 SWAP8 SWAP4 DUP14 SWAP7 SWAP3 DUP14 SWAP9 SWAP5 SWAP13 SWAP11 SWAP7 PUSH2 0x404 JUMP JUMPDEST SWAP4 SWAP8 POP SWAP4 POP SWAP4 POP DUP1 SWAP5 SWAP7 POP DUP6 MSTORE DUP11 DUP6 KECCAK256 PUSH1 0x1F DUP5 ADD PUSH1 0x5 SHR DUP2 ADD SWAP2 DUP13 DUP6 LT PUSH2 0x4F4 JUMPI JUMPDEST SWAP4 DUP11 SWAP4 DUP14 SWAP8 SWAP4 DUP11 DUP15 SWAP11 SWAP9 SWAP5 PUSH1 0x1F DUP15 SWAP10 ADD PUSH1 0x5 SHR ADD SWAP2 JUMPDEST DUP3 DUP2 LT PUSH2 0x4D3 JUMPI POP POP PUSH2 0x35D JUMP JUMPDEST SWAP4 SWAP8 POP SWAP4 SWAP8 SWAP10 POP SWAP4 SWAP8 POP SWAP4 POP DUP7 DUP2 SSTORE ADD SWAP4 DUP9 SWAP4 DUP11 SWAP4 DUP14 SWAP8 SWAP4 DUP11 DUP15 SWAP11 SWAP9 PUSH2 0x4C5 JUMP JUMPDEST SWAP1 SWAP2 POP DUP2 SWAP1 PUSH2 0x4AF JUMP JUMPDEST PUSH4 0x4E487B71 PUSH1 0xE0 SHL DUP7 MSTORE PUSH1 0x41 SWAP1 MSTORE DUP5 REVERT JUMPDEST DUP10 MLOAD PUSH4 0x39E35637 PUSH1 0xE1 SHL DUP2 MSTORE DUP1 DUP7 ADD DUP8 SWAP1 MSTORE DUP4 SWAP1 REVERT JUMPDEST PUSH1 0x0 DUP10 DUP2 MSTORE PUSH1 0x4 PUSH1 0x20 MSTORE PUSH1 0x40 SWAP1 KECCAK256 DUP1 SLOAD PUSH1 0x1 PUSH1 0x1 PUSH1 0xA0 SHL SUB NOT AND SWAP1 SSTORE DUP7 DUP2 MSTORE DUP4 DUP4 MSTORE DUP5 DUP2 KECCAK256 DUP1 SLOAD PUSH1 0x0 NOT ADD SWAP1 SSTORE PUSH2 0x2CE JUMP JUMPDEST PUSH4 0x32505749 PUSH1 0xE1 SHL DUP15 MSTORE PUSH1 0x84 ADD DUP8 SWAP1 MSTORE DUP4 DUP14 REVERT JUMPDEST PUSH4 0x4E487B71 PUSH1 0xE0 SHL DUP9 MSTORE PUSH1 0x41 DUP8 MSTORE DUP5 DUP9 REVERT JUMPDEST DUP7 MLOAD PUSH4 0x751395B9 PUSH1 0xE1 SHL DUP2 MSTORE DUP4 SWAP1 REVERT JUMPDEST DUP1 REVERT JUMPDEST POP SWAP1 CALLVALUE PUSH2 0x193 JUMPI PUSH1 0x20 SWAP2 DUP3 PUSH1 0x3 NOT CALLDATASIZE ADD SLT PUSH2 0x681 JUMPI CALLDATALOAD PUSH2 0x5AF DUP2 PUSH2 0x1130 JUMP JUMPDEST POP DUP4 MSTORE PUSH1 0x6 DUP3 MSTORE DUP1 DUP4 KECCAK256 SWAP3 DUP2 MLOAD DUP1 SWAP5 DUP3 SWAP1 DUP1 SLOAD PUSH2 0x5CB DUP2 PUSH2 0xE08 JUMP JUMPDEST SWAP2 DUP3 DUP6 MSTORE PUSH1 0x1 SWAP2 DUP9 DUP4 DUP3 AND SWAP2 DUP3 PUSH1 0x0 EQ PUSH2 0x65A JUMPI POP POP PUSH1 0x1 EQ PUSH2 0x61C JUMPI JUMPDEST POP POP POP PUSH2 0x618 SWAP4 SWAP3 SWAP2 PUSH2 0x5FD SWAP2 SUB DUP7 PUSH2 0xD67 JUMP JUMPDEST DUP2 MLOAD PUSH2 0x608 DUP2 PUSH2 0xD35 JUMP JUMPDEST MSTORE MLOAD SWAP3 DUP3 DUP5 SWAP4 DUP5 MSTORE DUP4 ADD SWAP1 PUSH2 0xC8F JUMP JUMPDEST SUB SWAP1 RETURN JUMPDEST DUP6 MSTORE DUP7 DUP6 KECCAK256 DUP8 SWAP4 POP DUP6 SWAP3 SWAP2 SWAP1 JUMPDEST DUP3 DUP5 LT PUSH2 0x642 JUMPI POP POP POP DUP3 ADD ADD DUP2 PUSH2 0x5FD PUSH2 0x618 PUSH2 0x5E9 JUMP JUMPDEST DUP1 SLOAD DUP5 DUP12 ADD DUP7 ADD MSTORE DUP10 SWAP6 POP DUP9 SWAP5 SWAP1 SWAP4 ADD SWAP3 DUP2 ADD PUSH2 0x629 JUMP JUMPDEST PUSH1 0xFF NOT AND DUP8 DUP3 ADD MSTORE SWAP4 ISZERO ISZERO PUSH1 0x5 SHL DUP7 ADD SWAP1 SWAP4 ADD SWAP4 POP DUP5 SWAP3 POP PUSH2 0x5FD SWAP2 POP PUSH2 0x618 SWAP1 POP PUSH2 0x5E9 JUMP JUMPDEST DUP4 DUP1 REVERT JUMPDEST POP CALLVALUE PUSH2 0x193 JUMPI PUSH1 0x20 CALLDATASIZE PUSH1 0x3 NOT ADD SLT PUSH2 0x193 JUMPI PUSH1 0x20 SWAP3 DUP3 SWAP2 CALLDATALOAD DUP2 MSTORE PUSH1 0x9 DUP5 MSTORE KECCAK256 SLOAD SWAP1 MLOAD SWAP1 DUP2 MSTORE RETURN JUMPDEST DUP4 DUP3 CALLVALUE PUSH2 0x1E5 JUMPI PUSH1 0x80 CALLDATASIZE PUSH1 0x3 NOT ADD SLT PUSH2 0x1E5 JUMPI PUSH2 0x6C7 PUSH2 0xCCF JUMP JUMPDEST PUSH2 0x6CF PUSH2 0xCEA JUMP JUMPDEST SWAP1 PUSH1 0x64 CALLDATALOAD PUSH8 0xFFFFFFFFFFFFFFFF DUP2 GT PUSH2 0x710 JUMPI CALLDATASIZE PUSH1 0x23 DUP3 ADD SLT ISZERO PUSH2 0x710 JUMPI PUSH2 0x70D SWAP4 DUP2 PUSH1 0x24 PUSH2 0x703 SWAP4 CALLDATASIZE SWAP4 ADD CALLDATALOAD SWAP2 ADD PUSH2 0xDA5 JUMP JUMPDEST SWAP2 PUSH1 0x44 CALLDATALOAD SWAP2 PUSH2 0xFE1 JUMP JUMPDEST DUP1 RETURN JUMPDEST DUP5 DUP1 REVERT JUMPDEST POP SWAP1 CALLVALUE PUSH2 0x193 JUMPI DUP1 PUSH1 0x3 NOT CALLDATASIZE ADD SLT PUSH2 0x193 JUMPI PUSH2 0x72E PUSH2 0xCCF JUMP JUMPDEST SWAP1 PUSH1 0x24 CALLDATALOAD SWAP2 DUP3 ISZERO ISZERO DUP1 SWAP4 SUB PUSH2 0x710 JUMPI PUSH1 0x1 PUSH1 0x1 PUSH1 0xA0 SHL SUB AND SWAP3 DUP4 ISZERO PUSH2 0x79C JUMPI POP CALLER DUP5 MSTORE PUSH1 0x5 PUSH1 0x20 MSTORE DUP1 DUP5 KECCAK256 DUP4 DUP6 MSTORE PUSH1 0x20 MSTORE DUP1 DUP5 KECCAK256 PUSH1 0xFF NOT DUP2 SLOAD AND PUSH1 0xFF DUP5 AND OR SWAP1 SSTORE MLOAD SWAP1 DUP2 MSTORE PUSH32 0x17307EAB39AB6107E8899845AD3D59BD9653F200F220920489CA2B5937696C31 PUSH1 0x20 CALLER SWAP3 LOG3 DUP1 RETURN JUMPDEST DUP4 PUSH1 0x24 SWAP3 MLOAD SWAP2 PUSH4 0xB611743 PUSH1 0xE3 SHL DUP4 MSTORE DUP3 ADD MSTORE REVERT JUMPDEST POP POP CALLVALUE PUSH2 0x1E5 JUMPI DUP2 PUSH1 0x3 NOT CALLDATASIZE ADD SLT PUSH2 0x1E5 JUMPI DUP1 MLOAD SWAP1 DUP3 PUSH1 0x1 DUP1 SLOAD SWAP2 PUSH2 0x7D5 DUP4 PUSH2 0xE08 JUMP JUMPDEST DUP1 DUP7 MSTORE SWAP3 DUP3 DUP2 AND SWAP1 DUP2 ISZERO PUSH2 0x86C JUMPI POP PUSH1 0x1 EQ PUSH2 0x810 JUMPI JUMPDEST POP POP POP PUSH2 0x7FE DUP3 PUSH2 0x618 SWAP5 SUB DUP4 PUSH2 0xD67 JUMP JUMPDEST MLOAD SWAP2 DUP3 SWAP2 PUSH1 0x20 DUP4 MSTORE PUSH1 0x20 DUP4 ADD SWAP1 PUSH2 0xC8F JUMP JUMPDEST SWAP5 POP DUP1 DUP6 MSTORE PUSH32 0xB10E2D527612073B26EECDFD717E6A320CF44B4AFAC2B0732D9FCBE2B7FA0CF6 JUMPDEST DUP3 DUP7 LT PUSH2 0x854 JUMPI POP POP POP PUSH2 0x7FE DUP3 PUSH1 0x20 PUSH2 0x618 SWAP6 DUP3 ADD ADD SWAP5 PUSH2 0x7EC JUMP JUMPDEST DUP1 SLOAD PUSH1 0x20 DUP8 DUP8 ADD DUP2 ADD SWAP2 SWAP1 SWAP2 MSTORE SWAP1 SWAP6 ADD SWAP5 DUP2 ADD PUSH2 0x837 JUMP JUMPDEST PUSH2 0x618 SWAP8 POP DUP7 SWAP4 POP PUSH1 0x20 SWAP3 POP PUSH2 0x7FE SWAP5 SWAP2 POP PUSH1 0xFF NOT AND DUP3 DUP5 ADD MSTORE ISZERO ISZERO PUSH1 0x5 SHL DUP3 ADD ADD SWAP5 PUSH2 0x7EC JUMP JUMPDEST POP POP CALLVALUE PUSH2 0x1E5 JUMPI DUP2 PUSH1 0x3 NOT CALLDATASIZE ADD SLT PUSH2 0x1E5 JUMPI PUSH1 0x7 SLOAD SWAP1 MLOAD PUSH1 0x1 PUSH1 0x1 PUSH1 0xA0 SHL SUB SWAP1 SWAP2 AND DUP2 MSTORE PUSH1 0x20 SWAP1 RETURN JUMPDEST DUP4 CALLVALUE PUSH2 0x58D JUMPI PUSH1 0x20 CALLDATASIZE PUSH1 0x3 NOT ADD SLT PUSH2 0x58D JUMPI PUSH2 0x8D7 PUSH2 0xCCF JUMP JUMPDEST PUSH2 0x8DF PUSH2 0xDDC JUMP JUMPDEST PUSH1 0x1 DUP1 PUSH1 0xA0 SHL SUB AND PUSH1 0x1 PUSH1 0x1 PUSH1 0x60 SHL SUB PUSH1 0xA0 SHL PUSH1 0x8 SLOAD AND OR PUSH1 0x8 SSTORE DUP1 RETURN JUMPDEST DUP4 CALLVALUE PUSH2 0x58D JUMPI DUP1 PUSH1 0x3 NOT CALLDATASIZE ADD SLT PUSH2 0x58D JUMPI PUSH2 0x916 PUSH2 0xDDC JUMP JUMPDEST PUSH1 0x7 DUP1 SLOAD PUSH1 0x1 PUSH1 0x1 PUSH1 0xA0 SHL SUB NOT DUP2 AND SWAP1 SWAP2 SSTORE DUP2 SWAP1 PUSH1 0x1 PUSH1 0x1 PUSH1 0xA0 SHL SUB AND PUSH32 0x8BE0079C531659141344CD1FD0A4F28419497F9722A3DAAFE3B4186F6B6457E0 DUP3 DUP1 LOG3 DUP1 RETURN JUMPDEST POP SWAP2 CALLVALUE PUSH2 0x58D JUMPI PUSH1 0x20 CALLDATASIZE PUSH1 0x3 NOT ADD SLT PUSH2 0x58D JUMPI PUSH1 0x1 PUSH1 0x1 PUSH1 0xA0 SHL SUB PUSH2 0x97D PUSH2 0xCCF JUMP JUMPDEST AND SWAP3 DUP4 ISZERO PUSH2 0x99A JUMPI POP DUP1 PUSH1 0x20 SWAP4 DUP4 SWAP3 MSTORE PUSH1 0x3 DUP5 MSTORE KECCAK256 SLOAD SWAP1 MLOAD SWAP1 DUP2 MSTORE RETURN JUMPDEST SWAP2 MLOAD PUSH4 0x22718AD9 PUSH1 0xE2 SHL DUP2 MSTORE SWAP2 DUP3 ADD MSTORE PUSH1 0x24 SWAP1 REVERT JUMPDEST POP SWAP2 CALLVALUE PUSH2 0x58D JUMPI PUSH1 0x20 CALLDATASIZE PUSH1 0x3 NOT ADD SLT PUSH2 0x58D JUMPI POP PUSH2 0x9CF PUSH1 0x20 SWAP3 CALLDATALOAD PUSH2 0x1130 JUMP JUMPDEST SWAP1 MLOAD PUSH1 0x1 PUSH1 0x1 PUSH1 0xA0 SHL SUB SWAP1 SWAP2 AND DUP2 MSTORE RETURN JUMPDEST POP POP CALLVALUE PUSH2 0x1E5 JUMPI DUP2 PUSH1 0x3 NOT CALLDATASIZE ADD SLT PUSH2 0x1E5 JUMPI PUSH1 0x8 SLOAD SWAP1 MLOAD PUSH1 0x1 PUSH1 0x1 PUSH1 0xA0 SHL SUB SWAP1 SWAP2 AND DUP2 MSTORE PUSH1 0x20 SWAP1 RETURN JUMPDEST POP POP CALLVALUE PUSH2 0x1E5 JUMPI PUSH2 0x70D SWAP1 PUSH2 0xA1D CALLDATASIZE PUSH2 0xD00 JUMP JUMPDEST SWAP2 SWAP3 MLOAD SWAP3 PUSH2 0xA2A DUP5 PUSH2 0xD35 JUMP JUMPDEST DUP6 DUP5 MSTORE PUSH2 0xFE1 JUMP JUMPDEST DUP4 CALLVALUE PUSH2 0x58D JUMPI PUSH2 0x70D PUSH2 0xA44 CALLDATASIZE PUSH2 0xD00 JUMP JUMPDEST SWAP2 PUSH2 0xE42 JUMP JUMPDEST POP SWAP1 CALLVALUE PUSH2 0x193 JUMPI DUP1 PUSH1 0x3 NOT CALLDATASIZE ADD SLT PUSH2 0x193 JUMPI PUSH2 0xA64 PUSH2 0xCCF JUMP JUMPDEST SWAP2 PUSH1 0x24 CALLDATALOAD PUSH2 0xA71 DUP2 PUSH2 0x1130 JUMP JUMPDEST CALLER ISZERO ISZERO DUP1 PUSH2 0xB13 JUMPI JUMPDEST DUP1 PUSH2 0xAEA JUMPI JUMPDEST PUSH2 0xAD4 JUMPI PUSH1 0x1 PUSH1 0x1 PUSH1 0xA0 SHL SUB SWAP5 DUP6 AND SWAP5 DUP3 SWAP2 DUP7 SWAP2 AND PUSH32 0x8C5BE1E5EBEC7D5BD14F71427D1E84F3DD0314C0F7B2291E5B200AC8C7C3B925 DUP9 DUP1 LOG4 DUP5 MSTORE PUSH1 0x20 MSTORE DUP3 KECCAK256 DUP1 SLOAD PUSH1 0x1 PUSH1 0x1 PUSH1 0xA0 SHL SUB NOT AND SWAP1 SWAP2 OR SWAP1 SSTORE DUP1 RETURN JUMPDEST DUP4 MLOAD PUSH4 0xA9FBF51F PUSH1 0xE0 SHL DUP2 MSTORE CALLER DUP2 DUP6 ADD MSTORE PUSH1 0x24 SWAP1 REVERT JUMPDEST POP PUSH1 0x1 PUSH1 0x1 PUSH1 0xA0 SHL SUB DUP2 AND DUP7 MSTORE PUSH1 0x5 PUSH1 0x20 SWAP1 DUP2 MSTORE DUP5 DUP8 KECCAK256 CALLER DUP9 MSTORE SWAP1 MSTORE DUP4 DUP7 KECCAK256 SLOAD PUSH1 0xFF AND ISZERO PUSH2 0xA80 JUMP JUMPDEST POP PUSH1 0x1 PUSH1 0x1 PUSH1 0xA0 SHL SUB DUP2 AND CALLER EQ ISZERO PUSH2 0xA7A JUMP JUMPDEST POP CALLVALUE PUSH2 0x193 JUMPI PUSH1 0x20 CALLDATASIZE PUSH1 0x3 NOT ADD SLT PUSH2 0x193 JUMPI SWAP2 DUP3 PUSH1 0x20 SWAP4 CALLDATALOAD PUSH2 0xB47 DUP2 PUSH2 0x1130 JUMP JUMPDEST POP DUP3 MSTORE DUP4 MSTORE DUP2 SWAP1 KECCAK256 SLOAD SWAP1 MLOAD PUSH1 0x1 PUSH1 0x1 PUSH1 0xA0 SHL SUB SWAP1 SWAP2 AND DUP2 MSTORE RETURN JUMPDEST POP POP CALLVALUE PUSH2 0x1E5 JUMPI DUP2 PUSH1 0x3 NOT CALLDATASIZE ADD SLT PUSH2 0x1E5 JUMPI DUP1 MLOAD SWAP1 DUP3 DUP1 SLOAD PUSH2 0xB82 DUP2 PUSH2 0xE08 JUMP JUMPDEST DUP1 DUP6 MSTORE SWAP2 PUSH1 0x1 SWAP2 DUP1 DUP4 AND SWAP1 DUP2 ISZERO PUSH2 0x86C JUMPI POP PUSH1 0x1 EQ PUSH2 0xBAD JUMPI POP POP POP PUSH2 0x7FE DUP3 PUSH2 0x618 SWAP5 SUB DUP4 PUSH2 0xD67 JUMP JUMPDEST DUP1 DUP1 SWAP7 POP MSTORE PUSH32 0x290DECD9548B62A8D60345A988386FC84BA6BC95484008F6362F93160EF3E563 JUMPDEST DUP3 DUP7 LT PUSH2 0xBF1 JUMPI POP POP POP PUSH2 0x7FE DUP3 PUSH1 0x20 PUSH2 0x618 SWAP6 DUP3 ADD ADD SWAP5 PUSH2 0x7EC JUMP JUMPDEST DUP1 SLOAD PUSH1 0x20 DUP8 DUP8 ADD DUP2 ADD SWAP2 SWAP1 SWAP2 MSTORE SWAP1 SWAP6 ADD SWAP5 DUP2 ADD PUSH2 0xBD4 JUMP JUMPDEST SWAP3 POP POP CALLVALUE PUSH2 0x193 JUMPI PUSH1 0x20 CALLDATASIZE PUSH1 0x3 NOT ADD SLT PUSH2 0x193 JUMPI CALLDATALOAD PUSH4 0xFFFFFFFF PUSH1 0xE0 SHL DUP2 AND DUP1 SWAP2 SUB PUSH2 0x193 JUMPI PUSH1 0x20 SWAP3 POP PUSH4 0x24832483 PUSH1 0xE1 SHL DUP2 EQ SWAP1 DUP2 ISZERO PUSH2 0xC4C JUMPI JUMPDEST POP ISZERO ISZERO DUP2 MSTORE RETURN JUMPDEST PUSH4 0x80AC58CD PUSH1 0xE0 SHL DUP2 EQ SWAP2 POP DUP2 ISZERO PUSH2 0xC7E JUMPI JUMPDEST DUP2 ISZERO PUSH2 0xC6D JUMPI JUMPDEST POP CODESIZE PUSH2 0xC45 JUMP JUMPDEST PUSH4 0x1FFC9A7 PUSH1 0xE0 SHL EQ SWAP1 POP CODESIZE PUSH2 0xC66 JUMP JUMPDEST PUSH4 0x5B5E139F PUSH1 0xE0 SHL DUP2 EQ SWAP2 POP PUSH2 0xC5F JUMP JUMPDEST SWAP2 SWAP1 DUP3 MLOAD SWAP3 DUP4 DUP3 MSTORE PUSH1 0x0 JUMPDEST DUP5 DUP2 LT PUSH2 0xCBB JUMPI POP POP DUP3 PUSH1 0x0 PUSH1 0x20 DUP1 SWAP5 SWAP6 DUP5 ADD ADD MSTORE PUSH1 0x1F DUP1 NOT SWAP2 ADD AND ADD ADD SWAP1 JUMP JUMPDEST PUSH1 0x20 DUP2 DUP4 ADD DUP2 ADD MLOAD DUP5 DUP4 ADD DUP3 ADD MSTORE ADD PUSH2 0xC9A JUMP JUMPDEST PUSH1 0x4 CALLDATALOAD SWAP1 PUSH1 0x1 PUSH1 0x1 PUSH1 0xA0 SHL SUB DUP3 AND DUP3 SUB PUSH2 0xCE5 JUMPI JUMP JUMPDEST PUSH1 0x0 DUP1 REVERT JUMPDEST PUSH1 0x24 CALLDATALOAD SWAP1 PUSH1 0x1 PUSH1 0x1 PUSH1 0xA0 SHL SUB DUP3 AND DUP3 SUB PUSH2 0xCE5 JUMPI JUMP JUMPDEST PUSH1 0x60 SWAP1 PUSH1 0x3 NOT ADD SLT PUSH2 0xCE5 JUMPI PUSH1 0x1 PUSH1 0x1 PUSH1 0xA0 SHL SUB SWAP1 PUSH1 0x4 CALLDATALOAD DUP3 DUP2 AND DUP2 SUB PUSH2 0xCE5 JUMPI SWAP2 PUSH1 0x24 CALLDATALOAD SWAP1 DUP2 AND DUP2 SUB PUSH2 0xCE5 JUMPI SWAP1 PUSH1 0x44 CALLDATALOAD SWAP1 JUMP JUMPDEST PUSH1 0x20 DUP2 ADD SWAP1 DUP2 LT PUSH8 0xFFFFFFFFFFFFFFFF DUP3 GT OR PUSH2 0xD51 JUMPI PUSH1 0x40 MSTORE JUMP JUMPDEST PUSH4 0x4E487B71 PUSH1 0xE0 SHL PUSH1 0x0 MSTORE PUSH1 0x41 PUSH1 0x4 MSTORE PUSH1 0x24 PUSH1 0x0 REVERT JUMPDEST SWAP1 PUSH1 0x1F DUP1 NOT SWAP2 ADD AND DUP2 ADD SWAP1 DUP2 LT PUSH8 0xFFFFFFFFFFFFFFFF DUP3 GT OR PUSH2 0xD51 JUMPI PUSH1 0x40 MSTORE JUMP JUMPDEST PUSH8 0xFFFFFFFFFFFFFFFF DUP2 GT PUSH2 0xD51 JUMPI PUSH1 0x1F ADD PUSH1 0x1F NOT AND PUSH1 0x20 ADD SWAP1 JUMP JUMPDEST SWAP3 SWAP2 SWAP3 PUSH2 0xDB1 DUP3 PUSH2 0xD89 JUMP JUMPDEST SWAP2 PUSH2 0xDBF PUSH1 0x40 MLOAD SWAP4 DUP5 PUSH2 0xD67 JUMP JUMPDEST DUP3 SWAP5 DUP2 DUP5 MSTORE DUP2 DUP4 ADD GT PUSH2 0xCE5 JUMPI DUP3 DUP2 PUSH1 0x20 SWAP4 DUP5 PUSH1 0x0 SWAP7 ADD CALLDATACOPY ADD ADD MSTORE JUMP JUMPDEST PUSH1 0x7 SLOAD PUSH1 0x1 PUSH1 0x1 PUSH1 0xA0 SHL SUB AND CALLER SUB PUSH2 0xDF0 JUMPI JUMP JUMPDEST PUSH1 0x40 MLOAD PUSH4 0x118CDAA7 PUSH1 0xE0 SHL DUP2 MSTORE CALLER PUSH1 0x4 DUP3 ADD MSTORE PUSH1 0x24 SWAP1 REVERT JUMPDEST SWAP1 PUSH1 0x1 DUP3 DUP2 SHR SWAP3 AND DUP1 ISZERO PUSH2 0xE38 JUMPI JUMPDEST PUSH1 0x20 DUP4 LT EQ PUSH2 0xE22 JUMPI JUMP JUMPDEST PUSH4 0x4E487B71 PUSH1 0xE0 SHL PUSH1 0x0 MSTORE PUSH1 0x22 PUSH1 0x4 MSTORE PUSH1 0x24 PUSH1 0x0 REVERT JUMPDEST SWAP2 PUSH1 0x7F AND SWAP2 PUSH2 0xE17 JUMP JUMPDEST PUSH1 0x1 PUSH1 0x1 PUSH1 0xA0 SHL SUB SWAP2 DUP3 AND SWAP3 SWAP1 SWAP2 DUP4 ISZERO PUSH2 0xFC8 JUMPI PUSH1 0x0 SWAP3 DUP3 DUP5 MSTORE DUP3 PUSH1 0x20 SWAP6 PUSH1 0x2 DUP8 MSTORE PUSH1 0x40 SWAP7 DUP5 DUP9 DUP9 KECCAK256 SLOAD AND SWAP7 DUP8 SWAP2 CALLER ISZERO ISZERO DUP1 PUSH2 0xF32 JUMPI JUMPDEST POP SWAP1 PUSH1 0x2 PUSH32 0xDDF252AD1BE2C89B69C2B068FC378DAA952BA7F163C4A11628F55A4DF523B3EF SWAP3 DUP5 PUSH2 0xEFF JUMPI JUMPDEST DUP6 DUP4 MSTORE PUSH1 0x3 DUP2 MSTORE DUP12 DUP4 KECCAK256 DUP1 SLOAD PUSH1 0x1 ADD SWAP1 SSTORE DUP7 DUP4 MSTORE MSTORE DUP10 DUP2 KECCAK256 DUP1 SLOAD PUSH1 0x1 PUSH1 0x1 PUSH1 0xA0 SHL SUB NOT AND DUP6 OR SWAP1 SSTORE DUP1 LOG4 AND SWAP3 DUP4 DUP4 SUB PUSH2 0xEDE JUMPI POP POP POP POP JUMP JUMPDEST PUSH1 0x64 SWAP5 POP MLOAD SWAP3 PUSH4 0x64283D7B PUSH1 0xE0 SHL DUP5 MSTORE PUSH1 0x4 DUP5 ADD MSTORE PUSH1 0x24 DUP4 ADD MSTORE PUSH1 0x44 DUP3 ADD MSTORE REVERT JUMPDEST PUSH1 0x0 DUP8 DUP2 MSTORE PUSH1 0x4 PUSH1 0x20 MSTORE PUSH1 0x40 SWAP1 KECCAK256 DUP1 SLOAD PUSH1 0x1 PUSH1 0x1 PUSH1 0xA0 SHL SUB NOT AND SWAP1 SSTORE DUP5 DUP4 MSTORE PUSH1 0x3 DUP2 MSTORE DUP12 DUP4 KECCAK256 DUP1 SLOAD PUSH1 0x0 NOT ADD SWAP1 SSTORE PUSH2 0xEA5 JUMP JUMPDEST SWAP2 SWAP4 SWAP5 POP SWAP2 POP DUP1 PUSH2 0xF87 JUMPI JUMPDEST ISZERO PUSH2 0xF4E JUMPI DUP6 SWAP3 SWAP2 DUP8 SWAP2 CODESIZE PUSH2 0xE79 JUMP JUMPDEST DUP8 DUP7 DUP9 PUSH2 0xF6B JUMPI PUSH1 0x24 SWAP2 MLOAD SWAP1 PUSH4 0x7E273289 PUSH1 0xE0 SHL DUP3 MSTORE PUSH1 0x4 DUP3 ADD MSTORE REVERT JUMPDEST PUSH1 0x44 SWAP2 MLOAD SWAP1 PUSH4 0x177E802F PUSH1 0xE0 SHL DUP3 MSTORE CALLER PUSH1 0x4 DUP4 ADD MSTORE PUSH1 0x24 DUP3 ADD MSTORE REVERT JUMPDEST POP CALLER DUP8 EQ DUP1 ISZERO PUSH2 0xFAC JUMPI JUMPDEST DUP1 PUSH2 0xF3E JUMPI POP DUP6 DUP3 MSTORE PUSH1 0x4 DUP2 MSTORE CALLER DUP6 DUP10 DUP5 KECCAK256 SLOAD AND EQ PUSH2 0xF3E JUMP JUMPDEST POP DUP7 DUP3 MSTORE PUSH1 0x5 DUP2 MSTORE DUP8 DUP3 KECCAK256 CALLER DUP4 MSTORE DUP2 MSTORE PUSH1 0xFF DUP9 DUP4 KECCAK256 SLOAD AND PUSH2 0xF92 JUMP JUMPDEST PUSH1 0x40 MLOAD PUSH4 0x32505749 PUSH1 0xE1 SHL DUP2 MSTORE PUSH1 0x0 PUSH1 0x4 DUP3 ADD MSTORE PUSH1 0x24 SWAP1 REVERT JUMPDEST PUSH2 0xFEC DUP4 DUP4 DUP4 PUSH2 0xE42 JUMP JUMPDEST DUP2 EXTCODESIZE PUSH2 0xFF9 JUMPI JUMPDEST POP POP POP POP JUMP JUMPDEST PUSH1 0x40 MLOAD PUSH4 0xA85BD01 PUSH1 0xE1 SHL DUP1 DUP3 MSTORE CALLER PUSH1 0x4 DUP4 ADD MSTORE PUSH1 0x1 PUSH1 0x1 PUSH1 0xA0 SHL SUB SWAP3 DUP4 AND PUSH1 0x24 DUP4 ADD MSTORE PUSH1 0x44 DUP3 ADD SWAP5 SWAP1 SWAP5 MSTORE PUSH1 0x80 PUSH1 0x64 DUP3 ADD MSTORE PUSH1 0x20 SWAP6 SWAP3 SWAP1 SWAP2 AND SWAP4 SWAP1 SWAP3 SWAP1 DUP4 SWAP1 PUSH2 0x1047 SWAP1 PUSH1 0x84 DUP4 ADD SWAP1 PUSH2 0xC8F JUMP JUMPDEST SUB SWAP3 DUP6 DUP2 PUSH1 0x0 SWAP6 DUP2 DUP8 DUP10 GAS CALL DUP5 SWAP2 DUP2 PUSH2 0x10F0 JUMPI JUMPDEST POP PUSH2 0x10BB JUMPI POP POP POP RETURNDATASIZE PUSH1 0x0 EQ PUSH2 0x10B3 JUMPI RETURNDATASIZE PUSH2 0x1075 DUP2 PUSH2 0xD89 JUMP JUMPDEST SWAP1 PUSH2 0x1083 PUSH1 0x40 MLOAD SWAP3 DUP4 PUSH2 0xD67 JUMP JUMPDEST DUP2 MSTORE DUP1 SWAP2 DUP5 RETURNDATASIZE SWAP3 ADD RETURNDATACOPY JUMPDEST DUP1 MLOAD SWAP3 DUP4 PUSH2 0x10AE JUMPI PUSH1 0x40 MLOAD PUSH4 0x32505749 PUSH1 0xE1 SHL DUP2 MSTORE PUSH1 0x4 DUP2 ADD DUP5 SWAP1 MSTORE PUSH1 0x24 SWAP1 REVERT JUMPDEST ADD SWAP1 POP REVERT JUMPDEST POP PUSH1 0x60 PUSH2 0x108D JUMP JUMPDEST SWAP2 SWAP5 POP SWAP2 POP PUSH4 0xFFFFFFFF PUSH1 0xE0 SHL AND SUB PUSH2 0x10D8 JUMPI POP CODESIZE DUP1 DUP1 DUP1 PUSH2 0xFF3 JUMP JUMPDEST PUSH1 0x24 SWAP1 PUSH1 0x40 MLOAD SWAP1 PUSH4 0x32505749 PUSH1 0xE1 SHL DUP3 MSTORE PUSH1 0x4 DUP3 ADD MSTORE REVERT JUMPDEST SWAP1 SWAP2 POP DUP7 DUP2 DUP2 RETURNDATASIZE DUP4 GT PUSH2 0x1129 JUMPI JUMPDEST PUSH2 0x1108 DUP2 DUP4 PUSH2 0xD67 JUMP JUMPDEST DUP2 ADD SUB SLT PUSH2 0x710 JUMPI MLOAD PUSH1 0x1 PUSH1 0x1 PUSH1 0xE0 SHL SUB NOT DUP2 AND DUP2 SUB PUSH2 0x710 JUMPI SWAP1 CODESIZE PUSH2 0x105B JUMP JUMPDEST POP RETURNDATASIZE PUSH2 0x10FE JUMP JUMPDEST PUSH1 0x0 DUP2 DUP2 MSTORE PUSH1 0x2 PUSH1 0x20 MSTORE PUSH1 0x40 SWAP1 KECCAK256 SLOAD PUSH1 0x1 PUSH1 0x1 PUSH1 0xA0 SHL SUB AND SWAP1 DUP2 ISZERO PUSH2 0x1153 JUMPI POP SWAP1 JUMP JUMPDEST PUSH1 0x24 SWAP1 PUSH1 0x40 MLOAD SWAP1 PUSH4 0x7E273289 PUSH1 0xE0 SHL DUP3 MSTORE PUSH1 0x4 DUP3 ADD MSTORE REVERT INVALID LOG2 PUSH5 0x6970667358 0x22 SLT KECCAK256 0x5D ISZERO 0xBE COINBASE SWAP2 0xC0 CALLDATACOPY DUP3 DELEGATECALL BYTE 0xB5 0xA5 CREATE 0xC5 0x4B MOD BALANCE 0xC1 LOG3 PUSH27 0x632108EA176CF2E39AA943BE64736F6C6343000814003300000000 "},"methodIdentifiers":{"approve(address,uint256)":"095ea7b3","balanceOf(address)":"70a08231","datasetId(uint256)":"4659de1a","filethetic()":"508e5408","getApproved(uint256)":"081812fc","getDatasetId(uint256)":"c14b197a","isApprovedForAll(address,address)":"e985e9c5","mintDatasetNFT(address,uint256,string)":"ca25eebe","name()":"06fdde03","owner()":"8da5cb5b","ownerOf(uint256)":"6352211e","renounceOwnership()":"715018a6","safeTransferFrom(address,address,uint256)":"42842e0e","safeTransferFrom(address,address,uint256,bytes)":"b88d4fde","setApprovalForAll(address,bool)":"a22cb465","setFilethetic(address)":"7a5321f5","supportsInterface(bytes4)":"01ffc9a7","symbol()":"95d89b41","tokenURI(uint256)":"c87b56dd","transferFrom(address,address,uint256)":"23b872dd","transferOwnership(address)":"f2fde38b"}}}}}