{"src/Filethetic.sol":{"Filethetic":{"abi":[{"inputs":[{"internalType":"address","name":"_usdcToken","type":"address"},{"internalType":"address","name":"_treasury","type":"address"}],"stateMutability":"nonpayable","type":"constructor"},{"inputs":[],"name":"DatasetAlreadyLocked","type":"error"},{"inputs":[],"name":"DatasetNotPublic","type":"error"},{"inputs":[],"name":"IncorrectPaymentAmount","type":"error"},{"inputs":[],"name":"NoAccessToDataset","type":"error"},{"inputs":[],"name":"NotDatasetOwner","type":"error"},{"inputs":[{"internalType":"address","name":"owner","type":"address"}],"name":"OwnableInvalidOwner","type":"error"},{"inputs":[{"internalType":"address","name":"account","type":"address"}],"name":"OwnableUnauthorizedAccount","type":"error"},{"anonymous":false,"inputs":[{"indexed":true,"internalType":"uint256","name":"datasetId","type":"uint256"},{"indexed":true,"internalType":"address","name":"owner","type":"address"},{"indexed":false,"internalType":"string","name":"name","type":"string"}],"name":"DatasetCreated","type":"event"},{"anonymous":false,"inputs":[{"indexed":true,"internalType":"uint256","name":"datasetId","type":"uint256"},{"indexed":false,"internalType":"uint256","name":"version","type":"uint256"},{"indexed":false,"internalType":"string","name":"cid","type":"string"}],"name":"DatasetLocked","type":"event"},{"anonymous":false,"inputs":[{"indexed":true,"internalType":"uint256","name":"datasetId","type":"uint256"},{"indexed":true,"internalType":"address","name":"buyer","type":"address"}],"name":"DatasetPurchased","type":"event"},{"anonymous":false,"inputs":[{"indexed":true,"internalType":"address","name":"previousOwner","type":"address"},{"indexed":true,"internalType":"address","name":"newOwner","type":"address"}],"name":"OwnershipTransferred","type":"event"},{"inputs":[{"internalType":"uint256","name":"","type":"uint256"},{"internalType":"address","name":"","type":"address"}],"name":"allowlist","outputs":[{"internalType":"bool","name":"","type":"bool"}],"stateMutability":"view","type":"function"},{"inputs":[{"internalType":"string","name":"name","type":"string"},{"internalType":"string","name":"description","type":"string"},{"internalType":"uint256","name":"price","type":"uint256"},{"internalType":"bool","name":"isPublic","type":"bool"},{"internalType":"string","name":"modelName","type":"string"},{"internalType":"uint256","name":"taskId","type":"uint256"},{"internalType":"uint256","name":"nodeId","type":"uint256"},{"internalType":"uint256","name":"computeUnitsPrice","type":"uint256"},{"internalType":"uint256","name":"maxComputeUnits","type":"uint256"}],"name":"createDataset","outputs":[{"internalType":"uint256","name":"","type":"uint256"}],"stateMutability":"nonpayable","type":"function"},{"inputs":[{"internalType":"uint256","name":"","type":"uint256"}],"name":"datasets","outputs":[{"internalType":"uint256","name":"id","type":"uint256"},{"internalType":"uint256","name":"version","type":"uint256"},{"internalType":"address","name":"owner","type":"address"},{"internalType":"string","name":"name","type":"string"},{"internalType":"string","name":"description","type":"string"},{"internalType":"uint256","name":"price","type":"uint256"},{"internalType":"bool","name":"isPublic","type":"bool"},{"internalType":"string","name":"cid","type":"string"},{"internalType":"uint256","name":"numRows","type":"uint256"},{"internalType":"uint256","name":"numTokens","type":"uint256"},{"internalType":"string","name":"modelName","type":"string"},{"internalType":"uint256","name":"taskId","type":"uint256"},{"internalType":"uint256","name":"nodeId","type":"uint256"},{"internalType":"uint256","name":"computeUnitsPrice","type":"uint256"},{"internalType":"uint256","name":"maxComputeUnits","type":"uint256"},{"internalType":"uint256","name":"numDownloads","type":"uint256"}],"stateMutability":"view","type":"function"},{"inputs":[{"internalType":"uint256","name":"datasetId","type":"uint256"}],"name":"getDataset","outputs":[{"components":[{"internalType":"uint256","name":"id","type":"uint256"},{"internalType":"uint256","name":"version","type":"uint256"},{"internalType":"address","name":"owner","type":"address"},{"internalType":"string","name":"name","type":"string"},{"internalType":"string","name":"description","type":"string"},{"internalType":"uint256","name":"price","type":"uint256"},{"internalType":"bool","name":"isPublic","type":"bool"},{"internalType":"string","name":"cid","type":"string"},{"internalType":"uint256","name":"numRows","type":"uint256"},{"internalType":"uint256","name":"numTokens","type":"uint256"},{"internalType":"string","name":"modelName","type":"string"},{"internalType":"uint256","name":"taskId","type":"uint256"},{"internalType":"uint256","name":"nodeId","type":"uint256"},{"internalType":"uint256","name":"computeUnitsPrice","type":"uint256"},{"internalType":"uint256","name":"maxComputeUnits","type":"uint256"},{"internalType":"uint256","name":"numDownloads","type":"uint256"}],"internalType":"struct Filethetic.Dataset","name":"","type":"tuple"}],"stateMutability":"view","type":"function"},{"inputs":[{"internalType":"uint256","name":"datasetId","type":"uint256"},{"internalType":"address","name":"user","type":"address"}],"name":"hasAccess","outputs":[{"internalType":"bool","name":"","type":"bool"}],"stateMutability":"view","type":"function"},{"inputs":[{"internalType":"uint256","name":"datasetId","type":"uint256"},{"internalType":"string","name":"cid","type":"string"},{"internalType":"uint256","name":"numRows","type":"uint256"},{"internalType":"uint256","name":"numTokens","type":"uint256"}],"name":"lockDataset","outputs":[],"stateMutability":"nonpayable","type":"function"},{"inputs":[],"name":"owner","outputs":[{"internalType":"address","name":"","type":"address"}],"stateMutability":"view","type":"function"},{"inputs":[],"name":"protocolFeePercentage","outputs":[{"internalType":"uint256","name":"","type":"uint256"}],"stateMutability":"view","type":"function"},{"inputs":[{"internalType":"uint256","name":"datasetId","type":"uint256"}],"name":"purchaseDataset","outputs":[],"stateMutability":"nonpayable","type":"function"},{"inputs":[],"name":"renounceOwnership","outputs":[],"stateMutability":"nonpayable","type":"function"},{"inputs":[{"internalType":"uint256","name":"newFeePercentage","type":"uint256"}],"name":"setProtocolFeePercentage","outputs":[],"stateMutability":"nonpayable","type":"function"},{"inputs":[{"internalType":"address","name":"newTreasury","type":"address"}],"name":"setTreasury","outputs":[],"stateMutability":"nonpayable","type":"function"},{"inputs":[{"internalType":"address","name":"newOwner","type":"address"}],"name":"transferOwnership","outputs":[],"stateMutability":"nonpayable","type":"function"},{"inputs":[],"name":"treasury","outputs":[{"internalType":"address","name":"","type":"address"}],"stateMutability":"view","type":"function"},{"inputs":[{"internalType":"uint256","name":"datasetId","type":"uint256"},{"internalType":"string","name":"name","type":"string"},{"internalType":"string","name":"description","type":"string"},{"internalType":"uint256","name":"price","type":"uint256"}],"name":"updateDataset","outputs":[],"stateMutability":"nonpayable","type":"function"},{"inputs":[],"name":"usdcToken","outputs":[{"internalType":"contract IERC20","name":"","type":"address"}],"stateMutability":"view","type":"function"}],"evm":{"bytecode":{"linkReferences":{},"object":"6080346100e757601f61179f38819003918201601f19168301916001600160401b038311848410176100ec5780849260409485528339810103126100e757610052602061004b83610102565b9201610102565b33156100ce5760008054336001600160a01b0319808316821784556040519590946001600160a01b03949093859391908416907f8be0079c531659141344cd1fd0a4f28419497f9722a3daafe3b4186f6b6457e09080a360fa600355168360015416176001551690600254161760025561168890816101178239f35b604051631e4fbdf760e01b815260006004820152602490fd5b600080fd5b634e487b7160e01b600052604160045260246000fd5b51906001600160a01b03821682036100e75756fe60a080604052600436101561001357600080fd5b60003560e01c90816311eac8551461136a575080631cff85e1146112075780631d2ade8d1461105757806349ee56f914610dff57806349fe92cb146107e757806361d027b3146107be578063715018a61461076557806387910cef146107185780638da5cb5b146106ef5780638e50e509146106d1578063ced1419814610660578063d8a5e9361461063f578063d9c6312614610413578063ee004221146101a5578063f0f44260146101625763f2fde38b146100cf57600080fd5b3461015d57602036600319011261015d576100e861152e565b6100f0611544565b6001600160a01b0390811690811561014457600054826bffffffffffffffffffffffff60a01b821617600055167f8be0079c531659141344cd1fd0a4f28419497f9722a3daafe3b4186f6b6457e0600080a3005b604051631e4fbdf760e01b815260006004820152602490fd5b600080fd5b3461015d57602036600319011261015d5761017b61152e565b610183611544565b600280546001600160a01b0319166001600160a01b0392909216919091179055005b3461015d57602036600319011261015d5760006101e06040516101c7816113c8565b828152826020820152826040820152606080820152606060808201528260a08201528260c0820152606060e0820152826101008201528261012082015260606101408201528261016082015282610180820152826101a0820152826101c0820152015260043560005260046020526040600020600f60405191610249836113c8565b805483526001810154602084015260028101546001600160a01b0316604084015261027660038201611405565b606084015261028760048201611405565b6080840152600581015460a084015260ff600682015416151560c08401526102b160078201611405565b60e0840152600881015461010084015260098101546101208401526102d8600a8201611405565b610140840152600b810154610160840152600c810154610180840152600d8101546101a0840152600e8101546101c084015201546101e0820152604051809160208252805160208301526020810151604083015260018060a01b0360408201511660608301526101e06103d861035f606084015161020060808701526102208601906114ab565b6103a961037e608086015192601f1993848983030160a08a01526114ab565b60a086015160c088015260c0860151151560e088015260e086015183888303016101008901526114ab565b9061010085015161012087015261012085015161014087015261014085015190868303016101608701526114ab565b916101608101516101808501526101808101516101a08501526101a08101516101c08501526101c08101518285015201516102008301520390f35b3461015d57608036600319011261015d576001600160401b0360243581811161015d576104449036906004016114eb565b909160443581811161015d5761045e9036906004016114eb565b906004356000526020946004865260406000209460018060a01b03600287015416330361062d5760038601918582116105a25781906104a7826104a1865461138e565b866115c5565b600090601f83116001146105c3576000926105b8575b50508160011b916000199060031b1c19161790555b600484019282116105a2576104f1826104eb855461138e565b856115c5565b600094601f831160011461053a5750938192939460009261052f575b50508160011b916000199060031b1c19161790555b6005606435910155600080f35b01359050848061050d565b90601f198316958460005282600020926000905b88821061058a57505083600195969710610570575b505050811b019055610522565b0135600019600384901b60f8161c19169055848080610563565b8060018496829495870135815501950192019061054e565b634e487b7160e01b600052604160045260246000fd5b0135905088806104bd565b909150601f1983169184600052896000209260005b8b8282106106175750509084600195949392106105fd575b505050811b0190556104d2565b0135600019600384901b60f8161c191690558880806105f0565b60018496829395870135815501950192016105d8565b6040516372e22e7f60e11b8152600490fd5b3461015d57602036600319011261015d57610658611544565b600435600355005b3461015d57604036600319011261015d57610679611518565b600435600052600460205260018060a01b038060026040600020015416911680911480156106af575b6020906040519015158152f35b506005602052604060002090600052602052602060ff604060002054166106a2565b3461015d57600036600319011261015d576020600354604051908152f35b3461015d57600036600319011261015d576000546040516001600160a01b039091168152602090f35b3461015d57604036600319011261015d57610731611518565b600435600052600560205260406000209060018060a01b0316600052602052602060ff604060002054166040519015158152f35b3461015d57600036600319011261015d5761077e611544565b600080546001600160a01b0319811682556001600160a01b03167f8be0079c531659141344cd1fd0a4f28419497f9722a3daafe3b4186f6b6457e08280a3005b3461015d57600036600319011261015d576002546040516001600160a01b039091168152602090f35b3461015d5761012036600319011261015d576004356001600160401b03811161015d576108189036906004016114eb565b906024356001600160401b03811161015d576108389036906004016114eb565b929091606435801515810361015d576084356001600160401b03811161015d576108669036906004016114eb565b916108ae6006549661087788611570565b600655604051986108878a6113c8565b888a52600060208b01523360408b01526108a236898961157f565b60608b0152369161157f565b608088015260443560a0880152151560c0870152604051918260208101106001600160401b036020850111176105a25782602061090994016040526000815260e088015260006101008801526000610120880152369161157f565b61014085015260a43561016085015260c43561018085015260e4356101a0850152610104356101c085015260006101e085015282600052600460205260406000209084518255602085015160018301556002820160018060a01b036040870151166bffffffffffffffffffffffff60a01b82541617905560608501518051906001600160401b0382116105a25781906109b2826109a9600388015461138e565b600388016115c5565b602090601f8311600114610d8d57600092610d82575b50508160011b916000199060031b1c19161760038301555b60808501518051906001600160401b0382116105a2578190610a1282610a09600488015461138e565b600488016115c5565b602090601f8311600114610d1057600092610d05575b50508160011b916000199060031b1c19161760048301555b60a0850151600583015560c0850151151560ff8019600685015416911617600683015560e08501518051906001600160401b0382116105a2578190610a9582610a8c600788015461138e565b600788016115c5565b602090601f8311600114610c9357600092610c88575b50508160011b916000199060031b1c19161760078301555b61010085015160088301556101208501516009830155610140850151918251956001600160401b0387116105a257868694610b10602099610b07600a87015461138e565b600a87016115c5565b8890601f8311600114610beb577febdcbce6c96378b8d55af14fb1700acccb6779494c3a3313c8cf29cb8fc706fc959383610bd59694600f946101e094600092610be0575b50508160011b916000199060031b1c191617600a8501555b610160810151600b850155610180810151600c8501556101a0810151600d8501556101c0810151600e8501550151910155836000526005875260406000203360005287526040600020600160ff19825416179055604051918291888352339689840191611619565b0390a3604051908152f35b015190508d80610b55565b90600a8501600052896000209160005b601f1985168110610c6e575093600184600f946101e0947febdcbce6c96378b8d55af14fb1700acccb6779494c3a3313c8cf29cb8fc706fc9a98610bd59a98601f19811610610c55575b505050811b01600a850155610b6d565b015160001960f88460031b161c191690558d8080610c45565b8183015184558a9850600190930192918b01918b01610bfb565b015190508780610aab565b9250600785016000526020600020906000935b601f1984168510610cea576001945083601f19811610610cd1575b505050811b016007830155610ac3565b015160001960f88460031b161c19169055878080610cc1565b81810151835560209485019460019093019290910190610ca6565b015190508780610a28565b9250600485016000526020600020906000935b601f1984168510610d67576001945083601f19811610610d4e575b505050811b016004830155610a40565b015160001960f88460031b161c19169055878080610d3e565b81810151835560209485019460019093019290910190610d23565b0151905087806109c8565b9250600385016000526020600020906000935b601f1984168510610de4576001945083601f19811610610dcb575b505050811b0160038301556109e0565b015160001960f88460031b161c19169055878080610dbb565b81810151835560209485019460019093019290910190610da0565b3461015d5760208060031936011261015d57600435908160005260048152604060002060ff60068201541615611045576001546005820180546040516323b872dd60e01b815233600482015230602482015260448101919091526001600160a01b0394928390829060649082906000908a165af1908115610fd757600091611028575b50156110165754600354808202908282041482151715611000576127109004908181039081116110005760015460025460405163a9059cbb60e01b8082529188166001600160a01b031660048201526024810194909452929590849087908316816000816044810103925af1928315610fd757610f3d968594610fe3575b5060015460028701546040519283526001600160a01b03908416166004830152602482019390935295869290911690829060009082906044820190565b03925af1928315610fd757600f93610faa575b50836000526005815260406000209033600052526040600020600160ff1982541617905501610f7f8154611570565b905533907f7df22c96b281580cd377eae9f79b72ddd9b187b24c4e08864ee83899c2b1d5a6600080a3005b610fc990823d8411610fd0575b610fc181836113e4565b81019061163a565b5084610f50565b503d610fb7565b6040513d6000823e3d90fd5b610ff990853d8711610fd057610fc181836113e4565b5088610f00565b634e487b7160e01b600052601160045260246000fd5b604051636992e1ff60e01b8152600490fd5b61103f9150833d8511610fd057610fc181836113e4565b86610e82565b604051632293bb1f60e21b8152600490fd5b3461015d57608036600319011261015d576001600160401b0360043560243582811161015d5761108b9036906004016114eb565b9092826000526020916004835260406000209160018060a01b03600284015416330361062d576001928381019182546111f557600782019084116105a2576110dd846110d7835461138e565b836115c5565b6000601f8511600114611169579284928692611159967fe6ec111eaebbb363de7be95e0f045e2155a53226c0c467b5b54fd5fdc29975979a9b9660009161115e575b50600019600387901b1c191685851b1790555b60443560088201556009606435910155556040805195869586528501526040840191611619565b0390a2005b90508601358c61111f565b601f1985169082600052876000209160005b8181106111e05750927fe6ec111eaebbb363de7be95e0f045e2155a53226c0c467b5b54fd5fdc2997597999a9592879592611159988a96106111c6575b50508385811b019055611132565b870135600019600388901b60f8161c191690558b806111b8565b8b83013584559288019291890191890161117b565b604051631bce28eb60e11b8152600490fd5b3461015d57602036600319011261015d57600480356000908152602091909152604090208054600182015460028301546001600160a01b0316929061124e60038301611405565b9361125b60048401611405565b6005840154600685015460ff1661127460078701611405565b600887015492600988015492600a890161128d90611405565b95600b8a01549b600c8b015498600d8c01549a600e8d01549c600f01549d604051806080525260805160200152608051604001526102008060805160600152608051016112d9916114ab565b60805180820390608001526112ed916114ab565b9160805160a00152151560805160c001526080518082039060e00152611312916114ab565b9160805161010001526080516101200152608051808203906101400152611338916114ab565b94608051610160015260805161018001526080516101a001526080516101c001526080516101e0015260805180910390f35b3461015d57600036600319011261015d576001546001600160a01b03168152602090f35b90600182811c921680156113be575b60208310146113a857565b634e487b7160e01b600052602260045260246000fd5b91607f169161139d565b61020081019081106001600160401b038211176105a257604052565b90601f801991011681019081106001600160401b038211176105a257604052565b90604051918260008254926114198461138e565b9081845260019485811690816000146114885750600114611445575b5050611443925003836113e4565b565b9093915060005260209081600020936000915b81831061147057505061144393508201013880611435565b85548884018501529485019487945091830191611458565b91505061144394506020925060ff191682840152151560051b8201013880611435565b919082519283825260005b8481106114d7575050826000602080949584010152601f8019910116010190565b6020818301810151848301820152016114b6565b9181601f8401121561015d578235916001600160401b03831161015d576020838186019501011161015d57565b602435906001600160a01b038216820361015d57565b600435906001600160a01b038216820361015d57565b6000546001600160a01b0316330361155857565b60405163118cdaa760e01b8152336004820152602490fd5b60001981146110005760010190565b9291926001600160401b0382116105a257604051916115a8601f8201601f1916602001846113e4565b82948184528183011161015d578281602093846000960137010152565b90601f81116115d357505050565b600091825260208220906020601f850160051c8301941061160f575b601f0160051c01915b82811061160457505050565b8181556001016115f8565b90925082906115ef565b908060209392818452848401376000828201840152601f01601f1916010190565b9081602091031261015d5751801515810361015d579056fea2646970667358221220d5bfe623749a7418644e6d9ae97dd358f274275bd599978075d1d32d9d4b27c564736f6c63430008140033","opcodes":"PUSH1 0x80 CALLVALUE PUSH2 0xE7 JUMPI PUSH1 0x1F PUSH2 0x179F CODESIZE DUP2 SWAP1 SUB SWAP2 DUP3 ADD PUSH1 0x1F NOT AND DUP4 ADD SWAP2 PUSH1 0x1 PUSH1 0x1 PUSH1 0x40 SHL SUB DUP4 GT DUP5 DUP5 LT OR PUSH2 0xEC JUMPI DUP1 DUP5 SWAP3 PUSH1 0x40 SWAP5 DUP6 MSTORE DUP4 CODECOPY DUP2 ADD SUB SLT PUSH2 0xE7 JUMPI PUSH2 0x52 PUSH1 0x20 PUSH2 0x4B DUP4 PUSH2 0x102 JUMP JUMPDEST SWAP3 ADD PUSH2 0x102 JUMP JUMPDEST CALLER ISZERO PUSH2 0xCE JUMPI PUSH1 0x0 DUP1 SLOAD CALLER PUSH1 0x1 PUSH1 0x1 PUSH1 0xA0 SHL SUB NOT DUP1 DUP4 AND DUP3 OR DUP5 SSTORE PUSH1 0x40 MLOAD SWAP6 SWAP1 SWAP5 PUSH1 0x1 PUSH1 0x1 PUSH1 0xA0 SHL SUB SWAP5 SWAP1 SWAP4 DUP6 SWAP4 SWAP2 SWAP1 DUP5 AND SWAP1 PUSH32 0x8BE0079C531659141344CD1FD0A4F28419497F9722A3DAAFE3B4186F6B6457E0 SWAP1 DUP1 LOG3 PUSH1 0xFA PUSH1 0x3 SSTORE AND DUP4 PUSH1 0x1 SLOAD AND OR PUSH1 0x1 SSTORE AND SWAP1 PUSH1 0x2 SLOAD AND OR PUSH1 0x2 SSTORE PUSH2 0x1688 SWAP1 DUP2 PUSH2 0x117 DUP3 CODECOPY RETURN JUMPDEST PUSH1 0x40 MLOAD PUSH4 0x1E4FBDF7 PUSH1 0xE0 SHL DUP2 MSTORE PUSH1 0x0 PUSH1 0x4 DUP3 ADD MSTORE PUSH1 0x24 SWAP1 REVERT JUMPDEST PUSH1 0x0 DUP1 REVERT JUMPDEST PUSH4 0x4E487B71 PUSH1 0xE0 SHL PUSH1 0x0 MSTORE PUSH1 0x41 PUSH1 0x4 MSTORE PUSH1 0x24 PUSH1 0x0 REVERT JUMPDEST MLOAD SWAP1 PUSH1 0x1 PUSH1 0x1 PUSH1 0xA0 SHL SUB DUP3 AND DUP3 SUB PUSH2 0xE7 JUMPI JUMP INVALID PUSH1 0xA0 DUP1 PUSH1 0x40 MSTORE PUSH1 0x4 CALLDATASIZE LT ISZERO PUSH2 0x13 JUMPI PUSH1 0x0 DUP1 REVERT JUMPDEST PUSH1 0x0 CALLDATALOAD PUSH1 0xE0 SHR SWAP1 DUP2 PUSH4 0x11EAC855 EQ PUSH2 0x136A JUMPI POP DUP1 PUSH4 0x1CFF85E1 EQ PUSH2 0x1207 JUMPI DUP1 PUSH4 0x1D2ADE8D EQ PUSH2 0x1057 JUMPI DUP1 PUSH4 0x49EE56F9 EQ PUSH2 0xDFF JUMPI DUP1 PUSH4 0x49FE92CB EQ PUSH2 0x7E7 JUMPI DUP1 PUSH4 0x61D027B3 EQ PUSH2 0x7BE JUMPI DUP1 PUSH4 0x715018A6 EQ PUSH2 0x765 JUMPI DUP1 PUSH4 0x87910CEF EQ PUSH2 0x718 JUMPI DUP1 PUSH4 0x8DA5CB5B EQ PUSH2 0x6EF JUMPI DUP1 PUSH4 0x8E50E509 EQ PUSH2 0x6D1 JUMPI DUP1 PUSH4 0xCED14198 EQ PUSH2 0x660 JUMPI DUP1 PUSH4 0xD8A5E936 EQ PUSH2 0x63F JUMPI DUP1 PUSH4 0xD9C63126 EQ PUSH2 0x413 JUMPI DUP1 PUSH4 0xEE004221 EQ PUSH2 0x1A5 JUMPI DUP1 PUSH4 0xF0F44260 EQ PUSH2 0x162 JUMPI PUSH4 0xF2FDE38B EQ PUSH2 0xCF JUMPI PUSH1 0x0 DUP1 REVERT JUMPDEST CALLVALUE PUSH2 0x15D JUMPI PUSH1 0x20 CALLDATASIZE PUSH1 0x3 NOT ADD SLT PUSH2 0x15D JUMPI PUSH2 0xE8 PUSH2 0x152E JUMP JUMPDEST PUSH2 0xF0 PUSH2 0x1544 JUMP JUMPDEST PUSH1 0x1 PUSH1 0x1 PUSH1 0xA0 SHL SUB SWAP1 DUP2 AND SWAP1 DUP2 ISZERO PUSH2 0x144 JUMPI PUSH1 0x0 SLOAD DUP3 PUSH12 0xFFFFFFFFFFFFFFFFFFFFFFFF PUSH1 0xA0 SHL DUP3 AND OR PUSH1 0x0 SSTORE AND PUSH32 0x8BE0079C531659141344CD1FD0A4F28419497F9722A3DAAFE3B4186F6B6457E0 PUSH1 0x0 DUP1 LOG3 STOP JUMPDEST PUSH1 0x40 MLOAD PUSH4 0x1E4FBDF7 PUSH1 0xE0 SHL DUP2 MSTORE PUSH1 0x0 PUSH1 0x4 DUP3 ADD MSTORE PUSH1 0x24 SWAP1 REVERT JUMPDEST PUSH1 0x0 DUP1 REVERT JUMPDEST CALLVALUE PUSH2 0x15D JUMPI PUSH1 0x20 CALLDATASIZE PUSH1 0x3 NOT ADD SLT PUSH2 0x15D JUMPI PUSH2 0x17B PUSH2 0x152E JUMP JUMPDEST PUSH2 0x183 PUSH2 0x1544 JUMP JUMPDEST PUSH1 0x2 DUP1 SLOAD PUSH1 0x1 PUSH1 0x1 PUSH1 0xA0 SHL SUB NOT AND PUSH1 0x1 PUSH1 0x1 PUSH1 0xA0 SHL SUB SWAP3 SWAP1 SWAP3 AND SWAP2 SWAP1 SWAP2 OR SWAP1 SSTORE STOP JUMPDEST CALLVALUE PUSH2 0x15D JUMPI PUSH1 0x20 CALLDATASIZE PUSH1 0x3 NOT ADD SLT PUSH2 0x15D JUMPI PUSH1 0x0 PUSH2 0x1E0 PUSH1 0x40 MLOAD PUSH2 0x1C7 DUP2 PUSH2 0x13C8 JUMP JUMPDEST DUP3 DUP2 MSTORE DUP3 PUSH1 0x20 DUP3 ADD MSTORE DUP3 PUSH1 0x40 DUP3 ADD MSTORE PUSH1 0x60 DUP1 DUP3 ADD MSTORE PUSH1 0x60 PUSH1 0x80 DUP3 ADD MSTORE DUP3 PUSH1 0xA0 DUP3 ADD MSTORE DUP3 PUSH1 0xC0 DUP3 ADD MSTORE PUSH1 0x60 PUSH1 0xE0 DUP3 ADD MSTORE DUP3 PUSH2 0x100 DUP3 ADD MSTORE DUP3 PUSH2 0x120 DUP3 ADD MSTORE PUSH1 0x60 PUSH2 0x140 DUP3 ADD MSTORE DUP3 PUSH2 0x160 DUP3 ADD MSTORE DUP3 PUSH2 0x180 DUP3 ADD MSTORE DUP3 PUSH2 0x1A0 DUP3 ADD MSTORE DUP3 PUSH2 0x1C0 DUP3 ADD MSTORE ADD MSTORE PUSH1 0x4 CALLDATALOAD PUSH1 0x0 MSTORE PUSH1 0x4 PUSH1 0x20 MSTORE PUSH1 0x40 PUSH1 0x0 KECCAK256 PUSH1 0xF PUSH1 0x40 MLOAD SWAP2 PUSH2 0x249 DUP4 PUSH2 0x13C8 JUMP JUMPDEST DUP1 SLOAD DUP4 MSTORE PUSH1 0x1 DUP2 ADD SLOAD PUSH1 0x20 DUP5 ADD MSTORE PUSH1 0x2 DUP2 ADD SLOAD PUSH1 0x1 PUSH1 0x1 PUSH1 0xA0 SHL SUB AND PUSH1 0x40 DUP5 ADD MSTORE PUSH2 0x276 PUSH1 0x3 DUP3 ADD PUSH2 0x1405 JUMP JUMPDEST PUSH1 0x60 DUP5 ADD MSTORE PUSH2 0x287 PUSH1 0x4 DUP3 ADD PUSH2 0x1405 JUMP JUMPDEST PUSH1 0x80 DUP5 ADD MSTORE PUSH1 0x5 DUP2 ADD SLOAD PUSH1 0xA0 DUP5 ADD MSTORE PUSH1 0xFF PUSH1 0x6 DUP3 ADD SLOAD AND ISZERO ISZERO PUSH1 0xC0 DUP5 ADD MSTORE PUSH2 0x2B1 PUSH1 0x7 DUP3 ADD PUSH2 0x1405 JUMP JUMPDEST PUSH1 0xE0 DUP5 ADD MSTORE PUSH1 0x8 DUP2 ADD SLOAD PUSH2 0x100 DUP5 ADD MSTORE PUSH1 0x9 DUP2 ADD SLOAD PUSH2 0x120 DUP5 ADD MSTORE PUSH2 0x2D8 PUSH1 0xA DUP3 ADD PUSH2 0x1405 JUMP JUMPDEST PUSH2 0x140 DUP5 ADD MSTORE PUSH1 0xB DUP2 ADD SLOAD PUSH2 0x160 DUP5 ADD MSTORE PUSH1 0xC DUP2 ADD SLOAD PUSH2 0x180 DUP5 ADD MSTORE PUSH1 0xD DUP2 ADD SLOAD PUSH2 0x1A0 DUP5 ADD MSTORE PUSH1 0xE DUP2 ADD SLOAD PUSH2 0x1C0 DUP5 ADD MSTORE ADD SLOAD PUSH2 0x1E0 DUP3 ADD MSTORE PUSH1 0x40 MLOAD DUP1 SWAP2 PUSH1 0x20 DUP3 MSTORE DUP1 MLOAD PUSH1 0x20 DUP4 ADD MSTORE PUSH1 0x20 DUP2 ADD MLOAD PUSH1 0x40 DUP4 ADD MSTORE PUSH1 0x1 DUP1 PUSH1 0xA0 SHL SUB PUSH1 0x40 DUP3 ADD MLOAD AND PUSH1 0x60 DUP4 ADD MSTORE PUSH2 0x1E0 PUSH2 0x3D8 PUSH2 0x35F PUSH1 0x60 DUP5 ADD MLOAD PUSH2 0x200 PUSH1 0x80 DUP8 ADD MSTORE PUSH2 0x220 DUP7 ADD SWAP1 PUSH2 0x14AB JUMP JUMPDEST PUSH2 0x3A9 PUSH2 0x37E PUSH1 0x80 DUP7 ADD MLOAD SWAP3 PUSH1 0x1F NOT SWAP4 DUP5 DUP10 DUP4 SUB ADD PUSH1 0xA0 DUP11 ADD MSTORE PUSH2 0x14AB JUMP JUMPDEST PUSH1 0xA0 DUP7 ADD MLOAD PUSH1 0xC0 DUP9 ADD MSTORE PUSH1 0xC0 DUP7 ADD MLOAD ISZERO ISZERO PUSH1 0xE0 DUP9 ADD MSTORE PUSH1 0xE0 DUP7 ADD MLOAD DUP4 DUP9 DUP4 SUB ADD PUSH2 0x100 DUP10 ADD MSTORE PUSH2 0x14AB JUMP JUMPDEST SWAP1 PUSH2 0x100 DUP6 ADD MLOAD PUSH2 0x120 DUP8 ADD MSTORE PUSH2 0x120 DUP6 ADD MLOAD PUSH2 0x140 DUP8 ADD MSTORE PUSH2 0x140 DUP6 ADD MLOAD SWAP1 DUP7 DUP4 SUB ADD PUSH2 0x160 DUP8 ADD MSTORE PUSH2 0x14AB JUMP JUMPDEST SWAP2 PUSH2 0x160 DUP2 ADD MLOAD PUSH2 0x180 DUP6 ADD MSTORE PUSH2 0x180 DUP2 ADD MLOAD PUSH2 0x1A0 DUP6 ADD MSTORE PUSH2 0x1A0 DUP2 ADD MLOAD PUSH2 0x1C0 DUP6 ADD MSTORE PUSH2 0x1C0 DUP2 ADD MLOAD DUP3 DUP6 ADD MSTORE ADD MLOAD PUSH2 0x200 DUP4 ADD MSTORE SUB SWAP1 RETURN JUMPDEST CALLVALUE PUSH2 0x15D JUMPI PUSH1 0x80 CALLDATASIZE PUSH1 0x3 NOT ADD SLT PUSH2 0x15D JUMPI PUSH1 0x1 PUSH1 0x1 PUSH1 0x40 SHL SUB PUSH1 0x24 CALLDATALOAD DUP2 DUP2 GT PUSH2 0x15D JUMPI PUSH2 0x444 SWAP1 CALLDATASIZE SWAP1 PUSH1 0x4 ADD PUSH2 0x14EB JUMP JUMPDEST SWAP1 SWAP2 PUSH1 0x44 CALLDATALOAD DUP2 DUP2 GT PUSH2 0x15D JUMPI PUSH2 0x45E SWAP1 CALLDATASIZE SWAP1 PUSH1 0x4 ADD PUSH2 0x14EB JUMP JUMPDEST SWAP1 PUSH1 0x4 CALLDATALOAD PUSH1 0x0 MSTORE PUSH1 0x20 SWAP5 PUSH1 0x4 DUP7 MSTORE PUSH1 0x40 PUSH1 0x0 KECCAK256 SWAP5 PUSH1 0x1 DUP1 PUSH1 0xA0 SHL SUB PUSH1 0x2 DUP8 ADD SLOAD AND CALLER SUB PUSH2 0x62D JUMPI PUSH1 0x3 DUP7 ADD SWAP2 DUP6 DUP3 GT PUSH2 0x5A2 JUMPI DUP2 SWAP1 PUSH2 0x4A7 DUP3 PUSH2 0x4A1 DUP7 SLOAD PUSH2 0x138E JUMP JUMPDEST DUP7 PUSH2 0x15C5 JUMP JUMPDEST PUSH1 0x0 SWAP1 PUSH1 0x1F DUP4 GT PUSH1 0x1 EQ PUSH2 0x5C3 JUMPI PUSH1 0x0 SWAP3 PUSH2 0x5B8 JUMPI JUMPDEST POP POP DUP2 PUSH1 0x1 SHL SWAP2 PUSH1 0x0 NOT SWAP1 PUSH1 0x3 SHL SHR NOT AND OR SWAP1 SSTORE JUMPDEST PUSH1 0x4 DUP5 ADD SWAP3 DUP3 GT PUSH2 0x5A2 JUMPI PUSH2 0x4F1 DUP3 PUSH2 0x4EB DUP6 SLOAD PUSH2 0x138E JUMP JUMPDEST DUP6 PUSH2 0x15C5 JUMP JUMPDEST PUSH1 0x0 SWAP5 PUSH1 0x1F DUP4 GT PUSH1 0x1 EQ PUSH2 0x53A JUMPI POP SWAP4 DUP2 SWAP3 SWAP4 SWAP5 PUSH1 0x0 SWAP3 PUSH2 0x52F JUMPI JUMPDEST POP POP DUP2 PUSH1 0x1 SHL SWAP2 PUSH1 0x0 NOT SWAP1 PUSH1 0x3 SHL SHR NOT AND OR SWAP1 SSTORE JUMPDEST PUSH1 0x5 PUSH1 0x64 CALLDATALOAD SWAP2 ADD SSTORE PUSH1 0x0 DUP1 RETURN JUMPDEST ADD CALLDATALOAD SWAP1 POP DUP5 DUP1 PUSH2 0x50D JUMP JUMPDEST SWAP1 PUSH1 0x1F NOT DUP4 AND SWAP6 DUP5 PUSH1 0x0 MSTORE DUP3 PUSH1 0x0 KECCAK256 SWAP3 PUSH1 0x0 SWAP1 JUMPDEST DUP9 DUP3 LT PUSH2 0x58A JUMPI POP POP DUP4 PUSH1 0x1 SWAP6 SWAP7 SWAP8 LT PUSH2 0x570 JUMPI JUMPDEST POP POP POP DUP2 SHL ADD SWAP1 SSTORE PUSH2 0x522 JUMP JUMPDEST ADD CALLDATALOAD PUSH1 0x0 NOT PUSH1 0x3 DUP5 SWAP1 SHL PUSH1 0xF8 AND SHR NOT AND SWAP1 SSTORE DUP5 DUP1 DUP1 PUSH2 0x563 JUMP JUMPDEST DUP1 PUSH1 0x1 DUP5 SWAP7 DUP3 SWAP5 SWAP6 DUP8 ADD CALLDATALOAD DUP2 SSTORE ADD SWAP6 ADD SWAP3 ADD SWAP1 PUSH2 0x54E JUMP JUMPDEST PUSH4 0x4E487B71 PUSH1 0xE0 SHL PUSH1 0x0 MSTORE PUSH1 0x41 PUSH1 0x4 MSTORE PUSH1 0x24 PUSH1 0x0 REVERT JUMPDEST ADD CALLDATALOAD SWAP1 POP DUP9 DUP1 PUSH2 0x4BD JUMP JUMPDEST SWAP1 SWAP2 POP PUSH1 0x1F NOT DUP4 AND SWAP2 DUP5 PUSH1 0x0 MSTORE DUP10 PUSH1 0x0 KECCAK256 SWAP3 PUSH1 0x0 JUMPDEST DUP12 DUP3 DUP3 LT PUSH2 0x617 JUMPI POP POP SWAP1 DUP5 PUSH1 0x1 SWAP6 SWAP5 SWAP4 SWAP3 LT PUSH2 0x5FD JUMPI JUMPDEST POP POP POP DUP2 SHL ADD SWAP1 SSTORE PUSH2 0x4D2 JUMP JUMPDEST ADD CALLDATALOAD PUSH1 0x0 NOT PUSH1 0x3 DUP5 SWAP1 SHL PUSH1 0xF8 AND SHR NOT AND SWAP1 SSTORE DUP9 DUP1 DUP1 PUSH2 0x5F0 JUMP JUMPDEST PUSH1 0x1 DUP5 SWAP7 DUP3 SWAP4 SWAP6 DUP8 ADD CALLDATALOAD DUP2 SSTORE ADD SWAP6 ADD SWAP3 ADD PUSH2 0x5D8 JUMP JUMPDEST PUSH1 0x40 MLOAD PUSH4 0x72E22E7F PUSH1 0xE1 SHL DUP2 MSTORE PUSH1 0x4 SWAP1 REVERT JUMPDEST CALLVALUE PUSH2 0x15D JUMPI PUSH1 0x20 CALLDATASIZE PUSH1 0x3 NOT ADD SLT PUSH2 0x15D JUMPI PUSH2 0x658 PUSH2 0x1544 JUMP JUMPDEST PUSH1 0x4 CALLDATALOAD PUSH1 0x3 SSTORE STOP JUMPDEST CALLVALUE PUSH2 0x15D JUMPI PUSH1 0x40 CALLDATASIZE PUSH1 0x3 NOT ADD SLT PUSH2 0x15D JUMPI PUSH2 0x679 PUSH2 0x1518 JUMP JUMPDEST PUSH1 0x4 CALLDATALOAD PUSH1 0x0 MSTORE PUSH1 0x4 PUSH1 0x20 MSTORE PUSH1 0x1 DUP1 PUSH1 0xA0 SHL SUB DUP1 PUSH1 0x2 PUSH1 0x40 PUSH1 0x0 KECCAK256 ADD SLOAD AND SWAP2 AND DUP1 SWAP2 EQ DUP1 ISZERO PUSH2 0x6AF JUMPI JUMPDEST PUSH1 0x20 SWAP1 PUSH1 0x40 MLOAD SWAP1 ISZERO ISZERO DUP2 MSTORE RETURN JUMPDEST POP PUSH1 0x5 PUSH1 0x20 MSTORE PUSH1 0x40 PUSH1 0x0 KECCAK256 SWAP1 PUSH1 0x0 MSTORE PUSH1 0x20 MSTORE PUSH1 0x20 PUSH1 0xFF PUSH1 0x40 PUSH1 0x0 KECCAK256 SLOAD AND PUSH2 0x6A2 JUMP JUMPDEST CALLVALUE PUSH2 0x15D JUMPI PUSH1 0x0 CALLDATASIZE PUSH1 0x3 NOT ADD SLT PUSH2 0x15D JUMPI PUSH1 0x20 PUSH1 0x3 SLOAD PUSH1 0x40 MLOAD SWAP1 DUP2 MSTORE RETURN JUMPDEST CALLVALUE PUSH2 0x15D JUMPI PUSH1 0x0 CALLDATASIZE PUSH1 0x3 NOT ADD SLT PUSH2 0x15D JUMPI PUSH1 0x0 SLOAD PUSH1 0x40 MLOAD PUSH1 0x1 PUSH1 0x1 PUSH1 0xA0 SHL SUB SWAP1 SWAP2 AND DUP2 MSTORE PUSH1 0x20 SWAP1 RETURN JUMPDEST CALLVALUE PUSH2 0x15D JUMPI PUSH1 0x40 CALLDATASIZE PUSH1 0x3 NOT ADD SLT PUSH2 0x15D JUMPI PUSH2 0x731 PUSH2 0x1518 JUMP JUMPDEST PUSH1 0x4 CALLDATALOAD PUSH1 0x0 MSTORE PUSH1 0x5 PUSH1 0x20 MSTORE PUSH1 0x40 PUSH1 0x0 KECCAK256 SWAP1 PUSH1 0x1 DUP1 PUSH1 0xA0 SHL SUB AND PUSH1 0x0 MSTORE PUSH1 0x20 MSTORE PUSH1 0x20 PUSH1 0xFF PUSH1 0x40 PUSH1 0x0 KECCAK256 SLOAD AND PUSH1 0x40 MLOAD SWAP1 ISZERO ISZERO DUP2 MSTORE RETURN JUMPDEST CALLVALUE PUSH2 0x15D JUMPI PUSH1 0x0 CALLDATASIZE PUSH1 0x3 NOT ADD SLT PUSH2 0x15D JUMPI PUSH2 0x77E PUSH2 0x1544 JUMP JUMPDEST PUSH1 0x0 DUP1 SLOAD PUSH1 0x1 PUSH1 0x1 PUSH1 0xA0 SHL SUB NOT DUP2 AND DUP3 SSTORE PUSH1 0x1 PUSH1 0x1 PUSH1 0xA0 SHL SUB AND PUSH32 0x8BE0079C531659141344CD1FD0A4F28419497F9722A3DAAFE3B4186F6B6457E0 DUP3 DUP1 LOG3 STOP JUMPDEST CALLVALUE PUSH2 0x15D JUMPI PUSH1 0x0 CALLDATASIZE PUSH1 0x3 NOT ADD SLT PUSH2 0x15D JUMPI PUSH1 0x2 SLOAD PUSH1 0x40 MLOAD PUSH1 0x1 PUSH1 0x1 PUSH1 0xA0 SHL SUB SWAP1 SWAP2 AND DUP2 MSTORE PUSH1 0x20 SWAP1 RETURN JUMPDEST CALLVALUE PUSH2 0x15D JUMPI PUSH2 0x120 CALLDATASIZE PUSH1 0x3 NOT ADD SLT PUSH2 0x15D JUMPI PUSH1 0x4 CALLDATALOAD PUSH1 0x1 PUSH1 0x1 PUSH1 0x40 SHL SUB DUP2 GT PUSH2 0x15D JUMPI PUSH2 0x818 SWAP1 CALLDATASIZE SWAP1 PUSH1 0x4 ADD PUSH2 0x14EB JUMP JUMPDEST SWAP1 PUSH1 0x24 CALLDATALOAD PUSH1 0x1 PUSH1 0x1 PUSH1 0x40 SHL SUB DUP2 GT PUSH2 0x15D JUMPI PUSH2 0x838 SWAP1 CALLDATASIZE SWAP1 PUSH1 0x4 ADD PUSH2 0x14EB JUMP JUMPDEST SWAP3 SWAP1 SWAP2 PUSH1 0x64 CALLDATALOAD DUP1 ISZERO ISZERO DUP2 SUB PUSH2 0x15D JUMPI PUSH1 0x84 CALLDATALOAD PUSH1 0x1 PUSH1 0x1 PUSH1 0x40 SHL SUB DUP2 GT PUSH2 0x15D JUMPI PUSH2 0x866 SWAP1 CALLDATASIZE SWAP1 PUSH1 0x4 ADD PUSH2 0x14EB JUMP JUMPDEST SWAP2 PUSH2 0x8AE PUSH1 0x6 SLOAD SWAP7 PUSH2 0x877 DUP9 PUSH2 0x1570 JUMP JUMPDEST PUSH1 0x6 SSTORE PUSH1 0x40 MLOAD SWAP9 PUSH2 0x887 DUP11 PUSH2 0x13C8 JUMP JUMPDEST DUP9 DUP11 MSTORE PUSH1 0x0 PUSH1 0x20 DUP12 ADD MSTORE CALLER PUSH1 0x40 DUP12 ADD MSTORE PUSH2 0x8A2 CALLDATASIZE DUP10 DUP10 PUSH2 0x157F JUMP JUMPDEST PUSH1 0x60 DUP12 ADD MSTORE CALLDATASIZE SWAP2 PUSH2 0x157F JUMP JUMPDEST PUSH1 0x80 DUP9 ADD MSTORE PUSH1 0x44 CALLDATALOAD PUSH1 0xA0 DUP9 ADD MSTORE ISZERO ISZERO PUSH1 0xC0 DUP8 ADD MSTORE PUSH1 0x40 MLOAD SWAP2 DUP3 PUSH1 0x20 DUP2 ADD LT PUSH1 0x1 PUSH1 0x1 PUSH1 0x40 SHL SUB PUSH1 0x20 DUP6 ADD GT OR PUSH2 0x5A2 JUMPI DUP3 PUSH1 0x20 PUSH2 0x909 SWAP5 ADD PUSH1 0x40 MSTORE PUSH1 0x0 DUP2 MSTORE PUSH1 0xE0 DUP9 ADD MSTORE PUSH1 0x0 PUSH2 0x100 DUP9 ADD MSTORE PUSH1 0x0 PUSH2 0x120 DUP9 ADD MSTORE CALLDATASIZE SWAP2 PUSH2 0x157F JUMP JUMPDEST PUSH2 0x140 DUP6 ADD MSTORE PUSH1 0xA4 CALLDATALOAD PUSH2 0x160 DUP6 ADD MSTORE PUSH1 0xC4 CALLDATALOAD PUSH2 0x180 DUP6 ADD MSTORE PUSH1 0xE4 CALLDATALOAD PUSH2 0x1A0 DUP6 ADD MSTORE PUSH2 0x104 CALLDATALOAD PUSH2 0x1C0 DUP6 ADD MSTORE PUSH1 0x0 PUSH2 0x1E0 DUP6 ADD MSTORE DUP3 PUSH1 0x0 MSTORE PUSH1 0x4 PUSH1 0x20 MSTORE PUSH1 0x40 PUSH1 0x0 KECCAK256 SWAP1 DUP5 MLOAD DUP3 SSTORE PUSH1 0x20 DUP6 ADD MLOAD PUSH1 0x1 DUP4 ADD SSTORE PUSH1 0x2 DUP3 ADD PUSH1 0x1 DUP1 PUSH1 0xA0 SHL SUB PUSH1 0x40 DUP8 ADD MLOAD AND PUSH12 0xFFFFFFFFFFFFFFFFFFFFFFFF PUSH1 0xA0 SHL DUP3 SLOAD AND OR SWAP1 SSTORE PUSH1 0x60 DUP6 ADD MLOAD DUP1 MLOAD SWAP1 PUSH1 0x1 PUSH1 0x1 PUSH1 0x40 SHL SUB DUP3 GT PUSH2 0x5A2 JUMPI DUP2 SWAP1 PUSH2 0x9B2 DUP3 PUSH2 0x9A9 PUSH1 0x3 DUP9 ADD SLOAD PUSH2 0x138E JUMP JUMPDEST PUSH1 0x3 DUP9 ADD PUSH2 0x15C5 JUMP JUMPDEST PUSH1 0x20 SWAP1 PUSH1 0x1F DUP4 GT PUSH1 0x1 EQ PUSH2 0xD8D JUMPI PUSH1 0x0 SWAP3 PUSH2 0xD82 JUMPI JUMPDEST POP POP DUP2 PUSH1 0x1 SHL SWAP2 PUSH1 0x0 NOT SWAP1 PUSH1 0x3 SHL SHR NOT AND OR PUSH1 0x3 DUP4 ADD SSTORE JUMPDEST PUSH1 0x80 DUP6 ADD MLOAD DUP1 MLOAD SWAP1 PUSH1 0x1 PUSH1 0x1 PUSH1 0x40 SHL SUB DUP3 GT PUSH2 0x5A2 JUMPI DUP2 SWAP1 PUSH2 0xA12 DUP3 PUSH2 0xA09 PUSH1 0x4 DUP9 ADD SLOAD PUSH2 0x138E JUMP JUMPDEST PUSH1 0x4 DUP9 ADD PUSH2 0x15C5 JUMP JUMPDEST PUSH1 0x20 SWAP1 PUSH1 0x1F DUP4 GT PUSH1 0x1 EQ PUSH2 0xD10 JUMPI PUSH1 0x0 SWAP3 PUSH2 0xD05 JUMPI JUMPDEST POP POP DUP2 PUSH1 0x1 SHL SWAP2 PUSH1 0x0 NOT SWAP1 PUSH1 0x3 SHL SHR NOT AND OR PUSH1 0x4 DUP4 ADD SSTORE JUMPDEST PUSH1 0xA0 DUP6 ADD MLOAD PUSH1 0x5 DUP4 ADD SSTORE PUSH1 0xC0 DUP6 ADD MLOAD ISZERO ISZERO PUSH1 0xFF DUP1 NOT PUSH1 0x6 DUP6 ADD SLOAD AND SWAP2 AND OR PUSH1 0x6 DUP4 ADD SSTORE PUSH1 0xE0 DUP6 ADD MLOAD DUP1 MLOAD SWAP1 PUSH1 0x1 PUSH1 0x1 PUSH1 0x40 SHL SUB DUP3 GT PUSH2 0x5A2 JUMPI DUP2 SWAP1 PUSH2 0xA95 DUP3 PUSH2 0xA8C PUSH1 0x7 DUP9 ADD SLOAD PUSH2 0x138E JUMP JUMPDEST PUSH1 0x7 DUP9 ADD PUSH2 0x15C5 JUMP JUMPDEST PUSH1 0x20 SWAP1 PUSH1 0x1F DUP4 GT PUSH1 0x1 EQ PUSH2 0xC93 JUMPI PUSH1 0x0 SWAP3 PUSH2 0xC88 JUMPI JUMPDEST POP POP DUP2 PUSH1 0x1 SHL SWAP2 PUSH1 0x0 NOT SWAP1 PUSH1 0x3 SHL SHR NOT AND OR PUSH1 0x7 DUP4 ADD SSTORE JUMPDEST PUSH2 0x100 DUP6 ADD MLOAD PUSH1 0x8 DUP4 ADD SSTORE PUSH2 0x120 DUP6 ADD MLOAD PUSH1 0x9 DUP4 ADD SSTORE PUSH2 0x140 DUP6 ADD MLOAD SWAP2 DUP3 MLOAD SWAP6 PUSH1 0x1 PUSH1 0x1 PUSH1 0x40 SHL SUB DUP8 GT PUSH2 0x5A2 JUMPI DUP7 DUP7 SWAP5 PUSH2 0xB10 PUSH1 0x20 SWAP10 PUSH2 0xB07 PUSH1 0xA DUP8 ADD SLOAD PUSH2 0x138E JUMP JUMPDEST PUSH1 0xA DUP8 ADD PUSH2 0x15C5 JUMP JUMPDEST DUP9 SWAP1 PUSH1 0x1F DUP4 GT PUSH1 0x1 EQ PUSH2 0xBEB JUMPI PUSH32 0xEBDCBCE6C96378B8D55AF14FB1700ACCCB6779494C3A3313C8CF29CB8FC706FC SWAP6 SWAP4 DUP4 PUSH2 0xBD5 SWAP7 SWAP5 PUSH1 0xF SWAP5 PUSH2 0x1E0 SWAP5 PUSH1 0x0 SWAP3 PUSH2 0xBE0 JUMPI JUMPDEST POP POP DUP2 PUSH1 0x1 SHL SWAP2 PUSH1 0x0 NOT SWAP1 PUSH1 0x3 SHL SHR NOT AND OR PUSH1 0xA DUP6 ADD SSTORE JUMPDEST PUSH2 0x160 DUP2 ADD MLOAD PUSH1 0xB DUP6 ADD SSTORE PUSH2 0x180 DUP2 ADD MLOAD PUSH1 0xC DUP6 ADD SSTORE PUSH2 0x1A0 DUP2 ADD MLOAD PUSH1 0xD DUP6 ADD SSTORE PUSH2 0x1C0 DUP2 ADD MLOAD PUSH1 0xE DUP6 ADD SSTORE ADD MLOAD SWAP2 ADD SSTORE DUP4 PUSH1 0x0 MSTORE PUSH1 0x5 DUP8 MSTORE PUSH1 0x40 PUSH1 0x0 KECCAK256 CALLER PUSH1 0x0 MSTORE DUP8 MSTORE PUSH1 0x40 PUSH1 0x0 KECCAK256 PUSH1 0x1 PUSH1 0xFF NOT DUP3 SLOAD AND OR SWAP1 SSTORE PUSH1 0x40 MLOAD SWAP2 DUP3 SWAP2 DUP9 DUP4 MSTORE CALLER SWAP7 DUP10 DUP5 ADD SWAP2 PUSH2 0x1619 JUMP JUMPDEST SUB SWAP1 LOG3 PUSH1 0x40 MLOAD SWAP1 DUP2 MSTORE RETURN JUMPDEST ADD MLOAD SWAP1 POP DUP14 DUP1 PUSH2 0xB55 JUMP JUMPDEST SWAP1 PUSH1 0xA DUP6 ADD PUSH1 0x0 MSTORE DUP10 PUSH1 0x0 KECCAK256 SWAP2 PUSH1 0x0 JUMPDEST PUSH1 0x1F NOT DUP6 AND DUP2 LT PUSH2 0xC6E JUMPI POP SWAP4 PUSH1 0x1 DUP5 PUSH1 0xF SWAP5 PUSH2 0x1E0 SWAP5 PUSH32 0xEBDCBCE6C96378B8D55AF14FB1700ACCCB6779494C3A3313C8CF29CB8FC706FC SWAP11 SWAP9 PUSH2 0xBD5 SWAP11 SWAP9 PUSH1 0x1F NOT DUP2 AND LT PUSH2 0xC55 JUMPI JUMPDEST POP POP POP DUP2 SHL ADD PUSH1 0xA DUP6 ADD SSTORE PUSH2 0xB6D JUMP JUMPDEST ADD MLOAD PUSH1 0x0 NOT PUSH1 0xF8 DUP5 PUSH1 0x3 SHL AND SHR NOT AND SWAP1 SSTORE DUP14 DUP1 DUP1 PUSH2 0xC45 JUMP JUMPDEST DUP2 DUP4 ADD MLOAD DUP5 SSTORE DUP11 SWAP9 POP PUSH1 0x1 SWAP1 SWAP4 ADD SWAP3 SWAP2 DUP12 ADD SWAP2 DUP12 ADD PUSH2 0xBFB JUMP JUMPDEST ADD MLOAD SWAP1 POP DUP8 DUP1 PUSH2 0xAAB JUMP JUMPDEST SWAP3 POP PUSH1 0x7 DUP6 ADD PUSH1 0x0 MSTORE PUSH1 0x20 PUSH1 0x0 KECCAK256 SWAP1 PUSH1 0x0 SWAP4 JUMPDEST PUSH1 0x1F NOT DUP5 AND DUP6 LT PUSH2 0xCEA JUMPI PUSH1 0x1 SWAP5 POP DUP4 PUSH1 0x1F NOT DUP2 AND LT PUSH2 0xCD1 JUMPI JUMPDEST POP POP POP DUP2 SHL ADD PUSH1 0x7 DUP4 ADD SSTORE PUSH2 0xAC3 JUMP JUMPDEST ADD MLOAD PUSH1 0x0 NOT PUSH1 0xF8 DUP5 PUSH1 0x3 SHL AND SHR NOT AND SWAP1 SSTORE DUP8 DUP1 DUP1 PUSH2 0xCC1 JUMP JUMPDEST DUP2 DUP2 ADD MLOAD DUP4 SSTORE PUSH1 0x20 SWAP5 DUP6 ADD SWAP5 PUSH1 0x1 SWAP1 SWAP4 ADD SWAP3 SWAP1 SWAP2 ADD SWAP1 PUSH2 0xCA6 JUMP JUMPDEST ADD MLOAD SWAP1 POP DUP8 DUP1 PUSH2 0xA28 JUMP JUMPDEST SWAP3 POP PUSH1 0x4 DUP6 ADD PUSH1 0x0 MSTORE PUSH1 0x20 PUSH1 0x0 KECCAK256 SWAP1 PUSH1 0x0 SWAP4 JUMPDEST PUSH1 0x1F NOT DUP5 AND DUP6 LT PUSH2 0xD67 JUMPI PUSH1 0x1 SWAP5 POP DUP4 PUSH1 0x1F NOT DUP2 AND LT PUSH2 0xD4E JUMPI JUMPDEST POP POP POP DUP2 SHL ADD PUSH1 0x4 DUP4 ADD SSTORE PUSH2 0xA40 JUMP JUMPDEST ADD MLOAD PUSH1 0x0 NOT PUSH1 0xF8 DUP5 PUSH1 0x3 SHL AND SHR NOT AND SWAP1 SSTORE DUP8 DUP1 DUP1 PUSH2 0xD3E JUMP JUMPDEST DUP2 DUP2 ADD MLOAD DUP4 SSTORE PUSH1 0x20 SWAP5 DUP6 ADD SWAP5 PUSH1 0x1 SWAP1 SWAP4 ADD SWAP3 SWAP1 SWAP2 ADD SWAP1 PUSH2 0xD23 JUMP JUMPDEST ADD MLOAD SWAP1 POP DUP8 DUP1 PUSH2 0x9C8 JUMP JUMPDEST SWAP3 POP PUSH1 0x3 DUP6 ADD PUSH1 0x0 MSTORE PUSH1 0x20 PUSH1 0x0 KECCAK256 SWAP1 PUSH1 0x0 SWAP4 JUMPDEST PUSH1 0x1F NOT DUP5 AND DUP6 LT PUSH2 0xDE4 JUMPI PUSH1 0x1 SWAP5 POP DUP4 PUSH1 0x1F NOT DUP2 AND LT PUSH2 0xDCB JUMPI JUMPDEST POP POP POP DUP2 SHL ADD PUSH1 0x3 DUP4 ADD SSTORE PUSH2 0x9E0 JUMP JUMPDEST ADD MLOAD PUSH1 0x0 NOT PUSH1 0xF8 DUP5 PUSH1 0x3 SHL AND SHR NOT AND SWAP1 SSTORE DUP8 DUP1 DUP1 PUSH2 0xDBB JUMP JUMPDEST DUP2 DUP2 ADD MLOAD DUP4 SSTORE PUSH1 0x20 SWAP5 DUP6 ADD SWAP5 PUSH1 0x1 SWAP1 SWAP4 ADD SWAP3 SWAP1 SWAP2 ADD SWAP1 PUSH2 0xDA0 JUMP JUMPDEST CALLVALUE PUSH2 0x15D JUMPI PUSH1 0x20 DUP1 PUSH1 0x3 NOT CALLDATASIZE ADD SLT PUSH2 0x15D JUMPI PUSH1 0x4 CALLDATALOAD SWAP1 DUP2 PUSH1 0x0 MSTORE PUSH1 0x4 DUP2 MSTORE PUSH1 0x40 PUSH1 0x0 KECCAK256 PUSH1 0xFF PUSH1 0x6 DUP3 ADD SLOAD AND ISZERO PUSH2 0x1045 JUMPI PUSH1 0x1 SLOAD PUSH1 0x5 DUP3 ADD DUP1 SLOAD PUSH1 0x40 MLOAD PUSH4 0x23B872DD PUSH1 0xE0 SHL DUP2 MSTORE CALLER PUSH1 0x4 DUP3 ADD MSTORE ADDRESS PUSH1 0x24 DUP3 ADD MSTORE PUSH1 0x44 DUP2 ADD SWAP2 SWAP1 SWAP2 MSTORE PUSH1 0x1 PUSH1 0x1 PUSH1 0xA0 SHL SUB SWAP5 SWAP3 DUP4 SWAP1 DUP3 SWAP1 PUSH1 0x64 SWAP1 DUP3 SWAP1 PUSH1 0x0 SWAP1 DUP11 AND GAS CALL SWAP1 DUP2 ISZERO PUSH2 0xFD7 JUMPI PUSH1 0x0 SWAP2 PUSH2 0x1028 JUMPI JUMPDEST POP ISZERO PUSH2 0x1016 JUMPI SLOAD PUSH1 0x3 SLOAD DUP1 DUP3 MUL SWAP1 DUP3 DUP3 DIV EQ DUP3 ISZERO OR ISZERO PUSH2 0x1000 JUMPI PUSH2 0x2710 SWAP1 DIV SWAP1 DUP2 DUP2 SUB SWAP1 DUP2 GT PUSH2 0x1000 JUMPI PUSH1 0x1 SLOAD PUSH1 0x2 SLOAD PUSH1 0x40 MLOAD PUSH4 0xA9059CBB PUSH1 0xE0 SHL DUP1 DUP3 MSTORE SWAP2 DUP9 AND PUSH1 0x1 PUSH1 0x1 PUSH1 0xA0 SHL SUB AND PUSH1 0x4 DUP3 ADD MSTORE PUSH1 0x24 DUP2 ADD SWAP5 SWAP1 SWAP5 MSTORE SWAP3 SWAP6 SWAP1 DUP5 SWAP1 DUP8 SWAP1 DUP4 AND DUP2 PUSH1 0x0 DUP2 PUSH1 0x44 DUP2 ADD SUB SWAP3 GAS CALL SWAP3 DUP4 ISZERO PUSH2 0xFD7 JUMPI PUSH2 0xF3D SWAP7 DUP6 SWAP5 PUSH2 0xFE3 JUMPI JUMPDEST POP PUSH1 0x1 SLOAD PUSH1 0x2 DUP8 ADD SLOAD PUSH1 0x40 MLOAD SWAP3 DUP4 MSTORE PUSH1 0x1 PUSH1 0x1 PUSH1 0xA0 SHL SUB SWAP1 DUP5 AND AND PUSH1 0x4 DUP4 ADD MSTORE PUSH1 0x24 DUP3 ADD SWAP4 SWAP1 SWAP4 MSTORE SWAP6 DUP7 SWAP3 SWAP1 SWAP2 AND SWAP1 DUP3 SWAP1 PUSH1 0x0 SWAP1 DUP3 SWAP1 PUSH1 0x44 DUP3 ADD SWAP1 JUMP JUMPDEST SUB SWAP3 GAS CALL SWAP3 DUP4 ISZERO PUSH2 0xFD7 JUMPI PUSH1 0xF SWAP4 PUSH2 0xFAA JUMPI JUMPDEST POP DUP4 PUSH1 0x0 MSTORE PUSH1 0x5 DUP2 MSTORE PUSH1 0x40 PUSH1 0x0 KECCAK256 SWAP1 CALLER PUSH1 0x0 MSTORE MSTORE PUSH1 0x40 PUSH1 0x0 KECCAK256 PUSH1 0x1 PUSH1 0xFF NOT DUP3 SLOAD AND OR SWAP1 SSTORE ADD PUSH2 0xF7F DUP2 SLOAD PUSH2 0x1570 JUMP JUMPDEST SWAP1 SSTORE CALLER SWAP1 PUSH32 0x7DF22C96B281580CD377EAE9F79B72DDD9B187B24C4E08864EE83899C2B1D5A6 PUSH1 0x0 DUP1 LOG3 STOP JUMPDEST PUSH2 0xFC9 SWAP1 DUP3 RETURNDATASIZE DUP5 GT PUSH2 0xFD0 JUMPI JUMPDEST PUSH2 0xFC1 DUP2 DUP4 PUSH2 0x13E4 JUMP JUMPDEST DUP2 ADD SWAP1 PUSH2 0x163A JUMP JUMPDEST POP DUP5 PUSH2 0xF50 JUMP JUMPDEST POP RETURNDATASIZE PUSH2 0xFB7 JUMP JUMPDEST PUSH1 0x40 MLOAD RETURNDATASIZE PUSH1 0x0 DUP3 RETURNDATACOPY RETURNDATASIZE SWAP1 REVERT JUMPDEST PUSH2 0xFF9 SWAP1 DUP6 RETURNDATASIZE DUP8 GT PUSH2 0xFD0 JUMPI PUSH2 0xFC1 DUP2 DUP4 PUSH2 0x13E4 JUMP JUMPDEST POP DUP9 PUSH2 0xF00 JUMP JUMPDEST PUSH4 0x4E487B71 PUSH1 0xE0 SHL PUSH1 0x0 MSTORE PUSH1 0x11 PUSH1 0x4 MSTORE PUSH1 0x24 PUSH1 0x0 REVERT JUMPDEST PUSH1 0x40 MLOAD PUSH4 0x6992E1FF PUSH1 0xE0 SHL DUP2 MSTORE PUSH1 0x4 SWAP1 REVERT JUMPDEST PUSH2 0x103F SWAP2 POP DUP4 RETURNDATASIZE DUP6 GT PUSH2 0xFD0 JUMPI PUSH2 0xFC1 DUP2 DUP4 PUSH2 0x13E4 JUMP JUMPDEST DUP7 PUSH2 0xE82 JUMP JUMPDEST PUSH1 0x40 MLOAD PUSH4 0x2293BB1F PUSH1 0xE2 SHL DUP2 MSTORE PUSH1 0x4 SWAP1 REVERT JUMPDEST CALLVALUE PUSH2 0x15D JUMPI PUSH1 0x80 CALLDATASIZE PUSH1 0x3 NOT ADD SLT PUSH2 0x15D JUMPI PUSH1 0x1 PUSH1 0x1 PUSH1 0x40 SHL SUB PUSH1 0x4 CALLDATALOAD PUSH1 0x24 CALLDATALOAD DUP3 DUP2 GT PUSH2 0x15D JUMPI PUSH2 0x108B SWAP1 CALLDATASIZE SWAP1 PUSH1 0x4 ADD PUSH2 0x14EB JUMP JUMPDEST SWAP1 SWAP3 DUP3 PUSH1 0x0 MSTORE PUSH1 0x20 SWAP2 PUSH1 0x4 DUP4 MSTORE PUSH1 0x40 PUSH1 0x0 KECCAK256 SWAP2 PUSH1 0x1 DUP1 PUSH1 0xA0 SHL SUB PUSH1 0x2 DUP5 ADD SLOAD AND CALLER SUB PUSH2 0x62D JUMPI PUSH1 0x1 SWAP3 DUP4 DUP2 ADD SWAP2 DUP3 SLOAD PUSH2 0x11F5 JUMPI PUSH1 0x7 DUP3 ADD SWAP1 DUP5 GT PUSH2 0x5A2 JUMPI PUSH2 0x10DD DUP5 PUSH2 0x10D7 DUP4 SLOAD PUSH2 0x138E JUMP JUMPDEST DUP4 PUSH2 0x15C5 JUMP JUMPDEST PUSH1 0x0 PUSH1 0x1F DUP6 GT PUSH1 0x1 EQ PUSH2 0x1169 JUMPI SWAP3 DUP5 SWAP3 DUP7 SWAP3 PUSH2 0x1159 SWAP7 PUSH32 0xE6EC111EAEBBB363DE7BE95E0F045E2155A53226C0C467B5B54FD5FDC2997597 SWAP11 SWAP12 SWAP7 PUSH1 0x0 SWAP2 PUSH2 0x115E JUMPI JUMPDEST POP PUSH1 0x0 NOT PUSH1 0x3 DUP8 SWAP1 SHL SHR NOT AND DUP6 DUP6 SHL OR SWAP1 SSTORE JUMPDEST PUSH1 0x44 CALLDATALOAD PUSH1 0x8 DUP3 ADD SSTORE PUSH1 0x9 PUSH1 0x64 CALLDATALOAD SWAP2 ADD SSTORE SSTORE PUSH1 0x40 DUP1 MLOAD SWAP6 DUP7 SWAP6 DUP7 MSTORE DUP6 ADD MSTORE PUSH1 0x40 DUP5 ADD SWAP2 PUSH2 0x1619 JUMP JUMPDEST SUB SWAP1 LOG2 STOP JUMPDEST SWAP1 POP DUP7 ADD CALLDATALOAD DUP13 PUSH2 0x111F JUMP JUMPDEST PUSH1 0x1F NOT DUP6 AND SWAP1 DUP3 PUSH1 0x0 MSTORE DUP8 PUSH1 0x0 KECCAK256 SWAP2 PUSH1 0x0 JUMPDEST DUP2 DUP2 LT PUSH2 0x11E0 JUMPI POP SWAP3 PUSH32 0xE6EC111EAEBBB363DE7BE95E0F045E2155A53226C0C467B5B54FD5FDC2997597 SWAP10 SWAP11 SWAP6 SWAP3 DUP8 SWAP6 SWAP3 PUSH2 0x1159 SWAP9 DUP11 SWAP7 LT PUSH2 0x11C6 JUMPI JUMPDEST POP POP DUP4 DUP6 DUP2 SHL ADD SWAP1 SSTORE PUSH2 0x1132 JUMP JUMPDEST DUP8 ADD CALLDATALOAD PUSH1 0x0 NOT PUSH1 0x3 DUP9 SWAP1 SHL PUSH1 0xF8 AND SHR NOT AND SWAP1 SSTORE DUP12 DUP1 PUSH2 0x11B8 JUMP JUMPDEST DUP12 DUP4 ADD CALLDATALOAD DUP5 SSTORE SWAP3 DUP9 ADD SWAP3 SWAP2 DUP10 ADD SWAP2 DUP10 ADD PUSH2 0x117B JUMP JUMPDEST PUSH1 0x40 MLOAD PUSH4 0x1BCE28EB PUSH1 0xE1 SHL DUP2 MSTORE PUSH1 0x4 SWAP1 REVERT JUMPDEST CALLVALUE PUSH2 0x15D JUMPI PUSH1 0x20 CALLDATASIZE PUSH1 0x3 NOT ADD SLT PUSH2 0x15D JUMPI PUSH1 0x4 DUP1 CALLDATALOAD PUSH1 0x0 SWAP1 DUP2 MSTORE PUSH1 0x20 SWAP2 SWAP1 SWAP2 MSTORE PUSH1 0x40 SWAP1 KECCAK256 DUP1 SLOAD PUSH1 0x1 DUP3 ADD SLOAD PUSH1 0x2 DUP4 ADD SLOAD PUSH1 0x1 PUSH1 0x1 PUSH1 0xA0 SHL SUB AND SWAP3 SWAP1 PUSH2 0x124E PUSH1 0x3 DUP4 ADD PUSH2 0x1405 JUMP JUMPDEST SWAP4 PUSH2 0x125B PUSH1 0x4 DUP5 ADD PUSH2 0x1405 JUMP JUMPDEST PUSH1 0x5 DUP5 ADD SLOAD PUSH1 0x6 DUP6 ADD SLOAD PUSH1 0xFF AND PUSH2 0x1274 PUSH1 0x7 DUP8 ADD PUSH2 0x1405 JUMP JUMPDEST PUSH1 0x8 DUP8 ADD SLOAD SWAP3 PUSH1 0x9 DUP9 ADD SLOAD SWAP3 PUSH1 0xA DUP10 ADD PUSH2 0x128D SWAP1 PUSH2 0x1405 JUMP JUMPDEST SWAP6 PUSH1 0xB DUP11 ADD SLOAD SWAP12 PUSH1 0xC DUP12 ADD SLOAD SWAP9 PUSH1 0xD DUP13 ADD SLOAD SWAP11 PUSH1 0xE DUP14 ADD SLOAD SWAP13 PUSH1 0xF ADD SLOAD SWAP14 PUSH1 0x40 MLOAD DUP1 PUSH1 0x80 MSTORE MSTORE PUSH1 0x80 MLOAD PUSH1 0x20 ADD MSTORE PUSH1 0x80 MLOAD PUSH1 0x40 ADD MSTORE PUSH2 0x200 DUP1 PUSH1 0x80 MLOAD PUSH1 0x60 ADD MSTORE PUSH1 0x80 MLOAD ADD PUSH2 0x12D9 SWAP2 PUSH2 0x14AB JUMP JUMPDEST PUSH1 0x80 MLOAD DUP1 DUP3 SUB SWAP1 PUSH1 0x80 ADD MSTORE PUSH2 0x12ED SWAP2 PUSH2 0x14AB JUMP JUMPDEST SWAP2 PUSH1 0x80 MLOAD PUSH1 0xA0 ADD MSTORE ISZERO ISZERO PUSH1 0x80 MLOAD PUSH1 0xC0 ADD MSTORE PUSH1 0x80 MLOAD DUP1 DUP3 SUB SWAP1 PUSH1 0xE0 ADD MSTORE PUSH2 0x1312 SWAP2 PUSH2 0x14AB JUMP JUMPDEST SWAP2 PUSH1 0x80 MLOAD PUSH2 0x100 ADD MSTORE PUSH1 0x80 MLOAD PUSH2 0x120 ADD MSTORE PUSH1 0x80 MLOAD DUP1 DUP3 SUB SWAP1 PUSH2 0x140 ADD MSTORE PUSH2 0x1338 SWAP2 PUSH2 0x14AB JUMP JUMPDEST SWAP5 PUSH1 0x80 MLOAD PUSH2 0x160 ADD MSTORE PUSH1 0x80 MLOAD PUSH2 0x180 ADD MSTORE PUSH1 0x80 MLOAD PUSH2 0x1A0 ADD MSTORE PUSH1 0x80 MLOAD PUSH2 0x1C0 ADD MSTORE PUSH1 0x80 MLOAD PUSH2 0x1E0 ADD MSTORE PUSH1 0x80 MLOAD DUP1 SWAP2 SUB SWAP1 RETURN JUMPDEST CALLVALUE PUSH2 0x15D JUMPI PUSH1 0x0 CALLDATASIZE PUSH1 0x3 NOT ADD SLT PUSH2 0x15D JUMPI PUSH1 0x1 SLOAD PUSH1 0x1 PUSH1 0x1 PUSH1 0xA0 SHL SUB AND DUP2 MSTORE PUSH1 0x20 SWAP1 RETURN JUMPDEST SWAP1 PUSH1 0x1 DUP3 DUP2 SHR SWAP3 AND DUP1 ISZERO PUSH2 0x13BE JUMPI JUMPDEST PUSH1 0x20 DUP4 LT EQ PUSH2 0x13A8 JUMPI JUMP JUMPDEST PUSH4 0x4E487B71 PUSH1 0xE0 SHL PUSH1 0x0 MSTORE PUSH1 0x22 PUSH1 0x4 MSTORE PUSH1 0x24 PUSH1 0x0 REVERT JUMPDEST SWAP2 PUSH1 0x7F AND SWAP2 PUSH2 0x139D JUMP JUMPDEST PUSH2 0x200 DUP2 ADD SWAP1 DUP2 LT PUSH1 0x1 PUSH1 0x1 PUSH1 0x40 SHL SUB DUP3 GT OR PUSH2 0x5A2 JUMPI PUSH1 0x40 MSTORE JUMP JUMPDEST SWAP1 PUSH1 0x1F DUP1 NOT SWAP2 ADD AND DUP2 ADD SWAP1 DUP2 LT PUSH1 0x1 PUSH1 0x1 PUSH1 0x40 SHL SUB DUP3 GT OR PUSH2 0x5A2 JUMPI PUSH1 0x40 MSTORE JUMP JUMPDEST SWAP1 PUSH1 0x40 MLOAD SWAP2 DUP3 PUSH1 0x0 DUP3 SLOAD SWAP3 PUSH2 0x1419 DUP5 PUSH2 0x138E JUMP JUMPDEST SWAP1 DUP2 DUP5 MSTORE PUSH1 0x1 SWAP5 DUP6 DUP2 AND SWAP1 DUP2 PUSH1 0x0 EQ PUSH2 0x1488 JUMPI POP PUSH1 0x1 EQ PUSH2 0x1445 JUMPI JUMPDEST POP POP PUSH2 0x1443 SWAP3 POP SUB DUP4 PUSH2 0x13E4 JUMP JUMPDEST JUMP JUMPDEST SWAP1 SWAP4 SWAP2 POP PUSH1 0x0 MSTORE PUSH1 0x20 SWAP1 DUP2 PUSH1 0x0 KECCAK256 SWAP4 PUSH1 0x0 SWAP2 JUMPDEST DUP2 DUP4 LT PUSH2 0x1470 JUMPI POP POP PUSH2 0x1443 SWAP4 POP DUP3 ADD ADD CODESIZE DUP1 PUSH2 0x1435 JUMP JUMPDEST DUP6 SLOAD DUP9 DUP5 ADD DUP6 ADD MSTORE SWAP5 DUP6 ADD SWAP5 DUP8 SWAP5 POP SWAP2 DUP4 ADD SWAP2 PUSH2 0x1458 JUMP JUMPDEST SWAP2 POP POP PUSH2 0x1443 SWAP5 POP PUSH1 0x20 SWAP3 POP PUSH1 0xFF NOT AND DUP3 DUP5 ADD MSTORE ISZERO ISZERO PUSH1 0x5 SHL DUP3 ADD ADD CODESIZE DUP1 PUSH2 0x1435 JUMP JUMPDEST SWAP2 SWAP1 DUP3 MLOAD SWAP3 DUP4 DUP3 MSTORE PUSH1 0x0 JUMPDEST DUP5 DUP2 LT PUSH2 0x14D7 JUMPI POP POP DUP3 PUSH1 0x0 PUSH1 0x20 DUP1 SWAP5 SWAP6 DUP5 ADD ADD MSTORE PUSH1 0x1F DUP1 NOT SWAP2 ADD AND ADD ADD SWAP1 JUMP JUMPDEST PUSH1 0x20 DUP2 DUP4 ADD DUP2 ADD MLOAD DUP5 DUP4 ADD DUP3 ADD MSTORE ADD PUSH2 0x14B6 JUMP JUMPDEST SWAP2 DUP2 PUSH1 0x1F DUP5 ADD SLT ISZERO PUSH2 0x15D JUMPI DUP3 CALLDATALOAD SWAP2 PUSH1 0x1 PUSH1 0x1 PUSH1 0x40 SHL SUB DUP4 GT PUSH2 0x15D JUMPI PUSH1 0x20 DUP4 DUP2 DUP7 ADD SWAP6 ADD ADD GT PUSH2 0x15D JUMPI JUMP JUMPDEST PUSH1 0x24 CALLDATALOAD SWAP1 PUSH1 0x1 PUSH1 0x1 PUSH1 0xA0 SHL SUB DUP3 AND DUP3 SUB PUSH2 0x15D JUMPI JUMP JUMPDEST PUSH1 0x4 CALLDATALOAD SWAP1 PUSH1 0x1 PUSH1 0x1 PUSH1 0xA0 SHL SUB DUP3 AND DUP3 SUB PUSH2 0x15D JUMPI JUMP JUMPDEST PUSH1 0x0 SLOAD PUSH1 0x1 PUSH1 0x1 PUSH1 0xA0 SHL SUB AND CALLER SUB PUSH2 0x1558 JUMPI JUMP JUMPDEST PUSH1 0x40 MLOAD PUSH4 0x118CDAA7 PUSH1 0xE0 SHL DUP2 MSTORE CALLER PUSH1 0x4 DUP3 ADD MSTORE PUSH1 0x24 SWAP1 REVERT JUMPDEST PUSH1 0x0 NOT DUP2 EQ PUSH2 0x1000 JUMPI PUSH1 0x1 ADD SWAP1 JUMP JUMPDEST SWAP3 SWAP2 SWAP3 PUSH1 0x1 PUSH1 0x1 PUSH1 0x40 SHL SUB DUP3 GT PUSH2 0x5A2 JUMPI PUSH1 0x40 MLOAD SWAP2 PUSH2 0x15A8 PUSH1 0x1F DUP3 ADD PUSH1 0x1F NOT AND PUSH1 0x20 ADD DUP5 PUSH2 0x13E4 JUMP JUMPDEST DUP3 SWAP5 DUP2 DUP5 MSTORE DUP2 DUP4 ADD GT PUSH2 0x15D JUMPI DUP3 DUP2 PUSH1 0x20 SWAP4 DUP5 PUSH1 0x0 SWAP7 ADD CALLDATACOPY ADD ADD MSTORE JUMP JUMPDEST SWAP1 PUSH1 0x1F DUP2 GT PUSH2 0x15D3 JUMPI POP POP POP JUMP JUMPDEST PUSH1 0x0 SWAP2 DUP3 MSTORE PUSH1 0x20 DUP3 KECCAK256 SWAP1 PUSH1 0x20 PUSH1 0x1F DUP6 ADD PUSH1 0x5 SHR DUP4 ADD SWAP5 LT PUSH2 0x160F JUMPI JUMPDEST PUSH1 0x1F ADD PUSH1 0x5 SHR ADD SWAP2 JUMPDEST DUP3 DUP2 LT PUSH2 0x1604 JUMPI POP POP POP JUMP JUMPDEST DUP2 DUP2 SSTORE PUSH1 0x1 ADD PUSH2 0x15F8 JUMP JUMPDEST SWAP1 SWAP3 POP DUP3 SWAP1 PUSH2 0x15EF JUMP JUMPDEST SWAP1 DUP1 PUSH1 0x20 SWAP4 SWAP3 DUP2 DUP5 MSTORE DUP5 DUP5 ADD CALLDATACOPY PUSH1 0x0 DUP3 DUP3 ADD DUP5 ADD MSTORE PUSH1 0x1F ADD PUSH1 0x1F NOT AND ADD ADD SWAP1 JUMP JUMPDEST SWAP1 DUP2 PUSH1 0x20 SWAP2 SUB SLT PUSH2 0x15D JUMPI MLOAD DUP1 ISZERO ISZERO DUP2 SUB PUSH2 0x15D JUMPI SWAP1 JUMP INVALID LOG2 PUSH5 0x6970667358 0x22 SLT KECCAK256 0xD5 0xBF 0xE6 0x23 PUSH21 0x9A7418644E6D9AE97DD358F274275BD599978075D1 0xD3 0x2D SWAP14 0x4B 0x27 0xC5 PUSH5 0x736F6C6343 STOP ADDMOD EQ STOP CALLER "},"methodIdentifiers":{"allowlist(uint256,address)":"87910cef","createDataset(string,string,uint256,bool,string,uint256,uint256,uint256,uint256)":"49fe92cb","datasets(uint256)":"1cff85e1","getDataset(uint256)":"ee004221","hasAccess(uint256,address)":"ced14198","lockDataset(uint256,string,uint256,uint256)":"1d2ade8d","owner()":"8da5cb5b","protocolFeePercentage()":"8e50e509","purchaseDataset(uint256)":"49ee56f9","renounceOwnership()":"715018a6","setProtocolFeePercentage(uint256)":"d8a5e936","setTreasury(address)":"f0f44260","transferOwnership(address)":"f2fde38b","treasury()":"61d027b3","updateDataset(uint256,string,string,uint256)":"d9c63126","usdcToken()":"11eac855"}}}}}